{
  "_format": "hh-sol-artifact-1",
  "contractName": "Ticket",
  "sourceName": "contracts/ticket/Ticket.sol",
  "abi": [
    {
      "inputs": [],
      "name": "InvalidAmount",
      "type": "error"
    },
    {
      "inputs": [],
      "name": "InvalidInput",
      "type": "error"
    },
    {
      "inputs": [],
      "name": "Unauthorized",
      "type": "error"
    },
    {
      "inputs": [],
      "name": "Unavailable",
      "type": "error"
    },
    {
      "inputs": [],
      "name": "WinnerAlreadyChosen",
      "type": "error"
    },
    {
      "anonymous": false,
      "inputs": [
        {
          "indexed": true,
          "internalType": "address",
          "name": "owner",
          "type": "address"
        },
        {
          "indexed": true,
          "internalType": "address",
          "name": "approved",
          "type": "address"
        },
        {
          "indexed": true,
          "internalType": "uint256",
          "name": "tokenId",
          "type": "uint256"
        }
      ],
      "name": "Approval",
      "type": "event"
    },
    {
      "anonymous": false,
      "inputs": [
        {
          "indexed": true,
          "internalType": "address",
          "name": "owner",
          "type": "address"
        },
        {
          "indexed": true,
          "internalType": "address",
          "name": "operator",
          "type": "address"
        },
        {
          "indexed": false,
          "internalType": "bool",
          "name": "approved",
          "type": "bool"
        }
      ],
      "name": "ApprovalForAll",
      "type": "event"
    },
    {
      "anonymous": false,
      "inputs": [
        {
          "indexed": false,
          "internalType": "uint256",
          "name": "winningTicket",
          "type": "uint256"
        },
        {
          "indexed": false,
          "internalType": "address",
          "name": "surpriseWinner",
          "type": "address"
        },
        {
          "indexed": false,
          "internalType": "uint256",
          "name": "amount",
          "type": "uint256"
        }
      ],
      "name": "FirstWinnerSelected",
      "type": "event"
    },
    {
      "anonymous": false,
      "inputs": [
        {
          "indexed": false,
          "internalType": "uint8",
          "name": "version",
          "type": "uint8"
        }
      ],
      "name": "Initialized",
      "type": "event"
    },
    {
      "anonymous": false,
      "inputs": [
        {
          "indexed": false,
          "internalType": "uint256",
          "name": "winningTicket",
          "type": "uint256"
        },
        {
          "indexed": false,
          "internalType": "address",
          "name": "winner",
          "type": "address"
        },
        {
          "indexed": false,
          "internalType": "uint256",
          "name": "amount",
          "type": "uint256"
        }
      ],
      "name": "SecondWinnerSelected",
      "type": "event"
    },
    {
      "anonymous": false,
      "inputs": [
        {
          "indexed": true,
          "internalType": "address",
          "name": "sender",
          "type": "address"
        },
        {
          "indexed": false,
          "internalType": "uint256",
          "name": "amount",
          "type": "uint256"
        }
      ],
      "name": "TicketBought",
      "type": "event"
    },
    {
      "anonymous": false,
      "inputs": [
        {
          "indexed": true,
          "internalType": "address",
          "name": "from",
          "type": "address"
        },
        {
          "indexed": true,
          "internalType": "address",
          "name": "to",
          "type": "address"
        },
        {
          "indexed": true,
          "internalType": "uint256",
          "name": "tokenId",
          "type": "uint256"
        }
      ],
      "name": "Transfer",
      "type": "event"
    },
    {
      "inputs": [],
      "name": "TICKET_PRICE",
      "outputs": [
        {
          "internalType": "uint256",
          "name": "",
          "type": "uint256"
        }
      ],
      "stateMutability": "view",
      "type": "function"
    },
    {
      "inputs": [
        {
          "internalType": "address",
          "name": "to",
          "type": "address"
        },
        {
          "internalType": "uint256",
          "name": "tokenId",
          "type": "uint256"
        }
      ],
      "name": "approve",
      "outputs": [],
      "stateMutability": "nonpayable",
      "type": "function"
    },
    {
      "inputs": [
        {
          "internalType": "address",
          "name": "owner",
          "type": "address"
        }
      ],
      "name": "balanceOf",
      "outputs": [
        {
          "internalType": "uint256",
          "name": "",
          "type": "uint256"
        }
      ],
      "stateMutability": "view",
      "type": "function"
    },
    {
      "inputs": [],
      "name": "buyTicket",
      "outputs": [],
      "stateMutability": "payable",
      "type": "function"
    },
    {
      "inputs": [],
      "name": "endBlockNumber",
      "outputs": [
        {
          "internalType": "uint256",
          "name": "",
          "type": "uint256"
        }
      ],
      "stateMutability": "view",
      "type": "function"
    },
    {
      "inputs": [],
      "name": "finished",
      "outputs": [
        {
          "internalType": "bool",
          "name": "",
          "type": "bool"
        }
      ],
      "stateMutability": "view",
      "type": "function"
    },
    {
      "inputs": [],
      "name": "firstWinnerSelected",
      "outputs": [
        {
          "internalType": "bool",
          "name": "",
          "type": "bool"
        }
      ],
      "stateMutability": "view",
      "type": "function"
    },
    {
      "inputs": [
        {
          "internalType": "uint256",
          "name": "tokenId",
          "type": "uint256"
        }
      ],
      "name": "getApproved",
      "outputs": [
        {
          "internalType": "address",
          "name": "",
          "type": "address"
        }
      ],
      "stateMutability": "view",
      "type": "function"
    },
    {
      "inputs": [
        {
          "internalType": "string",
          "name": "_name",
          "type": "string"
        },
        {
          "internalType": "string",
          "name": "_symbol",
          "type": "string"
        },
        {
          "internalType": "uint256",
          "name": "_startBlockNumber",
          "type": "uint256"
        },
        {
          "internalType": "uint256",
          "name": "_endBlockNumber",
          "type": "uint256"
        },
        {
          "internalType": "uint256",
          "name": "ticketPrice",
          "type": "uint256"
        },
        {
          "internalType": "address",
          "name": "_owner",
          "type": "address"
        }
      ],
      "name": "initialize",
      "outputs": [],
      "stateMutability": "nonpayable",
      "type": "function"
    },
    {
      "inputs": [
        {
          "internalType": "address",
          "name": "owner",
          "type": "address"
        },
        {
          "internalType": "address",
          "name": "operator",
          "type": "address"
        }
      ],
      "name": "isApprovedForAll",
      "outputs": [
        {
          "internalType": "bool",
          "name": "",
          "type": "bool"
        }
      ],
      "stateMutability": "view",
      "type": "function"
    },
    {
      "inputs": [],
      "name": "name",
      "outputs": [
        {
          "internalType": "string",
          "name": "",
          "type": "string"
        }
      ],
      "stateMutability": "view",
      "type": "function"
    },
    {
      "inputs": [],
      "name": "owner",
      "outputs": [
        {
          "internalType": "address",
          "name": "",
          "type": "address"
        }
      ],
      "stateMutability": "view",
      "type": "function"
    },
    {
      "inputs": [
        {
          "internalType": "uint256",
          "name": "tokenId",
          "type": "uint256"
        }
      ],
      "name": "ownerOf",
      "outputs": [
        {
          "internalType": "address",
          "name": "",
          "type": "address"
        }
      ],
      "stateMutability": "view",
      "type": "function"
    },
    {
      "inputs": [],
      "name": "pickFirstWinner",
      "outputs": [],
      "stateMutability": "nonpayable",
      "type": "function"
    },
    {
      "inputs": [],
      "name": "pickSecondWinner",
      "outputs": [],
      "stateMutability": "nonpayable",
      "type": "function"
    },
    {
      "inputs": [],
      "name": "rewardPool",
      "outputs": [
        {
          "internalType": "uint256",
          "name": "",
          "type": "uint256"
        }
      ],
      "stateMutability": "view",
      "type": "function"
    },
    {
      "inputs": [
        {
          "internalType": "address",
          "name": "from",
          "type": "address"
        },
        {
          "internalType": "address",
          "name": "to",
          "type": "address"
        },
        {
          "internalType": "uint256",
          "name": "tokenId",
          "type": "uint256"
        }
      ],
      "name": "safeTransferFrom",
      "outputs": [],
      "stateMutability": "nonpayable",
      "type": "function"
    },
    {
      "inputs": [
        {
          "internalType": "address",
          "name": "from",
          "type": "address"
        },
        {
          "internalType": "address",
          "name": "to",
          "type": "address"
        },
        {
          "internalType": "uint256",
          "name": "tokenId",
          "type": "uint256"
        },
        {
          "internalType": "bytes",
          "name": "data",
          "type": "bytes"
        }
      ],
      "name": "safeTransferFrom",
      "outputs": [],
      "stateMutability": "nonpayable",
      "type": "function"
    },
    {
      "inputs": [],
      "name": "secondWinnerSelected",
      "outputs": [
        {
          "internalType": "bool",
          "name": "",
          "type": "bool"
        }
      ],
      "stateMutability": "view",
      "type": "function"
    },
    {
      "inputs": [
        {
          "internalType": "address",
          "name": "operator",
          "type": "address"
        },
        {
          "internalType": "bool",
          "name": "approved",
          "type": "bool"
        }
      ],
      "name": "setApprovalForAll",
      "outputs": [],
      "stateMutability": "nonpayable",
      "type": "function"
    },
    {
      "inputs": [],
      "name": "startBlockNumber",
      "outputs": [
        {
          "internalType": "uint256",
          "name": "",
          "type": "uint256"
        }
      ],
      "stateMutability": "view",
      "type": "function"
    },
    {
      "inputs": [],
      "name": "started",
      "outputs": [
        {
          "internalType": "bool",
          "name": "",
          "type": "bool"
        }
      ],
      "stateMutability": "view",
      "type": "function"
    },
    {
      "inputs": [
        {
          "internalType": "bytes4",
          "name": "interfaceId",
          "type": "bytes4"
        }
      ],
      "name": "supportsInterface",
      "outputs": [
        {
          "internalType": "bool",
          "name": "",
          "type": "bool"
        }
      ],
      "stateMutability": "view",
      "type": "function"
    },
    {
      "inputs": [],
      "name": "symbol",
      "outputs": [
        {
          "internalType": "string",
          "name": "",
          "type": "string"
        }
      ],
      "stateMutability": "view",
      "type": "function"
    },
    {
      "inputs": [],
      "name": "ticketIds",
      "outputs": [
        {
          "internalType": "uint256",
          "name": "_value",
          "type": "uint256"
        }
      ],
      "stateMutability": "view",
      "type": "function"
    },
    {
      "inputs": [
        {
          "internalType": "uint256",
          "name": "",
          "type": "uint256"
        }
      ],
      "name": "ticketIdsToParticipants",
      "outputs": [
        {
          "internalType": "address",
          "name": "",
          "type": "address"
        }
      ],
      "stateMutability": "view",
      "type": "function"
    },
    {
      "inputs": [
        {
          "internalType": "uint256",
          "name": "tokenId",
          "type": "uint256"
        }
      ],
      "name": "tokenURI",
      "outputs": [
        {
          "internalType": "string",
          "name": "",
          "type": "string"
        }
      ],
      "stateMutability": "view",
      "type": "function"
    },
    {
      "inputs": [
        {
          "internalType": "address",
          "name": "from",
          "type": "address"
        },
        {
          "internalType": "address",
          "name": "to",
          "type": "address"
        },
        {
          "internalType": "uint256",
          "name": "tokenId",
          "type": "uint256"
        }
      ],
      "name": "transferFrom",
      "outputs": [],
      "stateMutability": "nonpayable",
      "type": "function"
    }
  ],
  "bytecode": "0x608060405234801561001057600080fd5b5060016000819055506139ff806100286000396000f3fe6080604052600436106101b75760003560e01c806389bd061d116100ec578063b4999e851161008a578063c87b56dd11610064578063c87b56dd146105ea578063e985e9c514610627578063edca914c14610664578063f087b0781461066e576101b7565b8063b4999e851461056b578063b88d4fde14610596578063bef4876b146105bf576101b7565b806395d89b41116100c657806395d89b41146104c3578063994a2ef4146104ee578063a22cb46514610519578063a650752714610542576101b7565b806389bd061d146104565780638da5cb5b1461046d5780639430431a14610498576101b7565b80633e2a14f1116101595780636352211e116101335780636352211e1461037457806366666aa9146103b1578063681cda2a146103dc57806370a0823114610419576101b7565b80633e2a14f11461030957806342842e0e14610320578063498a4c2d14610349576101b7565b8063095ea7b311610195578063095ea7b3146102615780631a95f15f1461028a5780631f2698ab146102b557806323b872dd146102e0576101b7565b806301ffc9a7146101bc57806306fdde03146101f9578063081812fc14610224575b600080fd5b3480156101c857600080fd5b506101e360048036038101906101de9190612772565b610699565b6040516101f091906127ba565b60405180910390f35b34801561020557600080fd5b5061020e61077b565b60405161021b919061286e565b60405180910390f35b34801561023057600080fd5b5061024b600480360381019061024691906128c6565b61080d565b6040516102589190612934565b60405180910390f35b34801561026d57600080fd5b506102886004803603810190610283919061297b565b610853565b005b34801561029657600080fd5b5061029f61096b565b6040516102ac91906129ca565b60405180910390f35b3480156102c157600080fd5b506102ca610971565b6040516102d791906127ba565b60405180910390f35b3480156102ec57600080fd5b50610307600480360381019061030291906129e5565b610991565b005b34801561031557600080fd5b5061031e6109f1565b005b34801561032c57600080fd5b50610347600480360381019061034291906129e5565b610be8565b005b34801561035557600080fd5b5061035e610c08565b60405161036b91906129ca565b60405180910390f35b34801561038057600080fd5b5061039b600480360381019061039691906128c6565b610c0e565b6040516103a89190612934565b60405180910390f35b3480156103bd57600080fd5b506103c6610cc0565b6040516103d391906129ca565b60405180910390f35b3480156103e857600080fd5b5061040360048036038101906103fe91906128c6565b610cc6565b6040516104109190612934565b60405180910390f35b34801561042557600080fd5b50610440600480360381019061043b9190612a38565b610cf9565b60405161044d91906129ca565b60405180910390f35b34801561046257600080fd5b5061046b610db1565b005b34801561047957600080fd5b50610482610fe5565b60405161048f9190612934565b60405180910390f35b3480156104a457600080fd5b506104ad61100b565b6040516104ba91906127ba565b60405180910390f35b3480156104cf57600080fd5b506104d861101e565b6040516104e5919061286e565b60405180910390f35b3480156104fa57600080fd5b506105036110b0565b60405161051091906127ba565b60405180910390f35b34801561052557600080fd5b50610540600480360381019061053b9190612a91565b6110c3565b005b34801561054e57600080fd5b5061056960048036038101906105649190612b36565b6110d9565b005b34801561057757600080fd5b506105806113a2565b60405161058d91906129ca565b60405180910390f35b3480156105a257600080fd5b506105bd60048036038101906105b89190612d35565b6113a8565b005b3480156105cb57600080fd5b506105d461140a565b6040516105e191906127ba565b60405180910390f35b3480156105f657600080fd5b50610611600480360381019061060c91906128c6565b61142a565b60405161061e919061286e565b60405180910390f35b34801561063357600080fd5b5061064e60048036038101906106499190612db8565b61153d565b60405161065b91906127ba565b60405180910390f35b61066c6115d1565b005b34801561067a57600080fd5b50610683611745565b60405161069091906129ca565b60405180910390f35b60007f80ac58cd000000000000000000000000000000000000000000000000000000007bffffffffffffffffffffffffffffffffffffffffffffffffffffffff1916827bffffffffffffffffffffffffffffffffffffffffffffffffffffffff1916148061076457507f5b5e139f000000000000000000000000000000000000000000000000000000007bffffffffffffffffffffffffffffffffffffffffffffffffffffffff1916827bffffffffffffffffffffffffffffffffffffffffffffffffffffffff1916145b80610774575061077382611751565b5b9050919050565b60606066805461078a90612e27565b80601f01602080910402602001604051908101604052809291908181526020018280546107b690612e27565b80156108035780601f106107d857610100808354040283529160200191610803565b820191906000526020600020905b8154815290600101906020018083116107e657829003601f168201915b5050505050905090565b6000610818826117bb565b606a600083815260200190815260200160002060009054906101000a900473ffffffffffffffffffffffffffffffffffffffff169050919050565b600061085e82610c0e565b90508073ffffffffffffffffffffffffffffffffffffffff168373ffffffffffffffffffffffffffffffffffffffff1614156108cf576040517f08c379a00000000000000000000000000000000000000000000000000000000081526004016108c690612ecb565b60405180910390fd5b8073ffffffffffffffffffffffffffffffffffffffff166108ee611806565b73ffffffffffffffffffffffffffffffffffffffff16148061091d575061091c81610917611806565b61153d565b5b61095c576040517f08c379a000000000000000000000000000000000000000000000000000000000815260040161095390612f5d565b60405180910390fd5b610966838361180e565b505050565b60ce5481565b60008060cb541415610986576000905061098e565b60cb54431190505b90565b6109a261099c611806565b826118c7565b6109e1576040517f08c379a00000000000000000000000000000000000000000000000000000000081526004016109d890612fef565b60405180910390fd5b6109ec83838361195c565b505050565b60cf60029054906101000a900473ffffffffffffffffffffffffffffffffffffffff1673ffffffffffffffffffffffffffffffffffffffff163373ffffffffffffffffffffffffffffffffffffffff1614610a78576040517f82b4290000000000000000000000000000000000000000000000000000000000815260040160405180910390fd5b600073ffffffffffffffffffffffffffffffffffffffff1660d0600080815260200190815260200160002060009054906101000a900473ffffffffffffffffffffffffffffffffffffffff1673ffffffffffffffffffffffffffffffffffffffff161415610b12576040517fa3b8915f00000000000000000000000000000000000000000000000000000000815260040160405180910390fd5b60cf60009054906101000a900460ff1615610b59576040517f47d0ee1000000000000000000000000000000000000000000000000000000000815260040160405180910390fd5b600080610b73600260cd54610b6e919061306d565b611bc3565b91509150600260cd54610b86919061306d565b60cd81905550600160cf60006101000a81548160ff0219169083151502179055507f1f30201e0af66a3efb9cb898df14e919ae31fbae411e4a4e499677f8e2202b04828260cd54604051610bdc9392919061309e565b60405180910390a15050565b610c03838383604051806020016040528060008152506113a8565b505050565b60cb5481565b6000806068600084815260200190815260200160002060009054906101000a900473ffffffffffffffffffffffffffffffffffffffff169050600073ffffffffffffffffffffffffffffffffffffffff168173ffffffffffffffffffffffffffffffffffffffff161415610cb7576040517f08c379a0000000000000000000000000000000000000000000000000000000008152600401610cae90613121565b60405180910390fd5b80915050919050565b60cd5481565b60d06020528060005260406000206000915054906101000a900473ffffffffffffffffffffffffffffffffffffffff1681565b60008073ffffffffffffffffffffffffffffffffffffffff168273ffffffffffffffffffffffffffffffffffffffff161415610d6a576040517f08c379a0000000000000000000000000000000000000000000000000000000008152600401610d61906131b3565b60405180910390fd5b606960008373ffffffffffffffffffffffffffffffffffffffff1673ffffffffffffffffffffffffffffffffffffffff168152602001908152602001600020549050919050565b60cf60029054906101000a900473ffffffffffffffffffffffffffffffffffffffff1673ffffffffffffffffffffffffffffffffffffffff163373ffffffffffffffffffffffffffffffffffffffff1614610e38576040517f82b4290000000000000000000000000000000000000000000000000000000000815260040160405180910390fd5b60cc5480431015610e75576040517fa3b8915f00000000000000000000000000000000000000000000000000000000815260040160405180910390fd5b600073ffffffffffffffffffffffffffffffffffffffff1660d0600080815260200190815260200160002060009054906101000a900473ffffffffffffffffffffffffffffffffffffffff1673ffffffffffffffffffffffffffffffffffffffff161480610ef0575060cf60009054906101000a900460ff16155b15610f27576040517fa3b8915f00000000000000000000000000000000000000000000000000000000815260040160405180910390fd5b60cf60019054906101000a900460ff1615610f6e576040517f47d0ee1000000000000000000000000000000000000000000000000000000000815260040160405180910390fd5b600080610f7c60cd54611bc3565b91509150600160cf60016101000a81548160ff0219169083151502179055507f02fbddc68bf1137841a96ce9501e9e118e5064f54cca1f1d8003a97cb9be8e91828260cd54604051610fd09392919061309e565b60405180910390a1600060cd81905550505050565b60cf60029054906101000a900473ffffffffffffffffffffffffffffffffffffffff1681565b60cf60009054906101000a900460ff1681565b60606067805461102d90612e27565b80601f016020809104026020016040519081016040528092919081815260200182805461105990612e27565b80156110a65780601f1061107b576101008083540402835291602001916110a6565b820191906000526020600020905b81548152906001019060200180831161108957829003601f168201915b5050505050905090565b60cf60019054906101000a900460ff1681565b6110d56110ce611806565b8383611c68565b5050565b600060018054906101000a900460ff1615905080801561110a575060018060009054906101000a900460ff1660ff16105b80611138575061111930611dd5565b158015611137575060018060009054906101000a900460ff1660ff16145b5b611177576040517f08c379a000000000000000000000000000000000000000000000000000000000815260040161116e90613245565b60405180910390fd5b60018060006101000a81548160ff021916908360ff16021790555080156111b35760018060016101000a81548160ff0219169083151502179055505b60008989905014806111c85750600087879050145b806111d257504385105b806111dc57508484105b806111e8575060008311155b8061121f5750600073ffffffffffffffffffffffffffffffffffffffff168273ffffffffffffffffffffffffffffffffffffffff16145b15611256576040517fb4fa3fb300000000000000000000000000000000000000000000000000000000815260040160405180910390fd5b6112e889898080601f016020809104026020016040519081016040528093929190818152602001838380828437600081840152601f19601f8201169050808301925050505050505088888080601f016020809104026020016040519081016040528093929190818152602001838380828437600081840152601f19601f82011690508083019250505050505050611df8565b8460cb819055508360cc819055508260ce819055508160cf60026101000a81548173ffffffffffffffffffffffffffffffffffffffff021916908373ffffffffffffffffffffffffffffffffffffffff16021790555080156113975760006001806101000a81548160ff0219169083151502179055507f7f26b83ff96e1f2b6a682f133852f6798a09c465da95921460cefb3847402498600160405161138e91906132b7565b60405180910390a15b505050505050505050565b60cc5481565b6113b96113b3611806565b836118c7565b6113f8576040517f08c379a00000000000000000000000000000000000000000000000000000000081526004016113ef90612fef565b60405180910390fd5b61140484848484611e53565b50505050565b60008060cc54141561141f5760009050611427565b60cc54431190505b90565b6060611435826117bb565b600060986000848152602001908152602001600020805461145590612e27565b80601f016020809104026020016040519081016040528092919081815260200182805461148190612e27565b80156114ce5780601f106114a3576101008083540402835291602001916114ce565b820191906000526020600020905b8154815290600101906020018083116114b157829003601f168201915b5050505050905060006114df611eaf565b90506000815114156114f5578192505050611538565b60008251111561152a57808260405160200161151292919061330e565b60405160208183030381529060405292505050611538565b61153384611ec6565b925050505b919050565b6000606b60008473ffffffffffffffffffffffffffffffffffffffff1673ffffffffffffffffffffffffffffffffffffffff16815260200190815260200160002060008373ffffffffffffffffffffffffffffffffffffffff1673ffffffffffffffffffffffffffffffffffffffff16815260200190815260200160002060009054906101000a900460ff16905092915050565b60cb548043101561160e576040517fa3b8915f00000000000000000000000000000000000000000000000000000000815260040160405180910390fd5b60cc548043111561164b576040517fa3b8915f00000000000000000000000000000000000000000000000000000000815260040160405180910390fd5b60ce543414611686576040517f2c5211c600000000000000000000000000000000000000000000000000000000815260040160405180910390fd5b61168e611f2e565b3360d0600061169d60ca611f5c565b815260200190815260200160002060006101000a81548173ffffffffffffffffffffffffffffffffffffffff021916908373ffffffffffffffffffffffffffffffffffffffff1602179055506116f360ca611f6a565b3373ffffffffffffffffffffffffffffffffffffffff167f985d112c54c7518a49841fc37640d9ded60112ea7370ca9129c8ed33c3607bc73460405161173991906129ca565b60405180910390a25050565b60ca8060000154905081565b60007f01ffc9a7000000000000000000000000000000000000000000000000000000007bffffffffffffffffffffffffffffffffffffffffffffffffffffffff1916827bffffffffffffffffffffffffffffffffffffffffffffffffffffffff1916149050919050565b6117c481611f80565b611803576040517f08c379a00000000000000000000000000000000000000000000000000000000081526004016117fa90613121565b60405180910390fd5b50565b600033905090565b81606a600083815260200190815260200160002060006101000a81548173ffffffffffffffffffffffffffffffffffffffff021916908373ffffffffffffffffffffffffffffffffffffffff160217905550808273ffffffffffffffffffffffffffffffffffffffff1661188183610c0e565b73ffffffffffffffffffffffffffffffffffffffff167f8c5be1e5ebec7d5bd14f71427d1e84f3dd0314c0f7b2291e5b200ac8c7c3b92560405160405180910390a45050565b6000806118d383610c0e565b90508073ffffffffffffffffffffffffffffffffffffffff168473ffffffffffffffffffffffffffffffffffffffff1614806119155750611914818561153d565b5b8061195357508373ffffffffffffffffffffffffffffffffffffffff1661193b8461080d565b73ffffffffffffffffffffffffffffffffffffffff16145b91505092915050565b8273ffffffffffffffffffffffffffffffffffffffff1661197c82610c0e565b73ffffffffffffffffffffffffffffffffffffffff16146119d2576040517f08c379a00000000000000000000000000000000000000000000000000000000081526004016119c9906133a4565b60405180910390fd5b600073ffffffffffffffffffffffffffffffffffffffff168273ffffffffffffffffffffffffffffffffffffffff161415611a42576040517f08c379a0000000000000000000000000000000000000000000000000000000008152600401611a3990613436565b60405180910390fd5b611a4d838383611fec565b611a5860008261180e565b6001606960008573ffffffffffffffffffffffffffffffffffffffff1673ffffffffffffffffffffffffffffffffffffffff1681526020019081526020016000206000828254611aa89190613456565b925050819055506001606960008473ffffffffffffffffffffffffffffffffffffffff1673ffffffffffffffffffffffffffffffffffffffff1681526020019081526020016000206000828254611aff919061348a565b92505081905550816068600083815260200190815260200160002060006101000a81548173ffffffffffffffffffffffffffffffffffffffff021916908373ffffffffffffffffffffffffffffffffffffffff160217905550808273ffffffffffffffffffffffffffffffffffffffff168473ffffffffffffffffffffffffffffffffffffffff167fddf252ad1be2c89b69c2b068fc378daa952ba7f163c4a11628f55a4df523b3ef60405160405180910390a4611bbe838383611ff1565b505050565b6000806000611bda611bd560ca611f5c565b611ff6565b9050600060d0600083815260200190815260200160002060009054906101000a900473ffffffffffffffffffffffffffffffffffffffff1690508073ffffffffffffffffffffffffffffffffffffffff166108fc869081150290604051600060405180830381858888f19350505050158015611c5a573d6000803e3d6000fd5b508181935093505050915091565b8173ffffffffffffffffffffffffffffffffffffffff168373ffffffffffffffffffffffffffffffffffffffff161415611cd7576040517f08c379a0000000000000000000000000000000000000000000000000000000008152600401611cce9061352c565b60405180910390fd5b80606b60008573ffffffffffffffffffffffffffffffffffffffff1673ffffffffffffffffffffffffffffffffffffffff16815260200190815260200160002060008473ffffffffffffffffffffffffffffffffffffffff1673ffffffffffffffffffffffffffffffffffffffff16815260200190815260200160002060006101000a81548160ff0219169083151502179055508173ffffffffffffffffffffffffffffffffffffffff168373ffffffffffffffffffffffffffffffffffffffff167f17307eab39ab6107e8899845ad3d59bd9653f200f220920489ca2b5937696c3183604051611dc891906127ba565b60405180910390a3505050565b6000808273ffffffffffffffffffffffffffffffffffffffff163b119050919050565b60018054906101000a900460ff16611e45576040517f08c379a0000000000000000000000000000000000000000000000000000000008152600401611e3c906135be565b60405180910390fd5b611e4f8282612112565b5050565b611e5e84848461195c565b611e6a84848484612191565b611ea9576040517f08c379a0000000000000000000000000000000000000000000000000000000008152600401611ea090613650565b60405180910390fd5b50505050565b606060405180602001604052806000815250905090565b6060611ed1826117bb565b6000611edb611eaf565b90506000815111611efb5760405180602001604052806000815250611f26565b80611f0584612328565b604051602001611f1692919061330e565b6040516020818303038152906040525b915050919050565b611f4133611f3c60ca611f5c565b612489565b3460cd6000828254611f53919061348a565b92505081905550565b600081600001549050919050565b6001816000016000828254019250508190555050565b60008073ffffffffffffffffffffffffffffffffffffffff166068600084815260200190815260200160002060009054906101000a900473ffffffffffffffffffffffffffffffffffffffff1673ffffffffffffffffffffffffffffffffffffffff1614159050919050565b505050565b505050565b6000808211612031576040517fb4fa3fb300000000000000000000000000000000000000000000000000000000815260040160405180910390fd5b600043423360405160200161204691906136b8565b6040516020818303038152906040528051906020012060001c612069919061306d565b45424160405160200161207c919061370e565b6040516020818303038152906040528051906020012060001c61209f919061306d565b44426120ab919061348a565b6120b5919061348a565b6120bf919061348a565b6120c9919061348a565b6120d3919061348a565b6040516020016120e3919061374a565b6040516020818303038152906040528051906020012060001c9050828161210a9190613765565b915050919050565b60018054906101000a900460ff1661215f576040517f08c379a0000000000000000000000000000000000000000000000000000000008152600401612156906135be565b60405180910390fd5b8160669080519060200190612175929190612663565b50806067908051906020019061218c929190612663565b505050565b60006121b28473ffffffffffffffffffffffffffffffffffffffff16611dd5565b1561231b578373ffffffffffffffffffffffffffffffffffffffff1663150b7a026121db611806565b8786866040518563ffffffff1660e01b81526004016121fd94939291906137eb565b602060405180830381600087803b15801561221757600080fd5b505af192505050801561224857506040513d601f19601f82011682018060405250810190612245919061384c565b60015b6122cb573d8060008114612278576040519150601f19603f3d011682016040523d82523d6000602084013e61227d565b606091505b506000815114156122c3576040517f08c379a00000000000000000000000000000000000000000000000000000000081526004016122ba90613650565b60405180910390fd5b805181602001fd5b63150b7a0260e01b7bffffffffffffffffffffffffffffffffffffffffffffffffffffffff1916817bffffffffffffffffffffffffffffffffffffffffffffffffffffffff191614915050612320565b600190505b949350505050565b60606000821415612370576040518060400160405280600181526020017f30000000000000000000000000000000000000000000000000000000000000008152509050612484565b600082905060005b600082146123a257808061238b90613879565b915050600a8261239b919061306d565b9150612378565b60008167ffffffffffffffff8111156123be576123bd612c0a565b5b6040519080825280601f01601f1916602001820160405280156123f05781602001600182028036833780820191505090505b5090505b6000851461247d576001826124099190613456565b9150600a856124189190613765565b6030612424919061348a565b60f81b81838151811061243a576124396138c2565b5b60200101907effffffffffffffffffffffffffffffffffffffffffffffffffffffffffffff1916908160001a905350600a85612476919061306d565b94506123f4565b8093505050505b919050565b600073ffffffffffffffffffffffffffffffffffffffff168273ffffffffffffffffffffffffffffffffffffffff1614156124f9576040517f08c379a00000000000000000000000000000000000000000000000000000000081526004016124f09061393d565b60405180910390fd5b61250281611f80565b15612542576040517f08c379a0000000000000000000000000000000000000000000000000000000008152600401612539906139a9565b60405180910390fd5b61254e60008383611fec565b6001606960008473ffffffffffffffffffffffffffffffffffffffff1673ffffffffffffffffffffffffffffffffffffffff168152602001908152602001600020600082825461259e919061348a565b92505081905550816068600083815260200190815260200160002060006101000a81548173ffffffffffffffffffffffffffffffffffffffff021916908373ffffffffffffffffffffffffffffffffffffffff160217905550808273ffffffffffffffffffffffffffffffffffffffff16600073ffffffffffffffffffffffffffffffffffffffff167fddf252ad1be2c89b69c2b068fc378daa952ba7f163c4a11628f55a4df523b3ef60405160405180910390a461265f60008383611ff1565b5050565b82805461266f90612e27565b90600052602060002090601f01602090048101928261269157600085556126d8565b82601f106126aa57805160ff19168380011785556126d8565b828001600101855582156126d8579182015b828111156126d75782518255916020019190600101906126bc565b5b5090506126e591906126e9565b5090565b5b808211156127025760008160009055506001016126ea565b5090565b6000604051905090565b600080fd5b600080fd5b60007fffffffff0000000000000000000000000000000000000000000000000000000082169050919050565b61274f8161271a565b811461275a57600080fd5b50565b60008135905061276c81612746565b92915050565b60006020828403121561278857612787612710565b5b60006127968482850161275d565b91505092915050565b60008115159050919050565b6127b48161279f565b82525050565b60006020820190506127cf60008301846127ab565b92915050565b600081519050919050565b600082825260208201905092915050565b60005b8381101561280f5780820151818401526020810190506127f4565b8381111561281e576000848401525b50505050565b6000601f19601f8301169050919050565b6000612840826127d5565b61284a81856127e0565b935061285a8185602086016127f1565b61286381612824565b840191505092915050565b600060208201905081810360008301526128888184612835565b905092915050565b6000819050919050565b6128a381612890565b81146128ae57600080fd5b50565b6000813590506128c08161289a565b92915050565b6000602082840312156128dc576128db612710565b5b60006128ea848285016128b1565b91505092915050565b600073ffffffffffffffffffffffffffffffffffffffff82169050919050565b600061291e826128f3565b9050919050565b61292e81612913565b82525050565b60006020820190506129496000830184612925565b92915050565b61295881612913565b811461296357600080fd5b50565b6000813590506129758161294f565b92915050565b6000806040838503121561299257612991612710565b5b60006129a085828601612966565b92505060206129b1858286016128b1565b9150509250929050565b6129c481612890565b82525050565b60006020820190506129df60008301846129bb565b92915050565b6000806000606084860312156129fe576129fd612710565b5b6000612a0c86828701612966565b9350506020612a1d86828701612966565b9250506040612a2e868287016128b1565b9150509250925092565b600060208284031215612a4e57612a4d612710565b5b6000612a5c84828501612966565b91505092915050565b612a6e8161279f565b8114612a7957600080fd5b50565b600081359050612a8b81612a65565b92915050565b60008060408385031215612aa857612aa7612710565b5b6000612ab685828601612966565b9250506020612ac785828601612a7c565b9150509250929050565b600080fd5b600080fd5b600080fd5b60008083601f840112612af657612af5612ad1565b5b8235905067ffffffffffffffff811115612b1357612b12612ad6565b5b602083019150836001820283011115612b2f57612b2e612adb565b5b9250929050565b60008060008060008060008060c0898b031215612b5657612b55612710565b5b600089013567ffffffffffffffff811115612b7457612b73612715565b5b612b808b828c01612ae0565b9850985050602089013567ffffffffffffffff811115612ba357612ba2612715565b5b612baf8b828c01612ae0565b96509650506040612bc28b828c016128b1565b9450506060612bd38b828c016128b1565b9350506080612be48b828c016128b1565b92505060a0612bf58b828c01612966565b9150509295985092959890939650565b600080fd5b7f4e487b7100000000000000000000000000000000000000000000000000000000600052604160045260246000fd5b612c4282612824565b810181811067ffffffffffffffff82111715612c6157612c60612c0a565b5b80604052505050565b6000612c74612706565b9050612c808282612c39565b919050565b600067ffffffffffffffff821115612ca057612c9f612c0a565b5b612ca982612824565b9050602081019050919050565b82818337600083830152505050565b6000612cd8612cd384612c85565b612c6a565b905082815260208101848484011115612cf457612cf3612c05565b5b612cff848285612cb6565b509392505050565b600082601f830112612d1c57612d1b612ad1565b5b8135612d2c848260208601612cc5565b91505092915050565b60008060008060808587031215612d4f57612d4e612710565b5b6000612d5d87828801612966565b9450506020612d6e87828801612966565b9350506040612d7f878288016128b1565b925050606085013567ffffffffffffffff811115612da057612d9f612715565b5b612dac87828801612d07565b91505092959194509250565b60008060408385031215612dcf57612dce612710565b5b6000612ddd85828601612966565b9250506020612dee85828601612966565b9150509250929050565b7f4e487b7100000000000000000000000000000000000000000000000000000000600052602260045260246000fd5b60006002820490506001821680612e3f57607f821691505b60208210811415612e5357612e52612df8565b5b50919050565b7f4552433732313a20617070726f76616c20746f2063757272656e74206f776e6560008201527f7200000000000000000000000000000000000000000000000000000000000000602082015250565b6000612eb56021836127e0565b9150612ec082612e59565b604082019050919050565b60006020820190508181036000830152612ee481612ea8565b9050919050565b7f4552433732313a20617070726f76652063616c6c6572206973206e6f7420746f60008201527f6b656e206f776e6572206e6f7220617070726f76656420666f7220616c6c0000602082015250565b6000612f47603e836127e0565b9150612f5282612eeb565b604082019050919050565b60006020820190508181036000830152612f7681612f3a565b9050919050565b7f4552433732313a2063616c6c6572206973206e6f7420746f6b656e206f776e6560008201527f72206e6f7220617070726f766564000000000000000000000000000000000000602082015250565b6000612fd9602e836127e0565b9150612fe482612f7d565b604082019050919050565b6000602082019050818103600083015261300881612fcc565b9050919050565b7f4e487b7100000000000000000000000000000000000000000000000000000000600052601260045260246000fd5b7f4e487b7100000000000000000000000000000000000000000000000000000000600052601160045260246000fd5b600061307882612890565b915061308383612890565b9250826130935761309261300f565b5b828204905092915050565b60006060820190506130b360008301866129bb565b6130c06020830185612925565b6130cd60408301846129bb565b949350505050565b7f4552433732313a20696e76616c696420746f6b656e2049440000000000000000600082015250565b600061310b6018836127e0565b9150613116826130d5565b602082019050919050565b6000602082019050818103600083015261313a816130fe565b9050919050565b7f4552433732313a2061646472657373207a65726f206973206e6f74206120766160008201527f6c6964206f776e65720000000000000000000000000000000000000000000000602082015250565b600061319d6029836127e0565b91506131a882613141565b604082019050919050565b600060208201905081810360008301526131cc81613190565b9050919050565b7f496e697469616c697a61626c653a20636f6e747261637420697320616c72656160008201527f647920696e697469616c697a6564000000000000000000000000000000000000602082015250565b600061322f602e836127e0565b915061323a826131d3565b604082019050919050565b6000602082019050818103600083015261325e81613222565b9050919050565b6000819050919050565b600060ff82169050919050565b6000819050919050565b60006132a161329c61329784613265565b61327c565b61326f565b9050919050565b6132b181613286565b82525050565b60006020820190506132cc60008301846132a8565b92915050565b600081905092915050565b60006132e8826127d5565b6132f281856132d2565b93506133028185602086016127f1565b80840191505092915050565b600061331a82856132dd565b915061332682846132dd565b91508190509392505050565b7f4552433732313a207472616e736665722066726f6d20696e636f72726563742060008201527f6f776e6572000000000000000000000000000000000000000000000000000000602082015250565b600061338e6025836127e0565b915061339982613332565b604082019050919050565b600060208201905081810360008301526133bd81613381565b9050919050565b7f4552433732313a207472616e7366657220746f20746865207a65726f2061646460008201527f7265737300000000000000000000000000000000000000000000000000000000602082015250565b60006134206024836127e0565b915061342b826133c4565b604082019050919050565b6000602082019050818103600083015261344f81613413565b9050919050565b600061346182612890565b915061346c83612890565b92508282101561347f5761347e61303e565b5b828203905092915050565b600061349582612890565b91506134a083612890565b9250827fffffffffffffffffffffffffffffffffffffffffffffffffffffffffffffffff038211156134d5576134d461303e565b5b828201905092915050565b7f4552433732313a20617070726f766520746f2063616c6c657200000000000000600082015250565b60006135166019836127e0565b9150613521826134e0565b602082019050919050565b6000602082019050818103600083015261354581613509565b9050919050565b7f496e697469616c697a61626c653a20636f6e7472616374206973206e6f74206960008201527f6e697469616c697a696e67000000000000000000000000000000000000000000602082015250565b60006135a8602b836127e0565b91506135b38261354c565b604082019050919050565b600060208201905081810360008301526135d78161359b565b9050919050565b7f4552433732313a207472616e7366657220746f206e6f6e20455243373231526560008201527f63656976657220696d706c656d656e7465720000000000000000000000000000602082015250565b600061363a6032836127e0565b9150613645826135de565b604082019050919050565b600060208201905081810360008301526136698161362d565b9050919050565b60008160601b9050919050565b600061368882613670565b9050919050565b600061369a8261367d565b9050919050565b6136b26136ad82612913565b61368f565b82525050565b60006136c482846136a1565b60148201915081905092915050565b60006136de826128f3565b9050919050565b60006136f08261367d565b9050919050565b613708613703826136d3565b6136e5565b82525050565b600061371a82846136f7565b60148201915081905092915050565b6000819050919050565b61374461373f82612890565b613729565b82525050565b60006137568284613733565b60208201915081905092915050565b600061377082612890565b915061377b83612890565b92508261378b5761378a61300f565b5b828206905092915050565b600081519050919050565b600082825260208201905092915050565b60006137bd82613796565b6137c781856137a1565b93506137d78185602086016127f1565b6137e081612824565b840191505092915050565b60006080820190506138006000830187612925565b61380d6020830186612925565b61381a60408301856129bb565b818103606083015261382c81846137b2565b905095945050505050565b60008151905061384681612746565b92915050565b60006020828403121561386257613861612710565b5b600061387084828501613837565b91505092915050565b600061388482612890565b91507fffffffffffffffffffffffffffffffffffffffffffffffffffffffffffffffff8214156138b7576138b661303e565b5b600182019050919050565b7f4e487b7100000000000000000000000000000000000000000000000000000000600052603260045260246000fd5b7f4552433732313a206d696e7420746f20746865207a65726f2061646472657373600082015250565b60006139276020836127e0565b9150613932826138f1565b602082019050919050565b600060208201905081810360008301526139568161391a565b9050919050565b7f4552433732313a20746f6b656e20616c7265616479206d696e74656400000000600082015250565b6000613993601c836127e0565b915061399e8261395d565b602082019050919050565b600060208201905081810360008301526139c281613986565b905091905056fea26469706673582212203a6bbba92c6f0cf20b5a9fa4a4e3ace662ba0dffe4b1abb27379b15645be385f64736f6c63430008090033",
  "linkReferences": {},
  "deployedLinkReferences": {}
}