{
  "_format": "hh-sol-artifact-1",
  "contractName": "LotteryFactory",
  "sourceName": "contracts/LotteryFactory.sol",
  "abi": [
    {
      "inputs": [
        {
          "internalType": "address",
          "name": "implementation",
          "type": "address"
        }
      ],
      "stateMutability": "nonpayable",
      "type": "constructor"
    },
    {
      "inputs": [],
      "name": "beacon",
      "outputs": [
        {
          "internalType": "contract LotteryBeacon",
          "name": "",
          "type": "address"
        }
      ],
      "stateMutability": "view",
      "type": "function"
    },
    {
      "inputs": [
        {
          "internalType": "uint256",
          "name": "_salt",
          "type": "uint256"
        },
        {
          "internalType": "uint256",
          "name": "_deposit",
          "type": "uint256"
        },
        {
          "internalType": "address",
          "name": "_ticketAddress",
          "type": "address"
        },
        {
          "internalType": "uint256",
          "name": "lotteryId",
          "type": "uint256"
        }
      ],
      "name": "buildLottery",
      "outputs": [],
      "stateMutability": "nonpayable",
      "type": "function"
    },
    {
      "inputs": [
        {
          "internalType": "uint256",
          "name": "_salt",
          "type": "uint256"
        },
        {
          "internalType": "uint256",
          "name": "deposit",
          "type": "uint256"
        },
        {
          "internalType": "address",
          "name": "ticketAddress",
          "type": "address"
        }
      ],
      "name": "getAddress",
      "outputs": [
        {
          "internalType": "address",
          "name": "",
          "type": "address"
        }
      ],
      "stateMutability": "view",
      "type": "function"
    },
    {
      "inputs": [
        {
          "internalType": "uint256",
          "name": "",
          "type": "uint256"
        }
      ],
      "name": "lotteries",
      "outputs": [
        {
          "internalType": "address",
          "name": "",
          "type": "address"
        }
      ],
      "stateMutability": "view",
      "type": "function"
    }
  ],
  "bytecode": "0x60a060405234801561001057600080fd5b5060405162002b1238038062002b1283398181016040528101906100349190610112565b80604051610041906100a1565b61004b919061014e565b604051809103906000f080158015610067573d6000803e3d6000fd5b5073ffffffffffffffffffffffffffffffffffffffff1660808173ffffffffffffffffffffffffffffffffffffffff168152505050610169565b6110788062001a9a83390190565b600080fd5b600073ffffffffffffffffffffffffffffffffffffffff82169050919050565b60006100df826100b4565b9050919050565b6100ef816100d4565b81146100fa57600080fd5b50565b60008151905061010c816100e6565b92915050565b600060208284031215610128576101276100af565b5b6000610136848285016100fd565b91505092915050565b610148816100d4565b82525050565b6000602082019050610163600083018461013f565b92915050565b6080516119076200019360003960008181610198015281816101c2015261032101526119076000f3fe60806040523480156200001157600080fd5b5060043610620000525760003560e01c80631398e07614620000575780633b69d986146200008d57806359659e9014620000c35780635dd24b8a14620000e5575b600080fd5b6200007560048036038101906200006f919062000455565b62000105565b604051620000849190620004cc565b60405180910390f35b620000ab6004803603810190620000a591906200051a565b62000138565b604051620000ba9190620004cc565b60405180910390f35b620000cd62000196565b604051620000dc9190620005e1565b60405180910390f35b620001036004803603810190620000fd9190620005fe565b620001ba565b005b60006020528060005260406000206000915054906101000a900473ffffffffffffffffffffffffffffffffffffffff1681565b600080620001478484620002f2565b9050600060ff60f81b308784805190602001206040516020016200016f949392919062000765565b6040516020818303038152906040528051906020012090508060001c925050509392505050565b7f000000000000000000000000000000000000000000000000000000000000000081565b60008460001b7f000000000000000000000000000000000000000000000000000000000000000063da35a26f60e01b8686604051602401620001fe929190620007cc565b604051602081830303815290604052907bffffffffffffffffffffffffffffffffffffffffffffffffffffffff19166020820180517bffffffffffffffffffffffffffffffffffffffffffffffffffffffff8381831617835250505050604051620002699062000407565b620002769291906200089d565b8190604051809103906000f590508015801562000297573d6000803e3d6000fd5b5090508060008084815260200190815260200160002060006101000a81548173ffffffffffffffffffffffffffffffffffffffff021916908373ffffffffffffffffffffffffffffffffffffffff1602179055505050505050565b6060600060405180602001620003089062000407565b6020820181038252601f19601f820116604052509050807f000000000000000000000000000000000000000000000000000000000000000063da35a26f60e01b86866040516024016200035d929190620007cc565b604051602081830303815290604052907bffffffffffffffffffffffffffffffffffffffffffffffffffffffff19166020820180517bffffffffffffffffffffffffffffffffffffffffffffffffffffffff8381831617835250505050604051602001620003cd9291906200089d565b604051602081830303815290604052604051602001620003ef92919062000913565b60405160208183030381529060405291505092915050565b610f96806200093c83390190565b600080fd5b6000819050919050565b6200042f816200041a565b81146200043b57600080fd5b50565b6000813590506200044f8162000424565b92915050565b6000602082840312156200046e576200046d62000415565b5b60006200047e848285016200043e565b91505092915050565b600073ffffffffffffffffffffffffffffffffffffffff82169050919050565b6000620004b48262000487565b9050919050565b620004c681620004a7565b82525050565b6000602082019050620004e36000830184620004bb565b92915050565b620004f481620004a7565b81146200050057600080fd5b50565b6000813590506200051481620004e9565b92915050565b60008060006060848603121562000536576200053562000415565b5b600062000546868287016200043e565b935050602062000559868287016200043e565b92505060406200056c8682870162000503565b9150509250925092565b6000819050919050565b6000620005a16200059b620005958462000487565b62000576565b62000487565b9050919050565b6000620005b58262000580565b9050919050565b6000620005c982620005a8565b9050919050565b620005db81620005bc565b82525050565b6000602082019050620005f86000830184620005d0565b92915050565b600080600080608085870312156200061b576200061a62000415565b5b60006200062b878288016200043e565b94505060206200063e878288016200043e565b9350506040620006518782880162000503565b925050606062000664878288016200043e565b91505092959194509250565b60007fff0000000000000000000000000000000000000000000000000000000000000082169050919050565b6000819050919050565b620006bb620006b58262000670565b6200069c565b82525050565b60008160601b9050919050565b6000620006db82620006c1565b9050919050565b6000620006ef82620006ce565b9050919050565b6200070b6200070582620004a7565b620006e2565b82525050565b6000819050919050565b620007306200072a826200041a565b62000711565b82525050565b6000819050919050565b6000819050919050565b6200075f620007598262000736565b62000740565b82525050565b6000620007738287620006a6565b600182019150620007858286620006f6565b6014820191506200079782856200071b565b602082019150620007a982846200074a565b60208201915081905095945050505050565b620007c6816200041a565b82525050565b6000604082019050620007e36000830185620007bb565b620007f26020830184620004bb565b9392505050565b600081519050919050565b600082825260208201905092915050565b60005b838110156200083557808201518184015260208101905062000818565b8381111562000845576000848401525b50505050565b6000601f19601f8301169050919050565b60006200086982620007f9565b62000875818562000804565b93506200088781856020860162000815565b62000892816200084b565b840191505092915050565b6000604082019050620008b46000830185620004bb565b8181036020830152620008c881846200085c565b90509392505050565b600081905092915050565b6000620008e982620007f9565b620008f58185620008d1565b93506200090781856020860162000815565b80840191505092915050565b6000620009218285620008dc565b91506200092f8284620008dc565b9150819050939250505056fe608060405260405162000f9638038062000f968339818101604052810190620000299190620006b0565b6200003d828260006200004560201b60201c565b5050620009f7565b62000056836200014c60201b60201c565b8273ffffffffffffffffffffffffffffffffffffffff167f1cf3b03a6cf19fa2baba4df148e9dcabedea7f8a5c07840e207e5c089be95d3e60405160405180910390a2600082511180620000a75750805b156200014757620001458373ffffffffffffffffffffffffffffffffffffffff16635c60da1b6040518163ffffffff1660e01b815260040160206040518083038186803b158015620000f857600080fd5b505afa1580156200010d573d6000803e3d6000fd5b505050506040513d601f19601f8201168201806040525081019062000133919062000716565b83620002fb60201b620000371760201c565b505b505050565b62000162816200033160201b620000641760201c565b620001a4576040517f08c379a00000000000000000000000000000000000000000000000000000000081526004016200019b90620007cf565b60405180910390fd5b6200023b8173ffffffffffffffffffffffffffffffffffffffff16635c60da1b6040518163ffffffff1660e01b815260040160206040518083038186803b158015620001ef57600080fd5b505afa15801562000204573d6000803e3d6000fd5b505050506040513d601f19601f820116820180604052508101906200022a919062000716565b6200033160201b620000641760201c565b6200027d576040517f08c379a0000000000000000000000000000000000000000000000000000000008152600401620002749062000867565b60405180910390fd5b80620002b77fa3f0ad74e5423aebfd80d3ef4346578335a9a72aeaee59ff6cb3582b35133d5060001b6200035460201b620000871760201c565b60000160006101000a81548173ffffffffffffffffffffffffffffffffffffffff021916908373ffffffffffffffffffffffffffffffffffffffff16021790555050565b606062000329838360405180606001604052806027815260200162000f6f602791396200035e60201b60201c565b905092915050565b6000808273ffffffffffffffffffffffffffffffffffffffff163b119050919050565b6000819050919050565b606062000371846200033160201b60201c565b620003b3576040517f08c379a0000000000000000000000000000000000000000000000000000000008152600401620003aa90620008ff565b60405180910390fd5b6000808573ffffffffffffffffffffffffffffffffffffffff1685604051620003dd91906200096e565b600060405180830381855af49150503d80600081146200041a576040519150601f19603f3d011682016040523d82523d6000602084013e6200041f565b606091505b5091509150620004378282866200044260201b60201c565b925050509392505050565b606083156200045457829050620004a7565b600083511115620004685782518084602001fd5b816040517f08c379a00000000000000000000000000000000000000000000000000000000081526004016200049e9190620009d3565b60405180910390fd5b9392505050565b6000604051905090565b600080fd5b600080fd5b600073ffffffffffffffffffffffffffffffffffffffff82169050919050565b6000620004ef82620004c2565b9050919050565b6200050181620004e2565b81146200050d57600080fd5b50565b6000815190506200052181620004f6565b92915050565b600080fd5b600080fd5b6000601f19601f8301169050919050565b7f4e487b7100000000000000000000000000000000000000000000000000000000600052604160045260246000fd5b6200057c8262000531565b810181811067ffffffffffffffff821117156200059e576200059d62000542565b5b80604052505050565b6000620005b3620004ae565b9050620005c1828262000571565b919050565b600067ffffffffffffffff821115620005e457620005e362000542565b5b620005ef8262000531565b9050602081019050919050565b60005b838110156200061c578082015181840152602081019050620005ff565b838111156200062c576000848401525b50505050565b6000620006496200064384620005c6565b620005a7565b9050828152602081018484840111156200066857620006676200052c565b5b62000675848285620005fc565b509392505050565b600082601f83011262000695576200069462000527565b5b8151620006a784826020860162000632565b91505092915050565b60008060408385031215620006ca57620006c9620004b8565b5b6000620006da8582860162000510565b925050602083015167ffffffffffffffff811115620006fe57620006fd620004bd565b5b6200070c858286016200067d565b9150509250929050565b6000602082840312156200072f576200072e620004b8565b5b60006200073f8482850162000510565b91505092915050565b600082825260208201905092915050565b7f455243313936373a206e657720626561636f6e206973206e6f74206120636f6e60008201527f7472616374000000000000000000000000000000000000000000000000000000602082015250565b6000620007b760258362000748565b9150620007c48262000759565b604082019050919050565b60006020820190508181036000830152620007ea81620007a8565b9050919050565b7f455243313936373a20626561636f6e20696d706c656d656e746174696f6e206960008201527f73206e6f74206120636f6e747261637400000000000000000000000000000000602082015250565b60006200084f60308362000748565b91506200085c82620007f1565b604082019050919050565b60006020820190508181036000830152620008828162000840565b9050919050565b7f416464726573733a2064656c65676174652063616c6c20746f206e6f6e2d636f60008201527f6e74726163740000000000000000000000000000000000000000000000000000602082015250565b6000620008e760268362000748565b9150620008f48262000889565b604082019050919050565b600060208201905081810360008301526200091a81620008d8565b9050919050565b600081519050919050565b600081905092915050565b6000620009448262000921565b6200095081856200092c565b935062000962818560208601620005fc565b80840191505092915050565b60006200097c828462000937565b915081905092915050565b600081519050919050565b60006200099f8262000987565b620009ab818562000748565b9350620009bd818560208601620005fc565b620009c88162000531565b840191505092915050565b60006020820190508181036000830152620009ef818462000992565b905092915050565b6105688062000a076000396000f3fe6080604052366100135761001161001d565b005b61001b61001d565b005b610025610091565b610035610030610093565b61011f565b565b606061005c838360405180606001604052806027815260200161050c60279139610145565b905092915050565b6000808273ffffffffffffffffffffffffffffffffffffffff163b119050919050565b6000819050919050565b565b600061009d610212565b73ffffffffffffffffffffffffffffffffffffffff16635c60da1b6040518163ffffffff1660e01b815260040160206040518083038186803b1580156100e257600080fd5b505afa1580156100f6573d6000803e3d6000fd5b505050506040513d601f19601f8201168201806040525081019061011a9190610333565b905090565b3660008037600080366000845af43d6000803e8060008114610140573d6000f35b3d6000fd5b606061015084610064565b61018f576040517f08c379a0000000000000000000000000000000000000000000000000000000008152600401610186906103e3565b60405180910390fd5b6000808573ffffffffffffffffffffffffffffffffffffffff16856040516101b7919061047d565b600060405180830381855af49150503d80600081146101f2576040519150601f19603f3d011682016040523d82523d6000602084013e6101f7565b606091505b5091509150610207828286610269565b925050509392505050565b60006102407fa3f0ad74e5423aebfd80d3ef4346578335a9a72aeaee59ff6cb3582b35133d5060001b610087565b60000160009054906101000a900473ffffffffffffffffffffffffffffffffffffffff16905090565b60608315610279578290506102c9565b60008351111561028c5782518084602001fd5b816040517f08c379a00000000000000000000000000000000000000000000000000000000081526004016102c091906104e9565b60405180910390fd5b9392505050565b600080fd5b600073ffffffffffffffffffffffffffffffffffffffff82169050919050565b6000610300826102d5565b9050919050565b610310816102f5565b811461031b57600080fd5b50565b60008151905061032d81610307565b92915050565b600060208284031215610349576103486102d0565b5b60006103578482850161031e565b91505092915050565b600082825260208201905092915050565b7f416464726573733a2064656c65676174652063616c6c20746f206e6f6e2d636f60008201527f6e74726163740000000000000000000000000000000000000000000000000000602082015250565b60006103cd602683610360565b91506103d882610371565b604082019050919050565b600060208201905081810360008301526103fc816103c0565b9050919050565b600081519050919050565b600081905092915050565b60005b8381101561043757808201518184015260208101905061041c565b83811115610446576000848401525b50505050565b600061045782610403565b610461818561040e565b9350610471818560208601610419565b80840191505092915050565b6000610489828461044c565b915081905092915050565b600081519050919050565b6000601f19601f8301169050919050565b60006104bb82610494565b6104c58185610360565b93506104d5818560208601610419565b6104de8161049f565b840191505092915050565b6000602082019050818103600083015261050381846104b0565b90509291505056fe416464726573733a206c6f772d6c6576656c2064656c65676174652063616c6c206661696c6564a2646970667358221220f9149d37f18f7e5522592f6adc1fe9cc960ed25b57e2460f5a8d7e80c7c5aa3664736f6c63430008090033416464726573733a206c6f772d6c6576656c2064656c65676174652063616c6c206661696c6564a26469706673582212202b5d0dc689c319c64546b4752a016cec615f8407aa9762c909dbff3bdc7a0d4164736f6c6343000809003360c060405234801561001057600080fd5b5060405161107838038061107883398181016040528101906100329190610183565b8060405161003f90610113565b61004991906101bf565b604051809103906000f080158015610065573d6000803e3d6000fd5b5073ffffffffffffffffffffffffffffffffffffffff1660808173ffffffffffffffffffffffffffffffffffffffff1681525050806000806101000a81548173ffffffffffffffffffffffffffffffffffffffff021916908373ffffffffffffffffffffffffffffffffffffffff1602179055503273ffffffffffffffffffffffffffffffffffffffff1660a08173ffffffffffffffffffffffffffffffffffffffff1681525050506101da565b6109d0806106a883390190565b600080fd5b600073ffffffffffffffffffffffffffffffffffffffff82169050919050565b600061015082610125565b9050919050565b61016081610145565b811461016b57600080fd5b50565b60008151905061017d81610157565b92915050565b60006020828403121561019957610198610120565b5b60006101a78482850161016e565b91505092915050565b6101b981610145565b82525050565b60006020820190506101d460008301846101b0565b92915050565b60805160a05161049c61020c6000396000818160c9015261026d0152600081816101570152610225015261049c6000f3fe608060405234801561001057600080fd5b506004361061004c5760003560e01c80631c1b87721461005157806359659e901461006d5780635c60da1b1461008b5780638da5cb5b146100a9575b600080fd5b61006b600480360381019061006691906102f2565b6100c7565b005b610075610223565b604051610082919061037e565b60405180910390f35b610093610247565b6040516100a091906103a8565b60405180910390f35b6100b161026b565b6040516100be91906103a8565b60405180910390f35b7f000000000000000000000000000000000000000000000000000000000000000073ffffffffffffffffffffffffffffffffffffffff163373ffffffffffffffffffffffffffffffffffffffff1614610155576040517f08c379a000000000000000000000000000000000000000000000000000000000815260040161014c90610446565b60405180910390fd5b7f000000000000000000000000000000000000000000000000000000000000000073ffffffffffffffffffffffffffffffffffffffff16633659cfe6826040518263ffffffff1660e01b81526004016101ae91906103a8565b600060405180830381600087803b1580156101c857600080fd5b505af11580156101dc573d6000803e3d6000fd5b50505050806000806101000a81548173ffffffffffffffffffffffffffffffffffffffff021916908373ffffffffffffffffffffffffffffffffffffffff16021790555050565b7f000000000000000000000000000000000000000000000000000000000000000081565b60008054906101000a900473ffffffffffffffffffffffffffffffffffffffff1681565b7f000000000000000000000000000000000000000000000000000000000000000081565b600080fd5b600073ffffffffffffffffffffffffffffffffffffffff82169050919050565b60006102bf82610294565b9050919050565b6102cf816102b4565b81146102da57600080fd5b50565b6000813590506102ec816102c6565b92915050565b6000602082840312156103085761030761028f565b5b6000610316848285016102dd565b91505092915050565b6000819050919050565b600061034461033f61033a84610294565b61031f565b610294565b9050919050565b600061035682610329565b9050919050565b60006103688261034b565b9050919050565b6103788161035d565b82525050565b6000602082019050610393600083018461036f565b92915050565b6103a2816102b4565b82525050565b60006020820190506103bd6000830184610399565b92915050565b600082825260208201905092915050565b7f4f6e6c79206f776e65722063616e2075706461746520696d706c656d656e746160008201527f74696f6e00000000000000000000000000000000000000000000000000000000602082015250565b60006104306024836103c3565b915061043b826103d4565b604082019050919050565b6000602082019050818103600083015261045f81610423565b905091905056fea2646970667358221220ff63ceacd26339eeb2c9997db7ea5d1805e6abe23aa597e1e6271c4a25c8319b64736f6c63430008090033608060405234801561001057600080fd5b506040516109d03803806109d08339818101604052810190610032919061024b565b61004e61004361006360201b60201c565b61006b60201b60201c565b61005d8161012f60201b60201c565b5061031b565b600033905090565b60008060009054906101000a900473ffffffffffffffffffffffffffffffffffffffff169050816000806101000a81548173ffffffffffffffffffffffffffffffffffffffff021916908373ffffffffffffffffffffffffffffffffffffffff1602179055508173ffffffffffffffffffffffffffffffffffffffff168173ffffffffffffffffffffffffffffffffffffffff167f8be0079c531659141344cd1fd0a4f28419497f9722a3daafe3b4186f6b6457e060405160405180910390a35050565b610142816101c560201b61021c1760201c565b610181576040517f08c379a0000000000000000000000000000000000000000000000000000000008152600401610178906102fb565b60405180910390fd5b80600160006101000a81548173ffffffffffffffffffffffffffffffffffffffff021916908373ffffffffffffffffffffffffffffffffffffffff16021790555050565b6000808273ffffffffffffffffffffffffffffffffffffffff163b119050919050565b600080fd5b600073ffffffffffffffffffffffffffffffffffffffff82169050919050565b6000610218826101ed565b9050919050565b6102288161020d565b811461023357600080fd5b50565b6000815190506102458161021f565b92915050565b600060208284031215610261576102606101e8565b5b600061026f84828501610236565b91505092915050565b600082825260208201905092915050565b7f5570677261646561626c65426561636f6e3a20696d706c656d656e746174696f60008201527f6e206973206e6f74206120636f6e747261637400000000000000000000000000602082015250565b60006102e5603383610278565b91506102f082610289565b604082019050919050565b60006020820190508181036000830152610314816102d8565b9050919050565b6106a68061032a6000396000f3fe608060405234801561001057600080fd5b50600436106100575760003560e01c80633659cfe61461005c5780635c60da1b14610078578063715018a6146100965780638da5cb5b146100a0578063f2fde38b146100be575b600080fd5b61007660048036038101906100719190610478565b6100da565b005b610080610131565b60405161008d91906104b4565b60405180910390f35b61009e61015b565b005b6100a861016f565b6040516100b591906104b4565b60405180910390f35b6100d860048036038101906100d39190610478565b610198565b005b6100e261023f565b6100eb816102bd565b8073ffffffffffffffffffffffffffffffffffffffff167fbc7cd75a20ee27fd9adebab32041f755214dbc6bffa90cc0225b39da2e5c2d3b60405160405180910390a250565b6000600160009054906101000a900473ffffffffffffffffffffffffffffffffffffffff16905090565b61016361023f565b61016d6000610349565b565b60008060009054906101000a900473ffffffffffffffffffffffffffffffffffffffff16905090565b6101a061023f565b600073ffffffffffffffffffffffffffffffffffffffff168173ffffffffffffffffffffffffffffffffffffffff161415610210576040517f08c379a000000000000000000000000000000000000000000000000000000000815260040161020790610552565b60405180910390fd5b61021981610349565b50565b6000808273ffffffffffffffffffffffffffffffffffffffff163b119050919050565b61024761040d565b73ffffffffffffffffffffffffffffffffffffffff1661026561016f565b73ffffffffffffffffffffffffffffffffffffffff16146102bb576040517f08c379a00000000000000000000000000000000000000000000000000000000081526004016102b2906105be565b60405180910390fd5b565b6102c68161021c565b610305576040517f08c379a00000000000000000000000000000000000000000000000000000000081526004016102fc90610650565b60405180910390fd5b80600160006101000a81548173ffffffffffffffffffffffffffffffffffffffff021916908373ffffffffffffffffffffffffffffffffffffffff16021790555050565b60008060009054906101000a900473ffffffffffffffffffffffffffffffffffffffff169050816000806101000a81548173ffffffffffffffffffffffffffffffffffffffff021916908373ffffffffffffffffffffffffffffffffffffffff1602179055508173ffffffffffffffffffffffffffffffffffffffff168173ffffffffffffffffffffffffffffffffffffffff167f8be0079c531659141344cd1fd0a4f28419497f9722a3daafe3b4186f6b6457e060405160405180910390a35050565b600033905090565b600080fd5b600073ffffffffffffffffffffffffffffffffffffffff82169050919050565b60006104458261041a565b9050919050565b6104558161043a565b811461046057600080fd5b50565b6000813590506104728161044c565b92915050565b60006020828403121561048e5761048d610415565b5b600061049c84828501610463565b91505092915050565b6104ae8161043a565b82525050565b60006020820190506104c960008301846104a5565b92915050565b600082825260208201905092915050565b7f4f776e61626c653a206e6577206f776e657220697320746865207a65726f206160008201527f6464726573730000000000000000000000000000000000000000000000000000602082015250565b600061053c6026836104cf565b9150610547826104e0565b604082019050919050565b6000602082019050818103600083015261056b8161052f565b9050919050565b7f4f776e61626c653a2063616c6c6572206973206e6f7420746865206f776e6572600082015250565b60006105a86020836104cf565b91506105b382610572565b602082019050919050565b600060208201905081810360008301526105d78161059b565b9050919050565b7f5570677261646561626c65426561636f6e3a20696d706c656d656e746174696f60008201527f6e206973206e6f74206120636f6e747261637400000000000000000000000000602082015250565b600061063a6033836104cf565b9150610645826105de565b604082019050919050565b600060208201905081810360008301526106698161062d565b905091905056fea2646970667358221220a2af642d7ab3abdfc40ef5fa14a1142f14b7c0725e10b85aeead25673f6f576064736f6c63430008090033",
  "linkReferences": {},
  "deployedLinkReferences": {}
}