{
  "_format": "hh-sol-artifact-1",
  "contractName": "TicketFactory",
  "sourceName": "contracts/TicketFactory.sol",
  "abi": [
    {
      "inputs": [
        {
          "internalType": "address",
          "name": "_impl",
          "type": "address"
        }
      ],
      "stateMutability": "nonpayable",
      "type": "constructor"
    },
    {
      "inputs": [
        {
          "internalType": "string",
          "name": "_name",
          "type": "string"
        },
        {
          "internalType": "string",
          "name": "_symbol",
          "type": "string"
        },
        {
          "internalType": "uint256",
          "name": "_startBlockNumber",
          "type": "uint256"
        },
        {
          "internalType": "uint256",
          "name": "_endBlockNumber",
          "type": "uint256"
        },
        {
          "internalType": "uint32",
          "name": "_ticketPrice",
          "type": "uint32"
        },
        {
          "internalType": "address",
          "name": "_owner",
          "type": "address"
        }
      ],
      "name": "addNewProxy",
      "outputs": [],
      "stateMutability": "nonpayable",
      "type": "function"
    },
    {
      "inputs": [],
      "name": "impl",
      "outputs": [
        {
          "internalType": "address",
          "name": "",
          "type": "address"
        }
      ],
      "stateMutability": "view",
      "type": "function"
    },
    {
      "inputs": [
        {
          "internalType": "uint256",
          "name": "",
          "type": "uint256"
        }
      ],
      "name": "ticketProxyContracts",
      "outputs": [
        {
          "internalType": "address",
          "name": "",
          "type": "address"
        }
      ],
      "stateMutability": "view",
      "type": "function"
    }
  ],
  "bytecode": "0x608060405234801561001057600080fd5b50604051610a20380380610a20833981810160405281019061003291906100dc565b80600160006101000a81548173ffffffffffffffffffffffffffffffffffffffff021916908373ffffffffffffffffffffffffffffffffffffffff16021790555050610109565b600080fd5b600073ffffffffffffffffffffffffffffffffffffffff82169050919050565b60006100a98261007e565b9050919050565b6100b98161009e565b81146100c457600080fd5b50565b6000815190506100d6816100b0565b92915050565b6000602082840312156100f2576100f1610079565b5b6000610100848285016100c7565b91505092915050565b610908806101186000396000f3fe608060405234801561001057600080fd5b50600436106100415760003560e01c80632bbd879b146100465780638abf607714610062578063b73f78b814610080575b600080fd5b610060600480360381019061005b91906103a2565b6100b0565b005b61006a6101f1565b6040516100779190610480565b60405180910390f35b61009a6004803603810190610095919061049b565b610217565b6040516100a79190610480565b60405180910390f35b6000600160009054906101000a900473ffffffffffffffffffffffffffffffffffffffff166040516100e190610256565b6100eb9190610480565b604051809103906000f080158015610107573d6000803e3d6000fd5b5090508073ffffffffffffffffffffffffffffffffffffffff1663a65075278a8a8a8a8a8a8a8a6040518963ffffffff1660e01b8152600401610151989796959493929190610570565b600060405180830381600087803b15801561016b57600080fd5b505af115801561017f573d6000803e3d6000fd5b505050506000819080600181540180825580915050600190039060005260206000200160009091909190916101000a81548173ffffffffffffffffffffffffffffffffffffffff021916908373ffffffffffffffffffffffffffffffffffffffff160217905550505050505050505050565b600160009054906101000a900473ffffffffffffffffffffffffffffffffffffffff1681565b6000818154811061022757600080fd5b906000526020600020016000915054906101000a900473ffffffffffffffffffffffffffffffffffffffff1681565b6102ef806105e483390190565b600080fd5b600080fd5b600080fd5b600080fd5b600080fd5b60008083601f8401126102925761029161026d565b5b8235905067ffffffffffffffff8111156102af576102ae610272565b5b6020830191508360018202830111156102cb576102ca610277565b5b9250929050565b6000819050919050565b6102e5816102d2565b81146102f057600080fd5b50565b600081359050610302816102dc565b92915050565b600063ffffffff82169050919050565b61032181610308565b811461032c57600080fd5b50565b60008135905061033e81610318565b92915050565b600073ffffffffffffffffffffffffffffffffffffffff82169050919050565b600061036f82610344565b9050919050565b61037f81610364565b811461038a57600080fd5b50565b60008135905061039c81610376565b92915050565b60008060008060008060008060c0898b0312156103c2576103c1610263565b5b600089013567ffffffffffffffff8111156103e0576103df610268565b5b6103ec8b828c0161027c565b9850985050602089013567ffffffffffffffff81111561040f5761040e610268565b5b61041b8b828c0161027c565b9650965050604061042e8b828c016102f3565b945050606061043f8b828c016102f3565b93505060806104508b828c0161032f565b92505060a06104618b828c0161038d565b9150509295985092959890939650565b61047a81610364565b82525050565b60006020820190506104956000830184610471565b92915050565b6000602082840312156104b1576104b0610263565b5b60006104bf848285016102f3565b91505092915050565b600082825260208201905092915050565b82818337600083830152505050565b6000601f19601f8301169050919050565b600061050583856104c8565b93506105128385846104d9565b61051b836104e8565b840190509392505050565b61052f816102d2565b82525050565b6000819050919050565b600061055a61055561055084610308565b610535565b6102d2565b9050919050565b61056a8161053f565b82525050565b600060c082019050818103600083015261058b818a8c6104f9565b905081810360208301526105a081888a6104f9565b90506105af6040830187610526565b6105bc6060830186610526565b6105c96080830185610561565b6105d660a0830184610471565b999850505050505050505056fe608060405234801561001057600080fd5b506040516102ef3803806102ef833981810160405281019061003291906100db565b806000806101000a81548173ffffffffffffffffffffffffffffffffffffffff021916908373ffffffffffffffffffffffffffffffffffffffff16021790555050610108565b600080fd5b600073ffffffffffffffffffffffffffffffffffffffff82169050919050565b60006100a88261007d565b9050919050565b6100b88161009d565b81146100c357600080fd5b50565b6000815190506100d5816100af565b92915050565b6000602082840312156100f1576100f0610078565b5b60006100ff848285016100c6565b91505092915050565b6101d8806101176000396000f3fe6080604052600436106100225760003560e01c8063b4bf1cdf1461003b57610031565b366100315761002f610064565b005b610039610064565b005b34801561004757600080fd5b50610062600480360381019061005d9190610175565b61007e565b005b61006c6100c1565b61007c6100776100c3565b6100ec565b565b806000806101000a81548173ffffffffffffffffffffffffffffffffffffffff021916908373ffffffffffffffffffffffffffffffffffffffff16021790555050565b565b60008060009054906101000a900473ffffffffffffffffffffffffffffffffffffffff16905090565b3660008037600080366000845af43d6000803e806000811461010d573d6000f35b3d6000fd5b600080fd5b600073ffffffffffffffffffffffffffffffffffffffff82169050919050565b600061014282610117565b9050919050565b61015281610137565b811461015d57600080fd5b50565b60008135905061016f81610149565b92915050565b60006020828403121561018b5761018a610112565b5b600061019984828501610160565b9150509291505056fea2646970667358221220c0d08854c02d080c69dccfc48d43ff54e5f6293b7fddc6313004edf2e2ece6c464736f6c63430008090033a264697066735822122074eab8077c6cff180513be042586f7c4e797720df6a6d09333865f20534ca7cf64736f6c63430008090033",
  "linkReferences": {},
  "deployedLinkReferences": {}
}