{
  "_format": "hh-sol-artifact-1",
  "contractName": "LotteryV1",
  "sourceName": "contracts/LotteryV1.sol",
  "abi": [
    {
      "anonymous": false,
      "inputs": [
        {
          "indexed": true,
          "internalType": "address",
          "name": "sender",
          "type": "address"
        },
        {
          "indexed": false,
          "internalType": "uint256",
          "name": "amount",
          "type": "uint256"
        }
      ],
      "name": "Deposit",
      "type": "event"
    },
    {
      "anonymous": false,
      "inputs": [
        {
          "indexed": false,
          "internalType": "uint256",
          "name": "winningTicket",
          "type": "uint256"
        },
        {
          "indexed": false,
          "internalType": "address",
          "name": "winner",
          "type": "address"
        },
        {
          "indexed": false,
          "internalType": "uint256",
          "name": "amount",
          "type": "uint256"
        }
      ],
      "name": "End",
      "type": "event"
    },
    {
      "anonymous": false,
      "inputs": [
        {
          "indexed": false,
          "internalType": "uint256",
          "name": "startAt",
          "type": "uint256"
        },
        {
          "indexed": false,
          "internalType": "uint256",
          "name": "endAt",
          "type": "uint256"
        }
      ],
      "name": "Start",
      "type": "event"
    },
    {
      "anonymous": false,
      "inputs": [
        {
          "indexed": false,
          "internalType": "uint256",
          "name": "winningTicket",
          "type": "uint256"
        },
        {
          "indexed": false,
          "internalType": "address",
          "name": "surpriseWinner",
          "type": "address"
        },
        {
          "indexed": false,
          "internalType": "uint256",
          "name": "amount",
          "type": "uint256"
        }
      ],
      "name": "SurpriseWin",
      "type": "event"
    },
    {
      "anonymous": false,
      "inputs": [
        {
          "indexed": false,
          "internalType": "uint256",
          "name": "random",
          "type": "uint256"
        },
        {
          "indexed": false,
          "internalType": "uint256",
          "name": "winningTicketId",
          "type": "uint256"
        }
      ],
      "name": "log",
      "type": "event"
    },
    {
      "inputs": [
        {
          "internalType": "uint256",
          "name": "_deposit",
          "type": "uint256"
        }
      ],
      "name": "changeDepositReq",
      "outputs": [],
      "stateMutability": "nonpayable",
      "type": "function"
    },
    {
      "inputs": [],
      "name": "deposit",
      "outputs": [
        {
          "internalType": "uint256",
          "name": "",
          "type": "uint256"
        }
      ],
      "stateMutability": "view",
      "type": "function"
    },
    {
      "inputs": [
        {
          "internalType": "address",
          "name": "_ticket",
          "type": "address"
        },
        {
          "internalType": "uint256",
          "name": "ticketId",
          "type": "uint256"
        }
      ],
      "name": "depositFunds",
      "outputs": [],
      "stateMutability": "payable",
      "type": "function"
    },
    {
      "inputs": [],
      "name": "deposits",
      "outputs": [
        {
          "internalType": "uint256",
          "name": "",
          "type": "uint256"
        }
      ],
      "stateMutability": "view",
      "type": "function"
    },
    {
      "inputs": [],
      "name": "endAt",
      "outputs": [
        {
          "internalType": "uint32",
          "name": "",
          "type": "uint32"
        }
      ],
      "stateMutability": "view",
      "type": "function"
    },
    {
      "inputs": [],
      "name": "forceEnd",
      "outputs": [],
      "stateMutability": "nonpayable",
      "type": "function"
    },
    {
      "inputs": [
        {
          "internalType": "uint256",
          "name": "_deposit",
          "type": "uint256"
        },
        {
          "internalType": "address",
          "name": "_ticketAddress",
          "type": "address"
        }
      ],
      "name": "initialize",
      "outputs": [],
      "stateMutability": "nonpayable",
      "type": "function"
    },
    {
      "inputs": [],
      "name": "owner",
      "outputs": [
        {
          "internalType": "address",
          "name": "",
          "type": "address"
        }
      ],
      "stateMutability": "view",
      "type": "function"
    },
    {
      "inputs": [],
      "name": "selectSurpriseWinner",
      "outputs": [],
      "stateMutability": "nonpayable",
      "type": "function"
    },
    {
      "inputs": [],
      "name": "startAt",
      "outputs": [
        {
          "internalType": "uint32",
          "name": "",
          "type": "uint32"
        }
      ],
      "stateMutability": "view",
      "type": "function"
    },
    {
      "inputs": [],
      "name": "ticketAddress",
      "outputs": [
        {
          "internalType": "address",
          "name": "",
          "type": "address"
        }
      ],
      "stateMutability": "view",
      "type": "function"
    },
    {
      "inputs": [
        {
          "internalType": "uint256",
          "name": "",
          "type": "uint256"
        }
      ],
      "name": "ticketIdToParticipant",
      "outputs": [
        {
          "internalType": "address",
          "name": "addr",
          "type": "address"
        },
        {
          "internalType": "bool",
          "name": "exists",
          "type": "bool"
        }
      ],
      "stateMutability": "view",
      "type": "function"
    },
    {
      "inputs": [
        {
          "internalType": "uint256",
          "name": "",
          "type": "uint256"
        }
      ],
      "name": "ticketIds",
      "outputs": [
        {
          "internalType": "uint256",
          "name": "",
          "type": "uint256"
        }
      ],
      "stateMutability": "view",
      "type": "function"
    },
    {
      "inputs": [],
      "name": "triggerEnd",
      "outputs": [],
      "stateMutability": "nonpayable",
      "type": "function"
    },
    {
      "inputs": [
        {
          "internalType": "uint8",
          "name": "_minutes",
          "type": "uint8"
        }
      ],
      "name": "triggerStart",
      "outputs": [],
      "stateMutability": "nonpayable",
      "type": "function"
    }
  ],
  "bytecode": "0x608060405234801561001057600080fd5b50612ab1806100206000396000f3fe6080604052600436106100e85760003560e01c80637cc3ae8c1161008a578063c744656511610059578063c74465651461028a578063d0e30db0146102b5578063da35a26f146102e0578063f147de6114610309576100e8565b80637cc3ae8c146101ef5780638da5cb5b1461021a578063912290d614610245578063921b004b1461026e576100e8565b80634ee0ab0d116100c65780634ee0ab0d1461014657806357a8e3fe1461015d57806371034d84146101885780637bea8699146101c6576100e8565b806316224d71146100ed578063185726b514610104578063323a5e0b1461011b575b600080fd5b3480156100f957600080fd5b50610102610346565b005b34801561011057600080fd5b50610119610825565b005b34801561012757600080fd5b50610130610b9c565b60405161013d9190611ba7565b60405180910390f35b34801561015257600080fd5b5061015b610ba2565b005b34801561016957600080fd5b50610172610e15565b60405161017f9190611c03565b60405180910390f35b34801561019457600080fd5b506101af60048036038101906101aa9190611c4f565b610e3b565b6040516101bd929190611c97565b60405180910390f35b3480156101d257600080fd5b506101ed60048036038101906101e89190611c4f565b610e8c565b005b3480156101fb57600080fd5b5061020461100e565b6040516102119190611cdf565b60405180910390f35b34801561022657600080fd5b5061022f611024565b60405161023c9190611c03565b60405180910390f35b34801561025157600080fd5b5061026c60048036038101906102679190611d33565b611048565b005b61028860048036038101906102839190611d8c565b611267565b005b34801561029657600080fd5b5061029f6116ff565b6040516102ac9190611cdf565b60405180910390f35b3480156102c157600080fd5b506102ca611715565b6040516102d79190611ba7565b60405180910390f35b3480156102ec57600080fd5b5061030760048036038101906103029190611dcc565b61171b565b005b34801561031557600080fd5b50610330600480360381019061032b9190611c4f565b61189c565b60405161033d9190611ba7565b60405180910390f35b600760019054906101000a900460ff1615610396576040517f08c379a000000000000000000000000000000000000000000000000000000000815260040161038d90611e69565b60405180910390fd5b6001600760016101000a81548160ff02191690831515021790555060008054906101000a900473ffffffffffffffffffffffffffffffffffffffff1673ffffffffffffffffffffffffffffffffffffffff163373ffffffffffffffffffffffffffffffffffffffff161461043f576040517f08c379a000000000000000000000000000000000000000000000000000000000815260040161043690611ed5565b60405180910390fd5b600460009054906101000a900460ff1661048e576040517f08c379a000000000000000000000000000000000000000000000000000000000815260040161048590611f41565b60405180910390fd5b600460019054906101000a900460ff16156104de576040517f08c379a00000000000000000000000000000000000000000000000000000000081526004016104d590611fad565b60405180910390fd5b600460069054906101000a900463ffffffff1663ffffffff164211610538576040517f08c379a000000000000000000000000000000000000000000000000000000000815260040161052f90612019565b60405180910390fd5b60006105426118c0565b905060006003828154811061055a57610559612039565b5b906000526020600020015490507ff666715aa6b8e8ce32bd39173f51eea0643fdd246a826c4756c2f168022b6eb58282604051610598929190612068565b60405180910390a16000600260008381526020019081526020016000206040518060400160405290816000820160009054906101000a900473ffffffffffffffffffffffffffffffffffffffff1673ffffffffffffffffffffffffffffffffffffffff1673ffffffffffffffffffffffffffffffffffffffff1681526020016000820160149054906101000a900460ff1615151515815250509050806000015173ffffffffffffffffffffffffffffffffffffffff166108fc6006549081150290604051600060405180830381858888f1935050505015801561067f573d6000803e3d6000fd5b506001600460016101000a81548160ff0219169083151502179055506000600460006101000a81548160ff0219169083151502179055507fad71bc980e1f9155e488acf543cc5276beae185d612505ea3eaff929e4fe37f08282600001516006546040516106ef93929190612091565b60405180910390a15050506000600460026101000a81548163ffffffff021916908363ffffffff1602179055506000600460066101000a81548163ffffffff021916908363ffffffff16021790555060005b6003805490508110156107d65760006003828154811061076457610763612039565b5b9060005260206000200154905060026000828152602001908152602001600020600080820160006101000a81549073ffffffffffffffffffffffffffffffffffffffff02191690556000820160146101000a81549060ff021916905550505080806107ce906120f7565b915050610741565b50600360006107e59190611b50565b60006006819055506000600760006101000a81548160ff0219169083151502179055506000600760016101000a81548160ff021916908315150217905550565b600760019054906101000a900460ff1615610875576040517f08c379a000000000000000000000000000000000000000000000000000000000815260040161086c90611e69565b60405180910390fd5b6001600760016101000a81548160ff021916908315150217905550600460009054906101000a900460ff166108df576040517f08c379a00000000000000000000000000000000000000000000000000000000081526004016108d690611f41565b60405180910390fd5b600460019054906101000a900460ff161561092f576040517f08c379a000000000000000000000000000000000000000000000000000000000815260040161092690611fad565b60405180910390fd5b600760009054906101000a900460ff161561097f576040517f08c379a0000000000000000000000000000000000000000000000000000000008152600401610976906121b2565b60405180910390fd5b60008054906101000a900473ffffffffffffffffffffffffffffffffffffffff1673ffffffffffffffffffffffffffffffffffffffff163373ffffffffffffffffffffffffffffffffffffffff1614610a0d576040517f08c379a0000000000000000000000000000000000000000000000000000000008152600401610a0490611ed5565b60405180910390fd5b6000610a176118c0565b9050600060038281548110610a2f57610a2e612039565b5b906000526020600020015490507ff666715aa6b8e8ce32bd39173f51eea0643fdd246a826c4756c2f168022b6eb58282604051610a6d929190612068565b60405180910390a16000600260008381526020019081526020016000206040518060400160405290816000820160009054906101000a900473ffffffffffffffffffffffffffffffffffffffff1673ffffffffffffffffffffffffffffffffffffffff1673ffffffffffffffffffffffffffffffffffffffff1681526020016000820160149054906101000a900460ff1615151515815250509050806000015173ffffffffffffffffffffffffffffffffffffffff166108fc6002600654610b359190612201565b9081150290604051600060405180830381858888f19350505050158015610b60573d6000803e3d6000fd5b506001600760006101000a81548160ff0219169083151502179055505050506000600760016101000a81548160ff021916908315150217905550565b60065481565b60008054906101000a900473ffffffffffffffffffffffffffffffffffffffff1673ffffffffffffffffffffffffffffffffffffffff163373ffffffffffffffffffffffffffffffffffffffff1614610c30576040517f08c379a0000000000000000000000000000000000000000000000000000000008152600401610c2790611ed5565b60405180910390fd5b600460009054906101000a900460ff16610c7f576040517f08c379a0000000000000000000000000000000000000000000000000000000008152600401610c7690611f41565b60405180910390fd5b600460019054906101000a900460ff1615610ccf576040517f08c379a0000000000000000000000000000000000000000000000000000000008152600401610cc690611fad565b60405180910390fd5b6001600460016101000a81548160ff0219169083151502179055506000600460006101000a81548160ff0219169083151502179055506000600460026101000a81548163ffffffff021916908363ffffffff1602179055506000600460066101000a81548163ffffffff021916908363ffffffff16021790555060005b600380549050811015610de157600060038281548110610d6f57610d6e612039565b5b9060005260206000200154905060026000828152602001908152602001600020600080820160006101000a81549073ffffffffffffffffffffffffffffffffffffffff02191690556000820160146101000a81549060ff02191690555050508080610dd9906120f7565b915050610d4c565b5060036000610df09190611b50565b60006006819055506000600760006101000a81548160ff021916908315150217905550565b600160009054906101000a900473ffffffffffffffffffffffffffffffffffffffff1681565b60026020528060005260406000206000915090508060000160009054906101000a900473ffffffffffffffffffffffffffffffffffffffff16908060000160149054906101000a900460ff16905082565b60008054906101000a900473ffffffffffffffffffffffffffffffffffffffff1673ffffffffffffffffffffffffffffffffffffffff163373ffffffffffffffffffffffffffffffffffffffff1614610f1a576040517f08c379a0000000000000000000000000000000000000000000000000000000008152600401610f1190611ed5565b60405180910390fd5b670de0b6b3a7640000811015610f65576040517f08c379a0000000000000000000000000000000000000000000000000000000008152600401610f5c9061227e565b60405180910390fd5b600460009054906101000a900460ff1615610fb5576040517f08c379a0000000000000000000000000000000000000000000000000000000008152600401610fac906122ea565b60405180910390fd5b600460019054906101000a900460ff16611004576040517f08c379a0000000000000000000000000000000000000000000000000000000008152600401610ffb90612356565b60405180910390fd5b8060058190555050565b600460069054906101000a900463ffffffff1681565b60008054906101000a900473ffffffffffffffffffffffffffffffffffffffff1681565b60008054906101000a900473ffffffffffffffffffffffffffffffffffffffff1673ffffffffffffffffffffffffffffffffffffffff163373ffffffffffffffffffffffffffffffffffffffff16146110d6576040517f08c379a00000000000000000000000000000000000000000000000000000000081526004016110cd90611ed5565b60405180910390fd5b600460009054906101000a900460ff1615611126576040517f08c379a000000000000000000000000000000000000000000000000000000000815260040161111d906123c2565b60405180910390fd5b600460019054906101000a900460ff16611175576040517f08c379a000000000000000000000000000000000000000000000000000000000815260040161116c90612356565b60405180910390fd5b6001600460006101000a81548160ff0219169083151502179055506000600460016101000a81548160ff02191690831515021790555042600460026101000a81548163ffffffff021916908363ffffffff1602179055506001816111d991906123e2565b60ff16426111e7919061241d565b600460066101000a81548163ffffffff021916908363ffffffff1602179055507f5a7d5f50ab70a39d193bf53f0fb995377776df93bb6fdcf1cd1868b7e0dd44ee600460029054906101000a900463ffffffff16600460069054906101000a900463ffffffff1660405161125c9291906124ae565b60405180910390a150565b600460009054906101000a900460ff166112b6576040517f08c379a00000000000000000000000000000000000000000000000000000000081526004016112ad90611f41565b60405180910390fd5b600460069054906101000a900463ffffffff1663ffffffff164210611310576040517f08c379a000000000000000000000000000000000000000000000000000000000815260040161130790612523565b60405180910390fd5b60055434146113946040518060400160405280601981526020017f4465706f73697420726571756972656d656e74206973203a20000000000000008152506113596005546119c0565b6040518060400160405280600681526020017f2065746865720000000000000000000000000000000000000000000000000000815250611b21565b906113d5576040517f08c379a00000000000000000000000000000000000000000000000000000000081526004016113cc91906125cb565b60405180910390fd5b50600160009054906101000a900473ffffffffffffffffffffffffffffffffffffffff1673ffffffffffffffffffffffffffffffffffffffff168273ffffffffffffffffffffffffffffffffffffffff1614611466576040517f08c379a000000000000000000000000000000000000000000000000000000000815260040161145d9061265f565b60405180910390fd5b6002600082815260200190815260200160002060000160149054906101000a900460ff16156114ca576040517f08c379a00000000000000000000000000000000000000000000000000000000081526004016114c1906126cb565b60405180910390fd5b3373ffffffffffffffffffffffffffffffffffffffff168273ffffffffffffffffffffffffffffffffffffffff16636352211e836040518263ffffffff1660e01b815260040161151a9190611ba7565b60206040518083038186803b15801561153257600080fd5b505afa158015611546573d6000803e3d6000fd5b505050506040513d601f19601f8201168201806040525081019061156a9190612700565b73ffffffffffffffffffffffffffffffffffffffff16146115c0576040517f08c379a00000000000000000000000000000000000000000000000000000000081526004016115b79061279f565b60405180910390fd5b60405180604001604052803373ffffffffffffffffffffffffffffffffffffffff168152602001600115158152506002600083815260200190815260200160002060008201518160000160006101000a81548173ffffffffffffffffffffffffffffffffffffffff021916908373ffffffffffffffffffffffffffffffffffffffff16021790555060208201518160000160146101000a81548160ff021916908315150217905550905050600381908060018154018082558091505060019003906000526020600020016000909190919091505534600660008282546116a6919061241d565b925050819055503373ffffffffffffffffffffffffffffffffffffffff167fe1fffcc4923d04b559f4d29a8bfc6cda04eb5b0d3c460751c2402c5c5cc9109c346040516116f39190611ba7565b60405180910390a25050565b600460029054906101000a900463ffffffff1681565b60055481565b600073ffffffffffffffffffffffffffffffffffffffff1660008054906101000a900473ffffffffffffffffffffffffffffffffffffffff1673ffffffffffffffffffffffffffffffffffffffff16146117aa576040517f08c379a00000000000000000000000000000000000000000000000000000000081526004016117a19061280b565b60405180910390fd5b670de0b6b3a76400008210156117f5576040517f08c379a00000000000000000000000000000000000000000000000000000000081526004016117ec9061227e565b60405180910390fd5b326000806101000a81548173ffffffffffffffffffffffffffffffffffffffff021916908373ffffffffffffffffffffffffffffffffffffffff1602179055508160058190555080600160006101000a81548173ffffffffffffffffffffffffffffffffffffffff021916908373ffffffffffffffffffffffffffffffffffffffff1602179055506001600460016101000a81548160ff0219169083151502179055505050565b600381815481106118ac57600080fd5b906000526020600020016000915090505481565b6000804342336040516020016118d69190612873565b6040516020818303038152906040528051906020012060001c6118f99190612201565b45424160405160200161190c91906128c9565b6040516020818303038152906040528051906020012060001c61192f9190612201565b444261193b919061241d565b611945919061241d565b61194f919061241d565b611959919061241d565b611963919061241d565b6040516020016119739190612905565b6040516020818303038152906040528051906020012060001c9050600380549050600380549050826119a59190612201565b6119af9190612920565b816119ba919061297a565b91505090565b60606000821415611a08576040518060400160405280600181526020017f30000000000000000000000000000000000000000000000000000000000000008152509050611b1c565b600082905060005b60008214611a3a578080611a23906120f7565b915050600a82611a339190612201565b9150611a10565b60008167ffffffffffffffff811115611a5657611a556129ae565b5b6040519080825280601f01601f191660200182016040528015611a885781602001600182028036833780820191505090505b5090505b60008514611b1557600182611aa1919061297a565b9150600a85611ab091906129dd565b6030611abc919061241d565b60f81b818381518110611ad257611ad1612039565b5b60200101907effffffffffffffffffffffffffffffffffffffffffffffffffffffffffffff1916908160001a905350600a85611b0e9190612201565b9450611a8c565b8093505050505b919050565b6060838383604051602001611b3893929190612a4a565b60405160208183030381529060405290509392505050565b5080546000825590600052602060002090810190611b6e9190611b71565b50565b5b80821115611b8a576000816000905550600101611b72565b5090565b6000819050919050565b611ba181611b8e565b82525050565b6000602082019050611bbc6000830184611b98565b92915050565b600073ffffffffffffffffffffffffffffffffffffffff82169050919050565b6000611bed82611bc2565b9050919050565b611bfd81611be2565b82525050565b6000602082019050611c186000830184611bf4565b92915050565b600080fd5b611c2c81611b8e565b8114611c3757600080fd5b50565b600081359050611c4981611c23565b92915050565b600060208284031215611c6557611c64611c1e565b5b6000611c7384828501611c3a565b91505092915050565b60008115159050919050565b611c9181611c7c565b82525050565b6000604082019050611cac6000830185611bf4565b611cb96020830184611c88565b9392505050565b600063ffffffff82169050919050565b611cd981611cc0565b82525050565b6000602082019050611cf46000830184611cd0565b92915050565b600060ff82169050919050565b611d1081611cfa565b8114611d1b57600080fd5b50565b600081359050611d2d81611d07565b92915050565b600060208284031215611d4957611d48611c1e565b5b6000611d5784828501611d1e565b91505092915050565b611d6981611be2565b8114611d7457600080fd5b50565b600081359050611d8681611d60565b92915050565b60008060408385031215611da357611da2611c1e565b5b6000611db185828601611d77565b9250506020611dc285828601611c3a565b9150509250929050565b60008060408385031215611de357611de2611c1e565b5b6000611df185828601611c3a565b9250506020611e0285828601611d77565b9150509250929050565b600082825260208201905092915050565b7f4e6f207265656e7472616e637900000000000000000000000000000000000000600082015250565b6000611e53600d83611e0c565b9150611e5e82611e1d565b602082019050919050565b60006020820190508181036000830152611e8281611e46565b9050919050565b7f5472616e73616374696f6e2073656e646572206973206e6f74206f776e657200600082015250565b6000611ebf601f83611e0c565b9150611eca82611e89565b602082019050919050565b60006020820190508181036000830152611eee81611eb2565b9050919050565b7f4c6f7474657279206973206e6f74207374617274656400000000000000000000600082015250565b6000611f2b601683611e0c565b9150611f3682611ef5565b602082019050919050565b60006020820190508181036000830152611f5a81611f1e565b9050919050565b7f4c6f747465727920697320616c726561647920656e6465640000000000000000600082015250565b6000611f97601883611e0c565b9150611fa282611f61565b602082019050919050565b60006020820190508181036000830152611fc681611f8a565b9050919050565b7f456e642074696d65206973206e6f742072656163686564000000000000000000600082015250565b6000612003601783611e0c565b915061200e82611fcd565b602082019050919050565b6000602082019050818103600083015261203281611ff6565b9050919050565b7f4e487b7100000000000000000000000000000000000000000000000000000000600052603260045260246000fd5b600060408201905061207d6000830185611b98565b61208a6020830184611b98565b9392505050565b60006060820190506120a66000830186611b98565b6120b36020830185611bf4565b6120c06040830184611b98565b949350505050565b7f4e487b7100000000000000000000000000000000000000000000000000000000600052601160045260246000fd5b600061210282611b8e565b91507fffffffffffffffffffffffffffffffffffffffffffffffffffffffffffffffff821415612135576121346120c8565b5b600182019050919050565b7f53757270726973652077696e6e657220697320616c72656164792073656c656360008201527f7465640000000000000000000000000000000000000000000000000000000000602082015250565b600061219c602383611e0c565b91506121a782612140565b604082019050919050565b600060208201905081810360008301526121cb8161218f565b9050919050565b7f4e487b7100000000000000000000000000000000000000000000000000000000600052601260045260246000fd5b600061220c82611b8e565b915061221783611b8e565b925082612227576122266121d2565b5b828204905092915050565b7f4465706f7369742073686f756c64206265206174206c65617374203120657468600082015250565b6000612268602083611e0c565b915061227382612232565b602082019050919050565b600060208201905081810360008301526122978161225b565b9050919050565b7f4c6f747465727920616c72656164792073746172746564000000000000000000600082015250565b60006122d4601783611e0c565b91506122df8261229e565b602082019050919050565b60006020820190508181036000830152612303816122c7565b9050919050565b7f4c6f7474657279206973206e6f7420656e646564000000000000000000000000600082015250565b6000612340601483611e0c565b915061234b8261230a565b602082019050919050565b6000602082019050818103600083015261236f81612333565b9050919050565b7f4c6f747465727920697320616c72656164792073746172746564000000000000600082015250565b60006123ac601a83611e0c565b91506123b782612376565b602082019050919050565b600060208201905081810360008301526123db8161239f565b9050919050565b60006123ed82611cfa565b91506123f883611cfa565b92508160ff0483118215151615612412576124116120c8565b5b828202905092915050565b600061242882611b8e565b915061243383611b8e565b9250827fffffffffffffffffffffffffffffffffffffffffffffffffffffffffffffffff03821115612468576124676120c8565b5b828201905092915050565b6000819050919050565b600061249861249361248e84611cc0565b612473565b611b8e565b9050919050565b6124a88161247d565b82525050565b60006040820190506124c3600083018561249f565b6124d0602083018461249f565b9392505050565b7f4c6f747465727920656e64656400000000000000000000000000000000000000600082015250565b600061250d600d83611e0c565b9150612518826124d7565b602082019050919050565b6000602082019050818103600083015261253c81612500565b9050919050565b600081519050919050565b60005b8381101561256c578082015181840152602081019050612551565b8381111561257b576000848401525b50505050565b6000601f19601f8301169050919050565b600061259d82612543565b6125a78185611e0c565b93506125b781856020860161254e565b6125c081612581565b840191505092915050565b600060208201905081810360008301526125e58184612592565b905092915050565b7f54686973206e6674206973206e6f7420737570706f727465642062792074686560008201527f206c6f7474657279000000000000000000000000000000000000000000000000602082015250565b6000612649602883611e0c565b9150612654826125ed565b604082019050919050565b600060208201905081810360008301526126788161263c565b9050919050565b7f54686973207469636b657420697320616c726561647920757365640000000000600082015250565b60006126b5601b83611e0c565b91506126c08261267f565b602082019050919050565b600060208201905081810360008301526126e4816126a8565b9050919050565b6000815190506126fa81611d60565b92915050565b60006020828403121561271657612715611c1e565b5b6000612724848285016126eb565b91505092915050565b7f5472616e73616374696f6e2073656e646572206973206e6f74207469636b657460008201527f206f776e65720000000000000000000000000000000000000000000000000000602082015250565b6000612789602683611e0c565b91506127948261272d565b604082019050919050565b600060208201905081810360008301526127b88161277c565b9050919050565b7f4c6f747465727920616c726561647920696e6974696c697a6564000000000000600082015250565b60006127f5601a83611e0c565b9150612800826127bf565b602082019050919050565b60006020820190508181036000830152612824816127e8565b9050919050565b60008160601b9050919050565b60006128438261282b565b9050919050565b600061285582612838565b9050919050565b61286d61286882611be2565b61284a565b82525050565b600061287f828461285c565b60148201915081905092915050565b600061289982611bc2565b9050919050565b60006128ab82612838565b9050919050565b6128c36128be8261288e565b6128a0565b82525050565b60006128d582846128b2565b60148201915081905092915050565b6000819050919050565b6128ff6128fa82611b8e565b6128e4565b82525050565b600061291182846128ee565b60208201915081905092915050565b600061292b82611b8e565b915061293683611b8e565b9250817fffffffffffffffffffffffffffffffffffffffffffffffffffffffffffffffff048311821515161561296f5761296e6120c8565b5b828202905092915050565b600061298582611b8e565b915061299083611b8e565b9250828210156129a3576129a26120c8565b5b828203905092915050565b7f4e487b7100000000000000000000000000000000000000000000000000000000600052604160045260246000fd5b60006129e882611b8e565b91506129f383611b8e565b925082612a0357612a026121d2565b5b828206905092915050565b600081905092915050565b6000612a2482612543565b612a2e8185612a0e565b9350612a3e81856020860161254e565b80840191505092915050565b6000612a568286612a19565b9150612a628285612a19565b9150612a6e8284612a19565b915081905094935050505056fea26469706673582212202e280803ae770589dfec2a1b11debb98003d23ccfda0f8a1f34c7a40e5f4772464736f6c63430008090033",
  "linkReferences": {},
  "deployedLinkReferences": {}
}