{
  "_format": "hh-sol-artifact-1",
  "contractName": "LotteryV2",
  "sourceName": "contracts/LotteryV2.sol",
  "abi": [
    {
      "anonymous": false,
      "inputs": [
        {
          "indexed": true,
          "internalType": "address",
          "name": "sender",
          "type": "address"
        },
        {
          "indexed": false,
          "internalType": "uint256",
          "name": "amount",
          "type": "uint256"
        }
      ],
      "name": "Deposit",
      "type": "event"
    },
    {
      "anonymous": false,
      "inputs": [
        {
          "indexed": false,
          "internalType": "uint256",
          "name": "winningTicket",
          "type": "uint256"
        },
        {
          "indexed": false,
          "internalType": "address",
          "name": "winner",
          "type": "address"
        },
        {
          "indexed": false,
          "internalType": "uint256",
          "name": "amount",
          "type": "uint256"
        }
      ],
      "name": "End",
      "type": "event"
    },
    {
      "anonymous": false,
      "inputs": [
        {
          "indexed": false,
          "internalType": "uint256",
          "name": "startAt",
          "type": "uint256"
        },
        {
          "indexed": false,
          "internalType": "uint256",
          "name": "endAt",
          "type": "uint256"
        }
      ],
      "name": "Start",
      "type": "event"
    },
    {
      "anonymous": false,
      "inputs": [
        {
          "indexed": false,
          "internalType": "uint256",
          "name": "winningTicket",
          "type": "uint256"
        },
        {
          "indexed": false,
          "internalType": "address",
          "name": "surpriseWinner",
          "type": "address"
        },
        {
          "indexed": false,
          "internalType": "uint256",
          "name": "amount",
          "type": "uint256"
        }
      ],
      "name": "SurpriseWin",
      "type": "event"
    },
    {
      "anonymous": false,
      "inputs": [
        {
          "indexed": false,
          "internalType": "uint256",
          "name": "random",
          "type": "uint256"
        },
        {
          "indexed": false,
          "internalType": "uint256",
          "name": "winningTicketId",
          "type": "uint256"
        }
      ],
      "name": "log",
      "type": "event"
    },
    {
      "inputs": [
        {
          "internalType": "address",
          "name": "_ticket",
          "type": "address"
        },
        {
          "internalType": "uint256",
          "name": "ticketId",
          "type": "uint256"
        }
      ],
      "name": "deposit",
      "outputs": [],
      "stateMutability": "payable",
      "type": "function"
    },
    {
      "inputs": [],
      "name": "deposits",
      "outputs": [
        {
          "internalType": "uint256",
          "name": "",
          "type": "uint256"
        }
      ],
      "stateMutability": "view",
      "type": "function"
    },
    {
      "inputs": [],
      "name": "endAt",
      "outputs": [
        {
          "internalType": "uint32",
          "name": "",
          "type": "uint32"
        }
      ],
      "stateMutability": "view",
      "type": "function"
    },
    {
      "inputs": [
        {
          "internalType": "uint256",
          "name": "_minDeposit",
          "type": "uint256"
        },
        {
          "internalType": "address",
          "name": "_ticketAddress",
          "type": "address"
        }
      ],
      "name": "initialize",
      "outputs": [],
      "stateMutability": "nonpayable",
      "type": "function"
    },
    {
      "inputs": [],
      "name": "minDeposit",
      "outputs": [
        {
          "internalType": "uint256",
          "name": "",
          "type": "uint256"
        }
      ],
      "stateMutability": "view",
      "type": "function"
    },
    {
      "inputs": [],
      "name": "owner",
      "outputs": [
        {
          "internalType": "address",
          "name": "",
          "type": "address"
        }
      ],
      "stateMutability": "view",
      "type": "function"
    },
    {
      "inputs": [],
      "name": "selectSurpriseWinner",
      "outputs": [],
      "stateMutability": "nonpayable",
      "type": "function"
    },
    {
      "inputs": [],
      "name": "startAt",
      "outputs": [
        {
          "internalType": "uint32",
          "name": "",
          "type": "uint32"
        }
      ],
      "stateMutability": "view",
      "type": "function"
    },
    {
      "inputs": [],
      "name": "ticketAddress",
      "outputs": [
        {
          "internalType": "address",
          "name": "",
          "type": "address"
        }
      ],
      "stateMutability": "view",
      "type": "function"
    },
    {
      "inputs": [
        {
          "internalType": "uint256",
          "name": "",
          "type": "uint256"
        }
      ],
      "name": "ticketIdToParticipant",
      "outputs": [
        {
          "internalType": "address",
          "name": "addr",
          "type": "address"
        },
        {
          "internalType": "bool",
          "name": "exists",
          "type": "bool"
        }
      ],
      "stateMutability": "view",
      "type": "function"
    },
    {
      "inputs": [
        {
          "internalType": "uint256",
          "name": "",
          "type": "uint256"
        }
      ],
      "name": "ticketIds",
      "outputs": [
        {
          "internalType": "uint256",
          "name": "",
          "type": "uint256"
        }
      ],
      "stateMutability": "view",
      "type": "function"
    },
    {
      "inputs": [],
      "name": "triggerEnd",
      "outputs": [],
      "stateMutability": "nonpayable",
      "type": "function"
    },
    {
      "inputs": [
        {
          "internalType": "uint8",
          "name": "_minutes",
          "type": "uint8"
        }
      ],
      "name": "triggerStart",
      "outputs": [],
      "stateMutability": "nonpayable",
      "type": "function"
    },
    {
      "inputs": [],
      "name": "upgradeChecker",
      "outputs": [
        {
          "internalType": "string",
          "name": "",
          "type": "string"
        }
      ],
      "stateMutability": "view",
      "type": "function"
    }
  ],
  "bytecode": "0x608060405234801561001057600080fd5b506129d6806100206000396000f3fe6080604052600436106100dd5760003560e01c80637cc3ae8c1161007f578063912290d611610059578063912290d61461026c578063c744656514610295578063da35a26f146102c0578063f147de61146102e9576100dd565b80637cc3ae8c146101eb5780637ec5cbf0146102165780638da5cb5b14610241576100dd565b806341b3d185116100bb57806341b3d1851461013b57806347e7ef241461016657806357a8e3fe1461018257806371034d84146101ad576100dd565b806316224d71146100e2578063185726b5146100f9578063323a5e0b14610110575b600080fd5b3480156100ee57600080fd5b506100f7610326565b005b34801561010557600080fd5b5061010e61089a565b005b34801561011c57600080fd5b50610125610d4c565b6040516101329190611938565b60405180910390f35b34801561014757600080fd5b50610150610d52565b60405161015d9190611938565b60405180910390f35b610180600480360381019061017b91906119e2565b610d58565b005b34801561018e57600080fd5b5061019761116e565b6040516101a49190611a31565b60405180910390f35b3480156101b957600080fd5b506101d460048036038101906101cf9190611a4c565b611194565b6040516101e2929190611a94565b60405180910390f35b3480156101f757600080fd5b506102006111e5565b60405161020d9190611adc565b60405180910390f35b34801561022257600080fd5b5061022b6111fb565b6040516102389190611b90565b60405180910390f35b34801561024d57600080fd5b50610256611234565b6040516102639190611a31565b60405180910390f35b34801561027857600080fd5b50610293600480360381019061028e9190611beb565b611258565b005b3480156102a157600080fd5b506102aa611477565b6040516102b79190611adc565b60405180910390f35b3480156102cc57600080fd5b506102e760048036038101906102e29190611c18565b61148d565b005b3480156102f557600080fd5b50610310600480360381019061030b9190611a4c565b611606565b60405161031d9190611938565b60405180910390f35b600760019054906101000a900460ff1615610376576040517f08c379a000000000000000000000000000000000000000000000000000000000815260040161036d90611ca4565b60405180910390fd5b6001600760016101000a81548160ff021916908315150217905550600460009054906101000a900460ff166103e0576040517f08c379a00000000000000000000000000000000000000000000000000000000081526004016103d790611d10565b60405180910390fd5b600460019054906101000a900460ff1615610430576040517f08c379a000000000000000000000000000000000000000000000000000000000815260040161042790611d7c565b60405180910390fd5b60008054906101000a900473ffffffffffffffffffffffffffffffffffffffff1673ffffffffffffffffffffffffffffffffffffffff163373ffffffffffffffffffffffffffffffffffffffff16146104be576040517f08c379a00000000000000000000000000000000000000000000000000000000081526004016104b590611de8565b60405180910390fd5b600460069054906101000a900463ffffffff1663ffffffff164211610518576040517f08c379a000000000000000000000000000000000000000000000000000000000815260040161050f90611e54565b60405180910390fd5b600060038054905011156106fa57600061053061162a565b905060006003828154811061054857610547611e74565b5b906000526020600020015490507ff666715aa6b8e8ce32bd39173f51eea0643fdd246a826c4756c2f168022b6eb58282604051610586929190611ea3565b60405180910390a16000600260008381526020019081526020016000206040518060400160405290816000820160009054906101000a900473ffffffffffffffffffffffffffffffffffffffff1673ffffffffffffffffffffffffffffffffffffffff1673ffffffffffffffffffffffffffffffffffffffff1681526020016000820160149054906101000a900460ff1615151515815250509050806000015173ffffffffffffffffffffffffffffffffffffffff166108fc6006549081150290604051600060405180830381858888f1935050505015801561066d573d6000803e3d6000fd5b506106b16040518060400160405280600881526020017f57696e6e65723a20000000000000000000000000000000000000000000000000815250826000015161172a565b7fad71bc980e1f9155e488acf543cc5276beae185d612505ea3eaff929e4fe37f08282600001516006546040516106ea93929190611ecc565b60405180910390a1505050610739565b7fad71bc980e1f9155e488acf543cc5276beae185d612505ea3eaff929e4fe37f060008060065460405161073093929190611f48565b60405180910390a15b6001600460016101000a81548160ff0219169083151502179055506000600460006101000a81548160ff0219169083151502179055506000600460026101000a81548163ffffffff021916908363ffffffff1602179055506000600460066101000a81548163ffffffff021916908363ffffffff16021790555060005b60038054905081101561084b576000600382815481106107d9576107d8611e74565b5b9060005260206000200154905060026000828152602001908152602001600020600080820160006101000a81549073ffffffffffffffffffffffffffffffffffffffff02191690556000820160146101000a81549060ff0219169055505050808061084390611fae565b9150506107b6565b506003600061085a91906118e1565b60006006819055506000600760006101000a81548160ff0219169083151502179055506000600760016101000a81548160ff021916908315150217905550565b600760019054906101000a900460ff16156108ea576040517f08c379a00000000000000000000000000000000000000000000000000000000081526004016108e190611ca4565b60405180910390fd5b6001600760016101000a81548160ff021916908315150217905550600460009054906101000a900460ff16610954576040517f08c379a000000000000000000000000000000000000000000000000000000000815260040161094b90611d10565b60405180910390fd5b600460019054906101000a900460ff16156109a4576040517f08c379a000000000000000000000000000000000000000000000000000000000815260040161099b90611d7c565b60405180910390fd5b600760009054906101000a900460ff16156109f4576040517f08c379a00000000000000000000000000000000000000000000000000000000081526004016109eb90612069565b60405180910390fd5b60008054906101000a900473ffffffffffffffffffffffffffffffffffffffff1673ffffffffffffffffffffffffffffffffffffffff163373ffffffffffffffffffffffffffffffffffffffff1614610a82576040517f08c379a0000000000000000000000000000000000000000000000000000000008152600401610a7990611de8565b60405180910390fd5b600060038054905011610aca576040517f08c379a0000000000000000000000000000000000000000000000000000000008152600401610ac1906120d5565b60405180910390fd5b6000610ad461162a565b9050600060038281548110610aec57610aeb611e74565b5b906000526020600020015490507ff666715aa6b8e8ce32bd39173f51eea0643fdd246a826c4756c2f168022b6eb58282604051610b2a929190611ea3565b60405180910390a16000600260008381526020019081526020016000206040518060400160405290816000820160009054906101000a900473ffffffffffffffffffffffffffffffffffffffff1673ffffffffffffffffffffffffffffffffffffffff1673ffffffffffffffffffffffffffffffffffffffff1681526020016000820160149054906101000a900460ff1615151515815250509050806000015173ffffffffffffffffffffffffffffffffffffffff166108fc6002600654610bf29190612124565b9081150290604051600060405180830381858888f19350505050158015610c1d573d6000803e3d6000fd5b50610c616040518060400160405280601181526020017f53757270726973652077696e6e65723a20000000000000000000000000000000815250826000015161172a565b6001600760006101000a81548160ff0219169083151502179055506002600654610c8b9190612124565b60068190555060026000838152602001908152602001600020600080820160006101000a81549073ffffffffffffffffffffffffffffffffffffffff02191690556000820160146101000a81549060ff02191690555050610ceb836117c6565b7f364e99859076d0a41b9bfb020c90a8d4d8b7381d363621c8e57c3bf5e4703390828260000151600654604051610d2493929190611ecc565b60405180910390a15050506000600760016101000a81548160ff021916908315150217905550565b60065481565b60055481565b600460009054906101000a900460ff16610da7576040517f08c379a0000000000000000000000000000000000000000000000000000000008152600401610d9e90611d10565b60405180910390fd5b600460069054906101000a900463ffffffff1663ffffffff164210610e01576040517f08c379a0000000000000000000000000000000000000000000000000000000008152600401610df8906121a1565b60405180910390fd5b6005543411610e45576040517f08c379a0000000000000000000000000000000000000000000000000000000008152600401610e3c9061220d565b60405180910390fd5b600160009054906101000a900473ffffffffffffffffffffffffffffffffffffffff1673ffffffffffffffffffffffffffffffffffffffff168273ffffffffffffffffffffffffffffffffffffffff1614610ed5576040517f08c379a0000000000000000000000000000000000000000000000000000000008152600401610ecc9061229f565b60405180910390fd5b6002600082815260200190815260200160002060000160149054906101000a900460ff1615610f39576040517f08c379a0000000000000000000000000000000000000000000000000000000008152600401610f309061230b565b60405180910390fd5b3373ffffffffffffffffffffffffffffffffffffffff168273ffffffffffffffffffffffffffffffffffffffff16636352211e836040518263ffffffff1660e01b8152600401610f899190611938565b60206040518083038186803b158015610fa157600080fd5b505afa158015610fb5573d6000803e3d6000fd5b505050506040513d601f19601f82011682018060405250810190610fd99190612340565b73ffffffffffffffffffffffffffffffffffffffff161461102f576040517f08c379a0000000000000000000000000000000000000000000000000000000008152600401611026906123df565b60405180910390fd5b60405180604001604052803373ffffffffffffffffffffffffffffffffffffffff168152602001600115158152506002600083815260200190815260200160002060008201518160000160006101000a81548173ffffffffffffffffffffffffffffffffffffffff021916908373ffffffffffffffffffffffffffffffffffffffff16021790555060208201518160000160146101000a81548160ff0219169083151502179055509050506003819080600181540180825580915050600190039060005260206000200160009091909190915055346006600082825461111591906123ff565b925050819055503373ffffffffffffffffffffffffffffffffffffffff167fe1fffcc4923d04b559f4d29a8bfc6cda04eb5b0d3c460751c2402c5c5cc9109c346040516111629190611938565b60405180910390a25050565b600160009054906101000a900473ffffffffffffffffffffffffffffffffffffffff1681565b60026020528060005260406000206000915090508060000160009054906101000a900473ffffffffffffffffffffffffffffffffffffffff16908060000160149054906101000a900460ff16905082565b600460069054906101000a900463ffffffff1681565b6040518060400160405280600b81526020017f496d206e657720696d706c00000000000000000000000000000000000000000081525081565b60008054906101000a900473ffffffffffffffffffffffffffffffffffffffff1681565b60008054906101000a900473ffffffffffffffffffffffffffffffffffffffff1673ffffffffffffffffffffffffffffffffffffffff163373ffffffffffffffffffffffffffffffffffffffff16146112e6576040517f08c379a00000000000000000000000000000000000000000000000000000000081526004016112dd906124c7565b60405180910390fd5b600460009054906101000a900460ff1615611336576040517f08c379a000000000000000000000000000000000000000000000000000000000815260040161132d90612533565b60405180910390fd5b600460019054906101000a900460ff16611385576040517f08c379a000000000000000000000000000000000000000000000000000000000815260040161137c9061259f565b60405180910390fd5b6001600460006101000a81548160ff0219169083151502179055506000600460016101000a81548160ff02191690831515021790555042600460026101000a81548163ffffffff021916908363ffffffff1602179055506001816113e991906125bf565b60ff16426113f791906123ff565b600460066101000a81548163ffffffff021916908363ffffffff1602179055507f5a7d5f50ab70a39d193bf53f0fb995377776df93bb6fdcf1cd1868b7e0dd44ee600460029054906101000a900463ffffffff16600460069054906101000a900463ffffffff1660405161146c92919061262b565b60405180910390a150565b600460029054906101000a900463ffffffff1681565b600073ffffffffffffffffffffffffffffffffffffffff1660008054906101000a900473ffffffffffffffffffffffffffffffffffffffff1673ffffffffffffffffffffffffffffffffffffffff161461151c576040517f08c379a0000000000000000000000000000000000000000000000000000000008152600401611513906126a0565b60405180910390fd5b6064821161155f576040517f08c379a000000000000000000000000000000000000000000000000000000000815260040161155690612732565b60405180910390fd5b326000806101000a81548173ffffffffffffffffffffffffffffffffffffffff021916908373ffffffffffffffffffffffffffffffffffffffff1602179055508160058190555080600160006101000a81548173ffffffffffffffffffffffffffffffffffffffff021916908373ffffffffffffffffffffffffffffffffffffffff1602179055506001600460016101000a81548160ff0219169083151502179055505050565b6003818154811061161657600080fd5b906000526020600020016000915090505481565b600080434233604051602001611640919061279a565b6040516020818303038152906040528051906020012060001c6116639190612124565b45424160405160200161167691906127f0565b6040516020818303038152906040528051906020012060001c6116999190612124565b44426116a591906123ff565b6116af91906123ff565b6116b991906123ff565b6116c391906123ff565b6116cd91906123ff565b6040516020016116dd919061282c565b6040516020818303038152906040528051906020012060001c90506003805490506003805490508261170f9190612124565b6117199190612847565b8161172491906128a1565b91505090565b6117c282826040516024016117409291906128d5565b6040516020818303038152906040527f319af333000000000000000000000000000000000000000000000000000000007bffffffffffffffffffffffffffffffffffffffffffffffffffffffff19166020820180517bffffffffffffffffffffffffffffffffffffffffffffffffffffffff83818316178352505050506118b8565b5050565b600380549050811061180d576040517f08c379a000000000000000000000000000000000000000000000000000000000815260040161180490612951565b60405180910390fd5b60008190505b600160038054905061182591906128a1565b81101561188c57600360018261183b91906123ff565b8154811061184c5761184b611e74565b5b90600052602060002001546003828154811061186b5761186a611e74565b5b9060005260206000200181905550808061188490611fae565b915050611813565b50600380548061189f5761189e612971565b5b6001900381819060005260206000200160009055905550565b60008151905060006a636f6e736f6c652e6c6f679050602083016000808483855afa5050505050565b50805460008255906000526020600020908101906118ff9190611902565b50565b5b8082111561191b576000816000905550600101611903565b5090565b6000819050919050565b6119328161191f565b82525050565b600060208201905061194d6000830184611929565b92915050565b600080fd5b600073ffffffffffffffffffffffffffffffffffffffff82169050919050565b600061198382611958565b9050919050565b61199381611978565b811461199e57600080fd5b50565b6000813590506119b08161198a565b92915050565b6119bf8161191f565b81146119ca57600080fd5b50565b6000813590506119dc816119b6565b92915050565b600080604083850312156119f9576119f8611953565b5b6000611a07858286016119a1565b9250506020611a18858286016119cd565b9150509250929050565b611a2b81611978565b82525050565b6000602082019050611a466000830184611a22565b92915050565b600060208284031215611a6257611a61611953565b5b6000611a70848285016119cd565b91505092915050565b60008115159050919050565b611a8e81611a79565b82525050565b6000604082019050611aa96000830185611a22565b611ab66020830184611a85565b9392505050565b600063ffffffff82169050919050565b611ad681611abd565b82525050565b6000602082019050611af16000830184611acd565b92915050565b600081519050919050565b600082825260208201905092915050565b60005b83811015611b31578082015181840152602081019050611b16565b83811115611b40576000848401525b50505050565b6000601f19601f8301169050919050565b6000611b6282611af7565b611b6c8185611b02565b9350611b7c818560208601611b13565b611b8581611b46565b840191505092915050565b60006020820190508181036000830152611baa8184611b57565b905092915050565b600060ff82169050919050565b611bc881611bb2565b8114611bd357600080fd5b50565b600081359050611be581611bbf565b92915050565b600060208284031215611c0157611c00611953565b5b6000611c0f84828501611bd6565b91505092915050565b60008060408385031215611c2f57611c2e611953565b5b6000611c3d858286016119cd565b9250506020611c4e858286016119a1565b9150509250929050565b7f4e6f207265656e7472616e637900000000000000000000000000000000000000600082015250565b6000611c8e600d83611b02565b9150611c9982611c58565b602082019050919050565b60006020820190508181036000830152611cbd81611c81565b9050919050565b7f4c6f7474657279206973206e6f74207374617274656400000000000000000000600082015250565b6000611cfa601683611b02565b9150611d0582611cc4565b602082019050919050565b60006020820190508181036000830152611d2981611ced565b9050919050565b7f4c6f747465727920697320616c726561647920656e6465640000000000000000600082015250565b6000611d66601883611b02565b9150611d7182611d30565b602082019050919050565b60006020820190508181036000830152611d9581611d59565b9050919050565b7f5472616e73616374696f6e2073656e646572206973206e6f74206f776e657200600082015250565b6000611dd2601f83611b02565b9150611ddd82611d9c565b602082019050919050565b60006020820190508181036000830152611e0181611dc5565b9050919050565b7f456e642074696d65206973206e6f742072656163686564000000000000000000600082015250565b6000611e3e601783611b02565b9150611e4982611e08565b602082019050919050565b60006020820190508181036000830152611e6d81611e31565b9050919050565b7f4e487b7100000000000000000000000000000000000000000000000000000000600052603260045260246000fd5b6000604082019050611eb86000830185611929565b611ec56020830184611929565b9392505050565b6000606082019050611ee16000830186611929565b611eee6020830185611a22565b611efb6040830184611929565b949350505050565b6000819050919050565b6000819050919050565b6000611f32611f2d611f2884611f03565b611f0d565b61191f565b9050919050565b611f4281611f17565b82525050565b6000606082019050611f5d6000830186611f39565b611f6a6020830185611a22565b611f776040830184611929565b949350505050565b7f4e487b7100000000000000000000000000000000000000000000000000000000600052601160045260246000fd5b6000611fb98261191f565b91507fffffffffffffffffffffffffffffffffffffffffffffffffffffffffffffffff821415611fec57611feb611f7f565b5b600182019050919050565b7f53757270726973652077696e6e657220697320616c72656164792073656c656360008201527f7465640000000000000000000000000000000000000000000000000000000000602082015250565b6000612053602383611b02565b915061205e82611ff7565b604082019050919050565b6000602082019050818103600083015261208281612046565b9050919050565b7f4e6f206465706f73697473207965740000000000000000000000000000000000600082015250565b60006120bf600f83611b02565b91506120ca82612089565b602082019050919050565b600060208201905081810360008301526120ee816120b2565b9050919050565b7f4e487b7100000000000000000000000000000000000000000000000000000000600052601260045260246000fd5b600061212f8261191f565b915061213a8361191f565b92508261214a576121496120f5565b5b828204905092915050565b7f4c6f747465727920656e64656400000000000000000000000000000000000000600082015250565b600061218b600d83611b02565b915061219682612155565b602082019050919050565b600060208201905081810360008301526121ba8161217e565b9050919050565b7f4d696e696d756d206465706f7369742069732031303020776569000000000000600082015250565b60006121f7601a83611b02565b9150612202826121c1565b602082019050919050565b60006020820190508181036000830152612226816121ea565b9050919050565b7f54686973206e6674206973206e6f7420737570706f727465642062792074686560008201527f206c6f7474657279000000000000000000000000000000000000000000000000602082015250565b6000612289602883611b02565b91506122948261222d565b604082019050919050565b600060208201905081810360008301526122b88161227c565b9050919050565b7f54686973207469636b657420697320616c726561647920757365640000000000600082015250565b60006122f5601b83611b02565b9150612300826122bf565b602082019050919050565b60006020820190508181036000830152612324816122e8565b9050919050565b60008151905061233a8161198a565b92915050565b60006020828403121561235657612355611953565b5b60006123648482850161232b565b91505092915050565b7f5472616e73616374696f6e2073656e646572206973206e6f74207469636b657460008201527f206f776e65720000000000000000000000000000000000000000000000000000602082015250565b60006123c9602683611b02565b91506123d48261236d565b604082019050919050565b600060208201905081810360008301526123f8816123bc565b9050919050565b600061240a8261191f565b91506124158361191f565b9250827fffffffffffffffffffffffffffffffffffffffffffffffffffffffffffffffff0382111561244a57612449611f7f565b5b828201905092915050565b7f5472616e73616374696f6e2073656e646572206973206e6f74206f776e65722060008201527f6f72206c6f7474657279206973206e6f7420696e697469616c697a6564000000602082015250565b60006124b1603d83611b02565b91506124bc82612455565b604082019050919050565b600060208201905081810360008301526124e0816124a4565b9050919050565b7f4c6f747465727920697320616c72656164792073746172746564000000000000600082015250565b600061251d601a83611b02565b9150612528826124e7565b602082019050919050565b6000602082019050818103600083015261254c81612510565b9050919050565b7f4c6f7474657279206973206e6f7420656e646564000000000000000000000000600082015250565b6000612589601483611b02565b915061259482612553565b602082019050919050565b600060208201905081810360008301526125b88161257c565b9050919050565b60006125ca82611bb2565b91506125d583611bb2565b92508160ff04831182151516156125ef576125ee611f7f565b5b828202905092915050565b600061261561261061260b84611abd565b611f0d565b61191f565b9050919050565b612625816125fa565b82525050565b6000604082019050612640600083018561261c565b61264d602083018461261c565b9392505050565b7f4c6f747465727920616c726561647920696e6974696c697a6564000000000000600082015250565b600061268a601a83611b02565b915061269582612654565b602082019050919050565b600060208201905081810360008301526126b98161267d565b9050919050565b7f4d696e696d756d206465706f7369742073686f756c64206265206d6f7265207460008201527f68616e2031303020776569000000000000000000000000000000000000000000602082015250565b600061271c602b83611b02565b9150612727826126c0565b604082019050919050565b6000602082019050818103600083015261274b8161270f565b9050919050565b60008160601b9050919050565b600061276a82612752565b9050919050565b600061277c8261275f565b9050919050565b61279461278f82611978565b612771565b82525050565b60006127a68284612783565b60148201915081905092915050565b60006127c082611958565b9050919050565b60006127d28261275f565b9050919050565b6127ea6127e5826127b5565b6127c7565b82525050565b60006127fc82846127d9565b60148201915081905092915050565b6000819050919050565b6128266128218261191f565b61280b565b82525050565b60006128388284612815565b60208201915081905092915050565b60006128528261191f565b915061285d8361191f565b9250817fffffffffffffffffffffffffffffffffffffffffffffffffffffffffffffffff048311821515161561289657612895611f7f565b5b828202905092915050565b60006128ac8261191f565b91506128b78361191f565b9250828210156128ca576128c9611f7f565b5b828203905092915050565b600060408201905081810360008301526128ef8185611b57565b90506128fe6020830184611a22565b9392505050565b7f496e646578206973206f7574206f6620626f756e647300000000000000000000600082015250565b600061293b601683611b02565b915061294682612905565b602082019050919050565b6000602082019050818103600083015261296a8161292e565b9050919050565b7f4e487b7100000000000000000000000000000000000000000000000000000000600052603160045260246000fdfea26469706673582212207e435d4a0be1a9ee399f7df755d024b4d0a3345518e213c6fcd5060de41614dc64736f6c63430008090033",
  "linkReferences": {},
  "deployedLinkReferences": {}
}