{
  "_format": "hh-sol-artifact-1",
  "contractName": "LotteryV2",
  "sourceName": "contracts/LotteryV2.sol",
  "abi": [
    {
      "anonymous": false,
      "inputs": [
        {
          "indexed": true,
          "internalType": "address",
          "name": "sender",
          "type": "address"
        },
        {
          "indexed": false,
          "internalType": "uint256",
          "name": "amount",
          "type": "uint256"
        }
      ],
      "name": "Deposit",
      "type": "event"
    },
    {
      "anonymous": false,
      "inputs": [
        {
          "indexed": false,
          "internalType": "uint256",
          "name": "winningTicket",
          "type": "uint256"
        },
        {
          "indexed": false,
          "internalType": "address",
          "name": "winner",
          "type": "address"
        },
        {
          "indexed": false,
          "internalType": "uint256",
          "name": "amount",
          "type": "uint256"
        }
      ],
      "name": "End",
      "type": "event"
    },
    {
      "anonymous": false,
      "inputs": [
        {
          "indexed": false,
          "internalType": "uint256",
          "name": "startAt",
          "type": "uint256"
        },
        {
          "indexed": false,
          "internalType": "uint256",
          "name": "endAt",
          "type": "uint256"
        }
      ],
      "name": "Start",
      "type": "event"
    },
    {
      "anonymous": false,
      "inputs": [
        {
          "indexed": false,
          "internalType": "uint256",
          "name": "winningTicket",
          "type": "uint256"
        },
        {
          "indexed": false,
          "internalType": "address",
          "name": "surpriseWinner",
          "type": "address"
        },
        {
          "indexed": false,
          "internalType": "uint256",
          "name": "amount",
          "type": "uint256"
        }
      ],
      "name": "SurpriseWin",
      "type": "event"
    },
    {
      "anonymous": false,
      "inputs": [
        {
          "indexed": false,
          "internalType": "uint256",
          "name": "random",
          "type": "uint256"
        },
        {
          "indexed": false,
          "internalType": "uint256",
          "name": "winningTicketId",
          "type": "uint256"
        }
      ],
      "name": "log",
      "type": "event"
    },
    {
      "inputs": [
        {
          "internalType": "uint256",
          "name": "_deposit",
          "type": "uint256"
        }
      ],
      "name": "changeDepositReq",
      "outputs": [],
      "stateMutability": "nonpayable",
      "type": "function"
    },
    {
      "inputs": [],
      "name": "deposit",
      "outputs": [
        {
          "internalType": "uint256",
          "name": "",
          "type": "uint256"
        }
      ],
      "stateMutability": "view",
      "type": "function"
    },
    {
      "inputs": [
        {
          "internalType": "address",
          "name": "_ticket",
          "type": "address"
        },
        {
          "internalType": "uint256",
          "name": "ticketId",
          "type": "uint256"
        }
      ],
      "name": "depositFunds",
      "outputs": [],
      "stateMutability": "payable",
      "type": "function"
    },
    {
      "inputs": [],
      "name": "deposits",
      "outputs": [
        {
          "internalType": "uint256",
          "name": "",
          "type": "uint256"
        }
      ],
      "stateMutability": "view",
      "type": "function"
    },
    {
      "inputs": [],
      "name": "endAt",
      "outputs": [
        {
          "internalType": "uint32",
          "name": "",
          "type": "uint32"
        }
      ],
      "stateMutability": "view",
      "type": "function"
    },
    {
      "inputs": [],
      "name": "forceEnd",
      "outputs": [],
      "stateMutability": "nonpayable",
      "type": "function"
    },
    {
      "inputs": [
        {
          "internalType": "uint256",
          "name": "_deposit",
          "type": "uint256"
        },
        {
          "internalType": "address",
          "name": "_ticketAddress",
          "type": "address"
        }
      ],
      "name": "initialize",
      "outputs": [],
      "stateMutability": "nonpayable",
      "type": "function"
    },
    {
      "inputs": [],
      "name": "owner",
      "outputs": [
        {
          "internalType": "address",
          "name": "",
          "type": "address"
        }
      ],
      "stateMutability": "view",
      "type": "function"
    },
    {
      "inputs": [],
      "name": "selectSurpriseWinner",
      "outputs": [],
      "stateMutability": "nonpayable",
      "type": "function"
    },
    {
      "inputs": [],
      "name": "startAt",
      "outputs": [
        {
          "internalType": "uint32",
          "name": "",
          "type": "uint32"
        }
      ],
      "stateMutability": "view",
      "type": "function"
    },
    {
      "inputs": [],
      "name": "ticketAddress",
      "outputs": [
        {
          "internalType": "address",
          "name": "",
          "type": "address"
        }
      ],
      "stateMutability": "view",
      "type": "function"
    },
    {
      "inputs": [
        {
          "internalType": "uint256",
          "name": "",
          "type": "uint256"
        }
      ],
      "name": "ticketIdToParticipant",
      "outputs": [
        {
          "internalType": "address",
          "name": "addr",
          "type": "address"
        },
        {
          "internalType": "bool",
          "name": "exists",
          "type": "bool"
        }
      ],
      "stateMutability": "view",
      "type": "function"
    },
    {
      "inputs": [
        {
          "internalType": "uint256",
          "name": "",
          "type": "uint256"
        }
      ],
      "name": "ticketIds",
      "outputs": [
        {
          "internalType": "uint256",
          "name": "",
          "type": "uint256"
        }
      ],
      "stateMutability": "view",
      "type": "function"
    },
    {
      "inputs": [],
      "name": "triggerEnd",
      "outputs": [],
      "stateMutability": "nonpayable",
      "type": "function"
    },
    {
      "inputs": [
        {
          "internalType": "uint8",
          "name": "_minutes",
          "type": "uint8"
        }
      ],
      "name": "triggerStart",
      "outputs": [],
      "stateMutability": "nonpayable",
      "type": "function"
    },
    {
      "inputs": [],
      "name": "upgradeChecker",
      "outputs": [
        {
          "internalType": "string",
          "name": "",
          "type": "string"
        }
      ],
      "stateMutability": "view",
      "type": "function"
    }
  ],
  "bytecode": "0x608060405234801561001057600080fd5b50613050806100206000396000f3fe6080604052600436106100f35760003560e01c80637ec5cbf01161008a578063c744656511610059578063c7446565146102c0578063d0e30db0146102eb578063da35a26f14610316578063f147de611461033f576100f3565b80637ec5cbf0146102255780638da5cb5b14610250578063912290d61461027b578063921b004b146102a4576100f3565b806357a8e3fe116100c657806357a8e3fe1461016857806371034d84146101935780637bea8699146101d15780637cc3ae8c146101fa576100f3565b806316224d71146100f8578063185726b51461010f578063323a5e0b146101265780634ee0ab0d14610151575b600080fd5b34801561010457600080fd5b5061010d61037c565b005b34801561011b57600080fd5b506101246108f0565b005b34801561013257600080fd5b5061013b610da2565b6040516101489190611f9d565b60405180910390f35b34801561015d57600080fd5b50610166610da8565b005b34801561017457600080fd5b5061017d61101b565b60405161018a9190611ff9565b60405180910390f35b34801561019f57600080fd5b506101ba60048036038101906101b59190612045565b611041565b6040516101c892919061208d565b60405180910390f35b3480156101dd57600080fd5b506101f860048036038101906101f39190612045565b611092565b005b34801561020657600080fd5b5061020f611214565b60405161021c91906120d5565b60405180910390f35b34801561023157600080fd5b5061023a61122a565b6040516102479190612189565b60405180910390f35b34801561025c57600080fd5b50610265611263565b6040516102729190611ff9565b60405180910390f35b34801561028757600080fd5b506102a2600480360381019061029d91906121e4565b611287565b005b6102be60048036038101906102b9919061223d565b6114a6565b005b3480156102cc57600080fd5b506102d561193e565b6040516102e291906120d5565b60405180910390f35b3480156102f757600080fd5b50610300611954565b60405161030d9190611f9d565b60405180910390f35b34801561032257600080fd5b5061033d6004803603810190610338919061227d565b61195a565b005b34801561034b57600080fd5b5061036660048036038101906103619190612045565b611adb565b6040516103739190611f9d565b60405180910390f35b600760019054906101000a900460ff16156103cc576040517f08c379a00000000000000000000000000000000000000000000000000000000081526004016103c390612309565b60405180910390fd5b6001600760016101000a81548160ff021916908315150217905550600460009054906101000a900460ff16610436576040517f08c379a000000000000000000000000000000000000000000000000000000000815260040161042d90612375565b60405180910390fd5b600460019054906101000a900460ff1615610486576040517f08c379a000000000000000000000000000000000000000000000000000000000815260040161047d906123e1565b60405180910390fd5b60008054906101000a900473ffffffffffffffffffffffffffffffffffffffff1673ffffffffffffffffffffffffffffffffffffffff163373ffffffffffffffffffffffffffffffffffffffff1614610514576040517f08c379a000000000000000000000000000000000000000000000000000000000815260040161050b9061244d565b60405180910390fd5b600460069054906101000a900463ffffffff1663ffffffff16421161056e576040517f08c379a0000000000000000000000000000000000000000000000000000000008152600401610565906124b9565b60405180910390fd5b60006003805490501115610750576000610586611aff565b905060006003828154811061059e5761059d6124d9565b5b906000526020600020015490507ff666715aa6b8e8ce32bd39173f51eea0643fdd246a826c4756c2f168022b6eb582826040516105dc929190612508565b60405180910390a16000600260008381526020019081526020016000206040518060400160405290816000820160009054906101000a900473ffffffffffffffffffffffffffffffffffffffff1673ffffffffffffffffffffffffffffffffffffffff1673ffffffffffffffffffffffffffffffffffffffff1681526020016000820160149054906101000a900460ff1615151515815250509050806000015173ffffffffffffffffffffffffffffffffffffffff166108fc6006549081150290604051600060405180830381858888f193505050501580156106c3573d6000803e3d6000fd5b506107076040518060400160405280601681526020017f57696e6e65723a2d2d2d2d2d2d2d2d2d2d2d2d2d2d2d000000000000000000008152508260000151611bff565b7fad71bc980e1f9155e488acf543cc5276beae185d612505ea3eaff929e4fe37f082826000015160065460405161074093929190612531565b60405180910390a150505061078f565b7fad71bc980e1f9155e488acf543cc5276beae185d612505ea3eaff929e4fe37f0600080600654604051610786939291906125ad565b60405180910390a15b6001600460016101000a81548160ff0219169083151502179055506000600460006101000a81548160ff0219169083151502179055506000600460026101000a81548163ffffffff021916908363ffffffff1602179055506000600460066101000a81548163ffffffff021916908363ffffffff16021790555060005b6003805490508110156108a15760006003828154811061082f5761082e6124d9565b5b9060005260206000200154905060026000828152602001908152602001600020600080820160006101000a81549073ffffffffffffffffffffffffffffffffffffffff02191690556000820160146101000a81549060ff0219169055505050808061089990612613565b91505061080c565b50600360006108b09190611f46565b60006006819055506000600760006101000a81548160ff0219169083151502179055506000600760016101000a81548160ff021916908315150217905550565b600760019054906101000a900460ff1615610940576040517f08c379a000000000000000000000000000000000000000000000000000000000815260040161093790612309565b60405180910390fd5b6001600760016101000a81548160ff021916908315150217905550600460009054906101000a900460ff166109aa576040517f08c379a00000000000000000000000000000000000000000000000000000000081526004016109a190612375565b60405180910390fd5b600460019054906101000a900460ff16156109fa576040517f08c379a00000000000000000000000000000000000000000000000000000000081526004016109f1906123e1565b60405180910390fd5b600760009054906101000a900460ff1615610a4a576040517f08c379a0000000000000000000000000000000000000000000000000000000008152600401610a41906126ce565b60405180910390fd5b60008054906101000a900473ffffffffffffffffffffffffffffffffffffffff1673ffffffffffffffffffffffffffffffffffffffff163373ffffffffffffffffffffffffffffffffffffffff1614610ad8576040517f08c379a0000000000000000000000000000000000000000000000000000000008152600401610acf9061244d565b60405180910390fd5b600060038054905011610b20576040517f08c379a0000000000000000000000000000000000000000000000000000000008152600401610b179061273a565b60405180910390fd5b6000610b2a611aff565b9050600060038281548110610b4257610b416124d9565b5b906000526020600020015490507ff666715aa6b8e8ce32bd39173f51eea0643fdd246a826c4756c2f168022b6eb58282604051610b80929190612508565b60405180910390a16000600260008381526020019081526020016000206040518060400160405290816000820160009054906101000a900473ffffffffffffffffffffffffffffffffffffffff1673ffffffffffffffffffffffffffffffffffffffff1673ffffffffffffffffffffffffffffffffffffffff1681526020016000820160149054906101000a900460ff1615151515815250509050806000015173ffffffffffffffffffffffffffffffffffffffff166108fc6002600654610c489190612789565b9081150290604051600060405180830381858888f19350505050158015610c73573d6000803e3d6000fd5b50610cb76040518060400160405280601681526020017f53757270726973652077696e6e65723a2d2d2d2d2d2d000000000000000000008152508260000151611bff565b6001600760006101000a81548160ff0219169083151502179055506002600654610ce19190612789565b60068190555060026000838152602001908152602001600020600080820160006101000a81549073ffffffffffffffffffffffffffffffffffffffff02191690556000820160146101000a81549060ff02191690555050610d4183611c9b565b7f364e99859076d0a41b9bfb020c90a8d4d8b7381d363621c8e57c3bf5e4703390828260000151600654604051610d7a93929190612531565b60405180910390a15050506000600760016101000a81548160ff021916908315150217905550565b60065481565b60008054906101000a900473ffffffffffffffffffffffffffffffffffffffff1673ffffffffffffffffffffffffffffffffffffffff163373ffffffffffffffffffffffffffffffffffffffff1614610e36576040517f08c379a0000000000000000000000000000000000000000000000000000000008152600401610e2d9061244d565b60405180910390fd5b600460009054906101000a900460ff16610e85576040517f08c379a0000000000000000000000000000000000000000000000000000000008152600401610e7c90612375565b60405180910390fd5b600460019054906101000a900460ff1615610ed5576040517f08c379a0000000000000000000000000000000000000000000000000000000008152600401610ecc906123e1565b60405180910390fd5b6001600460016101000a81548160ff0219169083151502179055506000600460006101000a81548160ff0219169083151502179055506000600460026101000a81548163ffffffff021916908363ffffffff1602179055506000600460066101000a81548163ffffffff021916908363ffffffff16021790555060005b600380549050811015610fe757600060038281548110610f7557610f746124d9565b5b9060005260206000200154905060026000828152602001908152602001600020600080820160006101000a81549073ffffffffffffffffffffffffffffffffffffffff02191690556000820160146101000a81549060ff02191690555050508080610fdf90612613565b915050610f52565b5060036000610ff69190611f46565b60006006819055506000600760006101000a81548160ff021916908315150217905550565b600160009054906101000a900473ffffffffffffffffffffffffffffffffffffffff1681565b60026020528060005260406000206000915090508060000160009054906101000a900473ffffffffffffffffffffffffffffffffffffffff16908060000160149054906101000a900460ff16905082565b60008054906101000a900473ffffffffffffffffffffffffffffffffffffffff1673ffffffffffffffffffffffffffffffffffffffff163373ffffffffffffffffffffffffffffffffffffffff1614611120576040517f08c379a00000000000000000000000000000000000000000000000000000000081526004016111179061244d565b60405180910390fd5b670de0b6b3a764000081101561116b576040517f08c379a000000000000000000000000000000000000000000000000000000000815260040161116290612806565b60405180910390fd5b600460009054906101000a900460ff16156111bb576040517f08c379a00000000000000000000000000000000000000000000000000000000081526004016111b290612872565b60405180910390fd5b600460019054906101000a900460ff1661120a576040517f08c379a0000000000000000000000000000000000000000000000000000000008152600401611201906128de565b60405180910390fd5b8060058190555050565b600460069054906101000a900463ffffffff1681565b6040518060400160405280600b81526020017f496d206e657720696d706c00000000000000000000000000000000000000000081525081565b60008054906101000a900473ffffffffffffffffffffffffffffffffffffffff1681565b60008054906101000a900473ffffffffffffffffffffffffffffffffffffffff1673ffffffffffffffffffffffffffffffffffffffff163373ffffffffffffffffffffffffffffffffffffffff1614611315576040517f08c379a000000000000000000000000000000000000000000000000000000000815260040161130c9061244d565b60405180910390fd5b600460009054906101000a900460ff1615611365576040517f08c379a000000000000000000000000000000000000000000000000000000000815260040161135c9061294a565b60405180910390fd5b600460019054906101000a900460ff166113b4576040517f08c379a00000000000000000000000000000000000000000000000000000000081526004016113ab906128de565b60405180910390fd5b6001600460006101000a81548160ff0219169083151502179055506000600460016101000a81548160ff02191690831515021790555042600460026101000a81548163ffffffff021916908363ffffffff160217905550600181611418919061296a565b60ff164261142691906129a5565b600460066101000a81548163ffffffff021916908363ffffffff1602179055507f5a7d5f50ab70a39d193bf53f0fb995377776df93bb6fdcf1cd1868b7e0dd44ee600460029054906101000a900463ffffffff16600460069054906101000a900463ffffffff1660405161149b929190612a2c565b60405180910390a150565b600460009054906101000a900460ff166114f5576040517f08c379a00000000000000000000000000000000000000000000000000000000081526004016114ec90612375565b60405180910390fd5b600460069054906101000a900463ffffffff1663ffffffff16421061154f576040517f08c379a000000000000000000000000000000000000000000000000000000000815260040161154690612aa1565b60405180910390fd5b60055434146115d36040518060400160405280601981526020017f4465706f73697420726571756972656d656e74206973203a2000000000000000815250611598600554611d8d565b6040518060400160405280600681526020017f2065746865720000000000000000000000000000000000000000000000000000815250611eee565b90611614576040517f08c379a000000000000000000000000000000000000000000000000000000000815260040161160b9190612189565b60405180910390fd5b50600160009054906101000a900473ffffffffffffffffffffffffffffffffffffffff1673ffffffffffffffffffffffffffffffffffffffff168273ffffffffffffffffffffffffffffffffffffffff16146116a5576040517f08c379a000000000000000000000000000000000000000000000000000000000815260040161169c90612b33565b60405180910390fd5b6002600082815260200190815260200160002060000160149054906101000a900460ff1615611709576040517f08c379a000000000000000000000000000000000000000000000000000000000815260040161170090612b9f565b60405180910390fd5b3373ffffffffffffffffffffffffffffffffffffffff168273ffffffffffffffffffffffffffffffffffffffff16636352211e836040518263ffffffff1660e01b81526004016117599190611f9d565b60206040518083038186803b15801561177157600080fd5b505afa158015611785573d6000803e3d6000fd5b505050506040513d601f19601f820116820180604052508101906117a99190612bd4565b73ffffffffffffffffffffffffffffffffffffffff16146117ff576040517f08c379a00000000000000000000000000000000000000000000000000000000081526004016117f690612c73565b60405180910390fd5b60405180604001604052803373ffffffffffffffffffffffffffffffffffffffff168152602001600115158152506002600083815260200190815260200160002060008201518160000160006101000a81548173ffffffffffffffffffffffffffffffffffffffff021916908373ffffffffffffffffffffffffffffffffffffffff16021790555060208201518160000160146101000a81548160ff021916908315150217905550905050600381908060018154018082558091505060019003906000526020600020016000909190919091505534600660008282546118e591906129a5565b925050819055503373ffffffffffffffffffffffffffffffffffffffff167fe1fffcc4923d04b559f4d29a8bfc6cda04eb5b0d3c460751c2402c5c5cc9109c346040516119329190611f9d565b60405180910390a25050565b600460029054906101000a900463ffffffff1681565b60055481565b600073ffffffffffffffffffffffffffffffffffffffff1660008054906101000a900473ffffffffffffffffffffffffffffffffffffffff1673ffffffffffffffffffffffffffffffffffffffff16146119e9576040517f08c379a00000000000000000000000000000000000000000000000000000000081526004016119e090612cdf565b60405180910390fd5b670de0b6b3a7640000821015611a34576040517f08c379a0000000000000000000000000000000000000000000000000000000008152600401611a2b90612806565b60405180910390fd5b326000806101000a81548173ffffffffffffffffffffffffffffffffffffffff021916908373ffffffffffffffffffffffffffffffffffffffff1602179055508160058190555080600160006101000a81548173ffffffffffffffffffffffffffffffffffffffff021916908373ffffffffffffffffffffffffffffffffffffffff1602179055506001600460016101000a81548160ff0219169083151502179055505050565b60038181548110611aeb57600080fd5b906000526020600020016000915090505481565b600080434233604051602001611b159190612d47565b6040516020818303038152906040528051906020012060001c611b389190612789565b454241604051602001611b4b9190612d9d565b6040516020818303038152906040528051906020012060001c611b6e9190612789565b4442611b7a91906129a5565b611b8491906129a5565b611b8e91906129a5565b611b9891906129a5565b611ba291906129a5565b604051602001611bb29190612dd9565b6040516020818303038152906040528051906020012060001c905060038054905060038054905082611be49190612789565b611bee9190612df4565b81611bf99190612e4e565b91505090565b611c978282604051602401611c15929190612e82565b6040516020818303038152906040527f319af333000000000000000000000000000000000000000000000000000000007bffffffffffffffffffffffffffffffffffffffffffffffffffffffff19166020820180517bffffffffffffffffffffffffffffffffffffffffffffffffffffffff8381831617835250505050611f1d565b5050565b6003805490508110611ce2576040517f08c379a0000000000000000000000000000000000000000000000000000000008152600401611cd990612efe565b60405180910390fd5b60008190505b6001600380549050611cfa9190612e4e565b811015611d61576003600182611d1091906129a5565b81548110611d2157611d206124d9565b5b906000526020600020015460038281548110611d4057611d3f6124d9565b5b90600052602060002001819055508080611d5990612613565b915050611ce8565b506003805480611d7457611d73612f1e565b5b6001900381819060005260206000200160009055905550565b60606000821415611dd5576040518060400160405280600181526020017f30000000000000000000000000000000000000000000000000000000000000008152509050611ee9565b600082905060005b60008214611e07578080611df090612613565b915050600a82611e009190612789565b9150611ddd565b60008167ffffffffffffffff811115611e2357611e22612f4d565b5b6040519080825280601f01601f191660200182016040528015611e555781602001600182028036833780820191505090505b5090505b60008514611ee257600182611e6e9190612e4e565b9150600a85611e7d9190612f7c565b6030611e8991906129a5565b60f81b818381518110611e9f57611e9e6124d9565b5b60200101907effffffffffffffffffffffffffffffffffffffffffffffffffffffffffffff1916908160001a905350600a85611edb9190612789565b9450611e59565b8093505050505b919050565b6060838383604051602001611f0593929190612fe9565b60405160208183030381529060405290509392505050565b60008151905060006a636f6e736f6c652e6c6f679050602083016000808483855afa5050505050565b5080546000825590600052602060002090810190611f649190611f67565b50565b5b80821115611f80576000816000905550600101611f68565b5090565b6000819050919050565b611f9781611f84565b82525050565b6000602082019050611fb26000830184611f8e565b92915050565b600073ffffffffffffffffffffffffffffffffffffffff82169050919050565b6000611fe382611fb8565b9050919050565b611ff381611fd8565b82525050565b600060208201905061200e6000830184611fea565b92915050565b600080fd5b61202281611f84565b811461202d57600080fd5b50565b60008135905061203f81612019565b92915050565b60006020828403121561205b5761205a612014565b5b600061206984828501612030565b91505092915050565b60008115159050919050565b61208781612072565b82525050565b60006040820190506120a26000830185611fea565b6120af602083018461207e565b9392505050565b600063ffffffff82169050919050565b6120cf816120b6565b82525050565b60006020820190506120ea60008301846120c6565b92915050565b600081519050919050565b600082825260208201905092915050565b60005b8381101561212a57808201518184015260208101905061210f565b83811115612139576000848401525b50505050565b6000601f19601f8301169050919050565b600061215b826120f0565b61216581856120fb565b935061217581856020860161210c565b61217e8161213f565b840191505092915050565b600060208201905081810360008301526121a38184612150565b905092915050565b600060ff82169050919050565b6121c1816121ab565b81146121cc57600080fd5b50565b6000813590506121de816121b8565b92915050565b6000602082840312156121fa576121f9612014565b5b6000612208848285016121cf565b91505092915050565b61221a81611fd8565b811461222557600080fd5b50565b60008135905061223781612211565b92915050565b6000806040838503121561225457612253612014565b5b600061226285828601612228565b925050602061227385828601612030565b9150509250929050565b6000806040838503121561229457612293612014565b5b60006122a285828601612030565b92505060206122b385828601612228565b9150509250929050565b7f4e6f207265656e7472616e637900000000000000000000000000000000000000600082015250565b60006122f3600d836120fb565b91506122fe826122bd565b602082019050919050565b60006020820190508181036000830152612322816122e6565b9050919050565b7f4c6f7474657279206973206e6f74207374617274656400000000000000000000600082015250565b600061235f6016836120fb565b915061236a82612329565b602082019050919050565b6000602082019050818103600083015261238e81612352565b9050919050565b7f4c6f747465727920697320616c726561647920656e6465640000000000000000600082015250565b60006123cb6018836120fb565b91506123d682612395565b602082019050919050565b600060208201905081810360008301526123fa816123be565b9050919050565b7f5472616e73616374696f6e2073656e646572206973206e6f74206f776e657200600082015250565b6000612437601f836120fb565b915061244282612401565b602082019050919050565b600060208201905081810360008301526124668161242a565b9050919050565b7f456e642074696d65206973206e6f742072656163686564000000000000000000600082015250565b60006124a36017836120fb565b91506124ae8261246d565b602082019050919050565b600060208201905081810360008301526124d281612496565b9050919050565b7f4e487b7100000000000000000000000000000000000000000000000000000000600052603260045260246000fd5b600060408201905061251d6000830185611f8e565b61252a6020830184611f8e565b9392505050565b60006060820190506125466000830186611f8e565b6125536020830185611fea565b6125606040830184611f8e565b949350505050565b6000819050919050565b6000819050919050565b600061259761259261258d84612568565b612572565b611f84565b9050919050565b6125a78161257c565b82525050565b60006060820190506125c2600083018661259e565b6125cf6020830185611fea565b6125dc6040830184611f8e565b949350505050565b7f4e487b7100000000000000000000000000000000000000000000000000000000600052601160045260246000fd5b600061261e82611f84565b91507fffffffffffffffffffffffffffffffffffffffffffffffffffffffffffffffff821415612651576126506125e4565b5b600182019050919050565b7f53757270726973652077696e6e657220697320616c72656164792073656c656360008201527f7465640000000000000000000000000000000000000000000000000000000000602082015250565b60006126b86023836120fb565b91506126c38261265c565b604082019050919050565b600060208201905081810360008301526126e7816126ab565b9050919050565b7f4e6f206465706f73697473207965740000000000000000000000000000000000600082015250565b6000612724600f836120fb565b915061272f826126ee565b602082019050919050565b6000602082019050818103600083015261275381612717565b9050919050565b7f4e487b7100000000000000000000000000000000000000000000000000000000600052601260045260246000fd5b600061279482611f84565b915061279f83611f84565b9250826127af576127ae61275a565b5b828204905092915050565b7f4465706f7369742073686f756c64206265206174206c65617374203120657468600082015250565b60006127f06020836120fb565b91506127fb826127ba565b602082019050919050565b6000602082019050818103600083015261281f816127e3565b9050919050565b7f4c6f747465727920616c72656164792073746172746564000000000000000000600082015250565b600061285c6017836120fb565b915061286782612826565b602082019050919050565b6000602082019050818103600083015261288b8161284f565b9050919050565b7f4c6f7474657279206973206e6f7420656e646564000000000000000000000000600082015250565b60006128c86014836120fb565b91506128d382612892565b602082019050919050565b600060208201905081810360008301526128f7816128bb565b9050919050565b7f4c6f747465727920697320616c72656164792073746172746564000000000000600082015250565b6000612934601a836120fb565b915061293f826128fe565b602082019050919050565b6000602082019050818103600083015261296381612927565b9050919050565b6000612975826121ab565b9150612980836121ab565b92508160ff048311821515161561299a576129996125e4565b5b828202905092915050565b60006129b082611f84565b91506129bb83611f84565b9250827fffffffffffffffffffffffffffffffffffffffffffffffffffffffffffffffff038211156129f0576129ef6125e4565b5b828201905092915050565b6000612a16612a11612a0c846120b6565b612572565b611f84565b9050919050565b612a26816129fb565b82525050565b6000604082019050612a416000830185612a1d565b612a4e6020830184612a1d565b9392505050565b7f4c6f747465727920656e64656400000000000000000000000000000000000000600082015250565b6000612a8b600d836120fb565b9150612a9682612a55565b602082019050919050565b60006020820190508181036000830152612aba81612a7e565b9050919050565b7f54686973206e6674206973206e6f7420737570706f727465642062792074686560008201527f206c6f7474657279000000000000000000000000000000000000000000000000602082015250565b6000612b1d6028836120fb565b9150612b2882612ac1565b604082019050919050565b60006020820190508181036000830152612b4c81612b10565b9050919050565b7f54686973207469636b657420697320616c726561647920757365640000000000600082015250565b6000612b89601b836120fb565b9150612b9482612b53565b602082019050919050565b60006020820190508181036000830152612bb881612b7c565b9050919050565b600081519050612bce81612211565b92915050565b600060208284031215612bea57612be9612014565b5b6000612bf884828501612bbf565b91505092915050565b7f5472616e73616374696f6e2073656e646572206973206e6f74207469636b657460008201527f206f776e65720000000000000000000000000000000000000000000000000000602082015250565b6000612c5d6026836120fb565b9150612c6882612c01565b604082019050919050565b60006020820190508181036000830152612c8c81612c50565b9050919050565b7f4c6f747465727920616c726561647920696e6974696c697a6564000000000000600082015250565b6000612cc9601a836120fb565b9150612cd482612c93565b602082019050919050565b60006020820190508181036000830152612cf881612cbc565b9050919050565b60008160601b9050919050565b6000612d1782612cff565b9050919050565b6000612d2982612d0c565b9050919050565b612d41612d3c82611fd8565b612d1e565b82525050565b6000612d538284612d30565b60148201915081905092915050565b6000612d6d82611fb8565b9050919050565b6000612d7f82612d0c565b9050919050565b612d97612d9282612d62565b612d74565b82525050565b6000612da98284612d86565b60148201915081905092915050565b6000819050919050565b612dd3612dce82611f84565b612db8565b82525050565b6000612de58284612dc2565b60208201915081905092915050565b6000612dff82611f84565b9150612e0a83611f84565b9250817fffffffffffffffffffffffffffffffffffffffffffffffffffffffffffffffff0483118215151615612e4357612e426125e4565b5b828202905092915050565b6000612e5982611f84565b9150612e6483611f84565b925082821015612e7757612e766125e4565b5b828203905092915050565b60006040820190508181036000830152612e9c8185612150565b9050612eab6020830184611fea565b9392505050565b7f496e646578206973206f7574206f6620626f756e647300000000000000000000600082015250565b6000612ee86016836120fb565b9150612ef382612eb2565b602082019050919050565b60006020820190508181036000830152612f1781612edb565b9050919050565b7f4e487b7100000000000000000000000000000000000000000000000000000000600052603160045260246000fd5b7f4e487b7100000000000000000000000000000000000000000000000000000000600052604160045260246000fd5b6000612f8782611f84565b9150612f9283611f84565b925082612fa257612fa161275a565b5b828206905092915050565b600081905092915050565b6000612fc3826120f0565b612fcd8185612fad565b9350612fdd81856020860161210c565b80840191505092915050565b6000612ff58286612fb8565b91506130018285612fb8565b915061300d8284612fb8565b915081905094935050505056fea2646970667358221220e26d013992122afce13e5930f442da9f0713f90a9e0e170d7884484a01fe079964736f6c63430008090033",
  "linkReferences": {},
  "deployedLinkReferences": {}
}