{
  "_format": "hh-sol-artifact-1",
  "contractName": "Ticket",
  "sourceName": "contracts/Ticket.sol",
  "abi": [
    {
      "inputs": [],
      "stateMutability": "nonpayable",
      "type": "constructor"
    },
    {
      "anonymous": false,
      "inputs": [
        {
          "indexed": true,
          "internalType": "address",
          "name": "owner",
          "type": "address"
        },
        {
          "indexed": true,
          "internalType": "address",
          "name": "approved",
          "type": "address"
        },
        {
          "indexed": true,
          "internalType": "uint256",
          "name": "tokenId",
          "type": "uint256"
        }
      ],
      "name": "Approval",
      "type": "event"
    },
    {
      "anonymous": false,
      "inputs": [
        {
          "indexed": true,
          "internalType": "address",
          "name": "owner",
          "type": "address"
        },
        {
          "indexed": true,
          "internalType": "address",
          "name": "operator",
          "type": "address"
        },
        {
          "indexed": false,
          "internalType": "bool",
          "name": "approved",
          "type": "bool"
        }
      ],
      "name": "ApprovalForAll",
      "type": "event"
    },
    {
      "anonymous": false,
      "inputs": [
        {
          "indexed": false,
          "internalType": "uint256",
          "name": "tokenId",
          "type": "uint256"
        },
        {
          "indexed": false,
          "internalType": "address",
          "name": "tokenHolder",
          "type": "address"
        }
      ],
      "name": "Mint",
      "type": "event"
    },
    {
      "anonymous": false,
      "inputs": [
        {
          "indexed": true,
          "internalType": "address",
          "name": "from",
          "type": "address"
        },
        {
          "indexed": true,
          "internalType": "address",
          "name": "to",
          "type": "address"
        },
        {
          "indexed": true,
          "internalType": "uint256",
          "name": "tokenId",
          "type": "uint256"
        }
      ],
      "name": "Transfer",
      "type": "event"
    },
    {
      "inputs": [
        {
          "internalType": "address",
          "name": "to",
          "type": "address"
        },
        {
          "internalType": "uint256",
          "name": "tokenId",
          "type": "uint256"
        }
      ],
      "name": "approve",
      "outputs": [],
      "stateMutability": "nonpayable",
      "type": "function"
    },
    {
      "inputs": [
        {
          "internalType": "address",
          "name": "owner",
          "type": "address"
        }
      ],
      "name": "balanceOf",
      "outputs": [
        {
          "internalType": "uint256",
          "name": "",
          "type": "uint256"
        }
      ],
      "stateMutability": "view",
      "type": "function"
    },
    {
      "inputs": [
        {
          "internalType": "uint256",
          "name": "tokenId",
          "type": "uint256"
        }
      ],
      "name": "getApproved",
      "outputs": [
        {
          "internalType": "address",
          "name": "",
          "type": "address"
        }
      ],
      "stateMutability": "view",
      "type": "function"
    },
    {
      "inputs": [
        {
          "internalType": "address",
          "name": "owner",
          "type": "address"
        },
        {
          "internalType": "address",
          "name": "operator",
          "type": "address"
        }
      ],
      "name": "isApprovedForAll",
      "outputs": [
        {
          "internalType": "bool",
          "name": "",
          "type": "bool"
        }
      ],
      "stateMutability": "view",
      "type": "function"
    },
    {
      "inputs": [],
      "name": "mint",
      "outputs": [],
      "stateMutability": "nonpayable",
      "type": "function"
    },
    {
      "inputs": [],
      "name": "name",
      "outputs": [
        {
          "internalType": "string",
          "name": "",
          "type": "string"
        }
      ],
      "stateMutability": "view",
      "type": "function"
    },
    {
      "inputs": [
        {
          "internalType": "uint256",
          "name": "tokenId",
          "type": "uint256"
        }
      ],
      "name": "ownerOf",
      "outputs": [
        {
          "internalType": "address",
          "name": "",
          "type": "address"
        }
      ],
      "stateMutability": "view",
      "type": "function"
    },
    {
      "inputs": [
        {
          "internalType": "address",
          "name": "from",
          "type": "address"
        },
        {
          "internalType": "address",
          "name": "to",
          "type": "address"
        },
        {
          "internalType": "uint256",
          "name": "tokenId",
          "type": "uint256"
        }
      ],
      "name": "safeTransferFrom",
      "outputs": [],
      "stateMutability": "nonpayable",
      "type": "function"
    },
    {
      "inputs": [
        {
          "internalType": "address",
          "name": "from",
          "type": "address"
        },
        {
          "internalType": "address",
          "name": "to",
          "type": "address"
        },
        {
          "internalType": "uint256",
          "name": "tokenId",
          "type": "uint256"
        },
        {
          "internalType": "bytes",
          "name": "data",
          "type": "bytes"
        }
      ],
      "name": "safeTransferFrom",
      "outputs": [],
      "stateMutability": "nonpayable",
      "type": "function"
    },
    {
      "inputs": [
        {
          "internalType": "address",
          "name": "operator",
          "type": "address"
        },
        {
          "internalType": "bool",
          "name": "approved",
          "type": "bool"
        }
      ],
      "name": "setApprovalForAll",
      "outputs": [],
      "stateMutability": "nonpayable",
      "type": "function"
    },
    {
      "inputs": [
        {
          "internalType": "bytes4",
          "name": "interfaceId",
          "type": "bytes4"
        }
      ],
      "name": "supportsInterface",
      "outputs": [
        {
          "internalType": "bool",
          "name": "",
          "type": "bool"
        }
      ],
      "stateMutability": "view",
      "type": "function"
    },
    {
      "inputs": [],
      "name": "symbol",
      "outputs": [
        {
          "internalType": "string",
          "name": "",
          "type": "string"
        }
      ],
      "stateMutability": "view",
      "type": "function"
    },
    {
      "inputs": [
        {
          "internalType": "uint256",
          "name": "tokenId",
          "type": "uint256"
        }
      ],
      "name": "tokenURI",
      "outputs": [
        {
          "internalType": "string",
          "name": "",
          "type": "string"
        }
      ],
      "stateMutability": "view",
      "type": "function"
    },
    {
      "inputs": [
        {
          "internalType": "address",
          "name": "from",
          "type": "address"
        },
        {
          "internalType": "address",
          "name": "to",
          "type": "address"
        },
        {
          "internalType": "uint256",
          "name": "tokenId",
          "type": "uint256"
        }
      ],
      "name": "transferFrom",
      "outputs": [],
      "stateMutability": "nonpayable",
      "type": "function"
    }
  ],
  "bytecode": "0x60806040523480156200001157600080fd5b506040518060400160405280600681526020017f5469636b657400000000000000000000000000000000000000000000000000008152506040518060400160405280600381526020017f54494b0000000000000000000000000000000000000000000000000000000000815250816000908051906020019062000096929190620000b8565b508060019080519060200190620000af929190620000b8565b505050620001cd565b828054620000c69062000197565b90600052602060002090601f016020900481019282620000ea576000855562000136565b82601f106200010557805160ff191683800117855562000136565b8280016001018555821562000136579182015b828111156200013557825182559160200191906001019062000118565b5b50905062000145919062000149565b5090565b5b80821115620001645760008160009055506001016200014a565b5090565b7f4e487b7100000000000000000000000000000000000000000000000000000000600052602260045260246000fd5b60006002820490506001821680620001b057607f821691505b60208210811415620001c757620001c662000168565b5b50919050565b61251b80620001dd6000396000f3fe608060405234801561001057600080fd5b50600436106100ea5760003560e01c80636352211e1161008c578063a22cb46511610066578063a22cb46514610249578063b88d4fde14610265578063c87b56dd14610281578063e985e9c5146102b1576100ea565b80636352211e146101cb57806370a08231146101fb57806395d89b411461022b576100ea565b8063095ea7b3116100c8578063095ea7b31461016d5780631249c58b1461018957806323b872dd1461019357806342842e0e146101af576100ea565b806301ffc9a7146100ef57806306fdde031461011f578063081812fc1461013d575b600080fd5b61010960048036038101906101049190611651565b6102e1565b6040516101169190611699565b60405180910390f35b6101276103c3565b604051610134919061174d565b60405180910390f35b610157600480360381019061015291906117a5565b610455565b6040516101649190611813565b60405180910390f35b6101876004803603810190610182919061185a565b61049b565b005b6101916105b3565b005b6101ad60048036038101906101a8919061189a565b610614565b005b6101c960048036038101906101c4919061189a565b610674565b005b6101e560048036038101906101e091906117a5565b610694565b6040516101f29190611813565b60405180910390f35b610215600480360381019061021091906118ed565b610746565b6040516102229190611929565b60405180910390f35b6102336107fe565b604051610240919061174d565b60405180910390f35b610263600480360381019061025e9190611970565b610890565b005b61027f600480360381019061027a9190611ae5565b6108a6565b005b61029b600480360381019061029691906117a5565b610908565b6040516102a8919061174d565b60405180910390f35b6102cb60048036038101906102c69190611b68565b610970565b6040516102d89190611699565b60405180910390f35b60007f80ac58cd000000000000000000000000000000000000000000000000000000007bffffffffffffffffffffffffffffffffffffffffffffffffffffffff1916827bffffffffffffffffffffffffffffffffffffffffffffffffffffffff191614806103ac57507f5b5e139f000000000000000000000000000000000000000000000000000000007bffffffffffffffffffffffffffffffffffffffffffffffffffffffff1916827bffffffffffffffffffffffffffffffffffffffffffffffffffffffff1916145b806103bc57506103bb82610a04565b5b9050919050565b6060600080546103d290611bd7565b80601f01602080910402602001604051908101604052809291908181526020018280546103fe90611bd7565b801561044b5780601f106104205761010080835404028352916020019161044b565b820191906000526020600020905b81548152906001019060200180831161042e57829003601f168201915b5050505050905090565b600061046082610a6e565b6004600083815260200190815260200160002060009054906101000a900473ffffffffffffffffffffffffffffffffffffffff169050919050565b60006104a682610694565b90508073ffffffffffffffffffffffffffffffffffffffff168373ffffffffffffffffffffffffffffffffffffffff161415610517576040517f08c379a000000000000000000000000000000000000000000000000000000000815260040161050e90611c7b565b60405180910390fd5b8073ffffffffffffffffffffffffffffffffffffffff16610536610ab9565b73ffffffffffffffffffffffffffffffffffffffff16148061056557506105648161055f610ab9565b610970565b5b6105a4576040517f08c379a000000000000000000000000000000000000000000000000000000000815260040161059b90611d0d565b60405180910390fd5b6105ae8383610ac1565b505050565b6105bd6006610b7a565b6105d0336105cb6006610b90565b610b9e565b7ff3cea5493d790af0133817606f7350a91d7f154ea52eaa79d179d4d231e501026105fb6006610b90565b3360405161060a929190611d2d565b60405180910390a1565b61062561061f610ab9565b82610d78565b610664576040517f08c379a000000000000000000000000000000000000000000000000000000000815260040161065b90611dc8565b60405180910390fd5b61066f838383610e0d565b505050565b61068f838383604051806020016040528060008152506108a6565b505050565b6000806002600084815260200190815260200160002060009054906101000a900473ffffffffffffffffffffffffffffffffffffffff169050600073ffffffffffffffffffffffffffffffffffffffff168173ffffffffffffffffffffffffffffffffffffffff16141561073d576040517f08c379a000000000000000000000000000000000000000000000000000000000815260040161073490611e34565b60405180910390fd5b80915050919050565b60008073ffffffffffffffffffffffffffffffffffffffff168273ffffffffffffffffffffffffffffffffffffffff1614156107b7576040517f08c379a00000000000000000000000000000000000000000000000000000000081526004016107ae90611ec6565b60405180910390fd5b600360008373ffffffffffffffffffffffffffffffffffffffff1673ffffffffffffffffffffffffffffffffffffffff168152602001908152602001600020549050919050565b60606001805461080d90611bd7565b80601f016020809104026020016040519081016040528092919081815260200182805461083990611bd7565b80156108865780601f1061085b57610100808354040283529160200191610886565b820191906000526020600020905b81548152906001019060200180831161086957829003601f168201915b5050505050905090565b6108a261089b610ab9565b8383611074565b5050565b6108b76108b1610ab9565b83610d78565b6108f6576040517f08c379a00000000000000000000000000000000000000000000000000000000081526004016108ed90611dc8565b60405180910390fd5b610902848484846111e1565b50505050565b606061091382610a6e565b600061091d61123d565b9050600081511161093d5760405180602001604052806000815250610968565b8061094784611254565b604051602001610958929190611f22565b6040516020818303038152906040525b915050919050565b6000600560008473ffffffffffffffffffffffffffffffffffffffff1673ffffffffffffffffffffffffffffffffffffffff16815260200190815260200160002060008373ffffffffffffffffffffffffffffffffffffffff1673ffffffffffffffffffffffffffffffffffffffff16815260200190815260200160002060009054906101000a900460ff16905092915050565b60007f01ffc9a7000000000000000000000000000000000000000000000000000000007bffffffffffffffffffffffffffffffffffffffffffffffffffffffff1916827bffffffffffffffffffffffffffffffffffffffffffffffffffffffff1916149050919050565b610a77816113b5565b610ab6576040517f08c379a0000000000000000000000000000000000000000000000000000000008152600401610aad90611e34565b60405180910390fd5b50565b600033905090565b816004600083815260200190815260200160002060006101000a81548173ffffffffffffffffffffffffffffffffffffffff021916908373ffffffffffffffffffffffffffffffffffffffff160217905550808273ffffffffffffffffffffffffffffffffffffffff16610b3483610694565b73ffffffffffffffffffffffffffffffffffffffff167f8c5be1e5ebec7d5bd14f71427d1e84f3dd0314c0f7b2291e5b200ac8c7c3b92560405160405180910390a45050565b6001816000016000828254019250508190555050565b600081600001549050919050565b600073ffffffffffffffffffffffffffffffffffffffff168273ffffffffffffffffffffffffffffffffffffffff161415610c0e576040517f08c379a0000000000000000000000000000000000000000000000000000000008152600401610c0590611f92565b60405180910390fd5b610c17816113b5565b15610c57576040517f08c379a0000000000000000000000000000000000000000000000000000000008152600401610c4e90611ffe565b60405180910390fd5b610c6360008383611421565b6001600360008473ffffffffffffffffffffffffffffffffffffffff1673ffffffffffffffffffffffffffffffffffffffff1681526020019081526020016000206000828254610cb3919061204d565b92505081905550816002600083815260200190815260200160002060006101000a81548173ffffffffffffffffffffffffffffffffffffffff021916908373ffffffffffffffffffffffffffffffffffffffff160217905550808273ffffffffffffffffffffffffffffffffffffffff16600073ffffffffffffffffffffffffffffffffffffffff167fddf252ad1be2c89b69c2b068fc378daa952ba7f163c4a11628f55a4df523b3ef60405160405180910390a4610d7460008383611426565b5050565b600080610d8483610694565b90508073ffffffffffffffffffffffffffffffffffffffff168473ffffffffffffffffffffffffffffffffffffffff161480610dc65750610dc58185610970565b5b80610e0457508373ffffffffffffffffffffffffffffffffffffffff16610dec84610455565b73ffffffffffffffffffffffffffffffffffffffff16145b91505092915050565b8273ffffffffffffffffffffffffffffffffffffffff16610e2d82610694565b73ffffffffffffffffffffffffffffffffffffffff1614610e83576040517f08c379a0000000000000000000000000000000000000000000000000000000008152600401610e7a90612115565b60405180910390fd5b600073ffffffffffffffffffffffffffffffffffffffff168273ffffffffffffffffffffffffffffffffffffffff161415610ef3576040517f08c379a0000000000000000000000000000000000000000000000000000000008152600401610eea906121a7565b60405180910390fd5b610efe838383611421565b610f09600082610ac1565b6001600360008573ffffffffffffffffffffffffffffffffffffffff1673ffffffffffffffffffffffffffffffffffffffff1681526020019081526020016000206000828254610f5991906121c7565b925050819055506001600360008473ffffffffffffffffffffffffffffffffffffffff1673ffffffffffffffffffffffffffffffffffffffff1681526020019081526020016000206000828254610fb0919061204d565b92505081905550816002600083815260200190815260200160002060006101000a81548173ffffffffffffffffffffffffffffffffffffffff021916908373ffffffffffffffffffffffffffffffffffffffff160217905550808273ffffffffffffffffffffffffffffffffffffffff168473ffffffffffffffffffffffffffffffffffffffff167fddf252ad1be2c89b69c2b068fc378daa952ba7f163c4a11628f55a4df523b3ef60405160405180910390a461106f838383611426565b505050565b8173ffffffffffffffffffffffffffffffffffffffff168373ffffffffffffffffffffffffffffffffffffffff1614156110e3576040517f08c379a00000000000000000000000000000000000000000000000000000000081526004016110da90612247565b60405180910390fd5b80600560008573ffffffffffffffffffffffffffffffffffffffff1673ffffffffffffffffffffffffffffffffffffffff16815260200190815260200160002060008473ffffffffffffffffffffffffffffffffffffffff1673ffffffffffffffffffffffffffffffffffffffff16815260200190815260200160002060006101000a81548160ff0219169083151502179055508173ffffffffffffffffffffffffffffffffffffffff168373ffffffffffffffffffffffffffffffffffffffff167f17307eab39ab6107e8899845ad3d59bd9653f200f220920489ca2b5937696c31836040516111d49190611699565b60405180910390a3505050565b6111ec848484610e0d565b6111f88484848461142b565b611237576040517f08c379a000000000000000000000000000000000000000000000000000000000815260040161122e906122d9565b60405180910390fd5b50505050565b606060405180602001604052806000815250905090565b6060600082141561129c576040518060400160405280600181526020017f300000000000000000000000000000000000000000000000000000000000000081525090506113b0565b600082905060005b600082146112ce5780806112b7906122f9565b915050600a826112c79190612371565b91506112a4565b60008167ffffffffffffffff8111156112ea576112e96119ba565b5b6040519080825280601f01601f19166020018201604052801561131c5781602001600182028036833780820191505090505b5090505b600085146113a95760018261133591906121c7565b9150600a8561134491906123a2565b6030611350919061204d565b60f81b818381518110611366576113656123d3565b5b60200101907effffffffffffffffffffffffffffffffffffffffffffffffffffffffffffff1916908160001a905350600a856113a29190612371565b9450611320565b8093505050505b919050565b60008073ffffffffffffffffffffffffffffffffffffffff166002600084815260200190815260200160002060009054906101000a900473ffffffffffffffffffffffffffffffffffffffff1673ffffffffffffffffffffffffffffffffffffffff1614159050919050565b505050565b505050565b600061144c8473ffffffffffffffffffffffffffffffffffffffff166115c2565b156115b5578373ffffffffffffffffffffffffffffffffffffffff1663150b7a02611475610ab9565b8786866040518563ffffffff1660e01b81526004016114979493929190612457565b602060405180830381600087803b1580156114b157600080fd5b505af19250505080156114e257506040513d601f19601f820116820180604052508101906114df91906124b8565b60015b611565573d8060008114611512576040519150601f19603f3d011682016040523d82523d6000602084013e611517565b606091505b5060008151141561155d576040517f08c379a0000000000000000000000000000000000000000000000000000000008152600401611554906122d9565b60405180910390fd5b805181602001fd5b63150b7a0260e01b7bffffffffffffffffffffffffffffffffffffffffffffffffffffffff1916817bffffffffffffffffffffffffffffffffffffffffffffffffffffffff1916149150506115ba565b600190505b949350505050565b6000808273ffffffffffffffffffffffffffffffffffffffff163b119050919050565b6000604051905090565b600080fd5b600080fd5b60007fffffffff0000000000000000000000000000000000000000000000000000000082169050919050565b61162e816115f9565b811461163957600080fd5b50565b60008135905061164b81611625565b92915050565b600060208284031215611667576116666115ef565b5b60006116758482850161163c565b91505092915050565b60008115159050919050565b6116938161167e565b82525050565b60006020820190506116ae600083018461168a565b92915050565b600081519050919050565b600082825260208201905092915050565b60005b838110156116ee5780820151818401526020810190506116d3565b838111156116fd576000848401525b50505050565b6000601f19601f8301169050919050565b600061171f826116b4565b61172981856116bf565b93506117398185602086016116d0565b61174281611703565b840191505092915050565b600060208201905081810360008301526117678184611714565b905092915050565b6000819050919050565b6117828161176f565b811461178d57600080fd5b50565b60008135905061179f81611779565b92915050565b6000602082840312156117bb576117ba6115ef565b5b60006117c984828501611790565b91505092915050565b600073ffffffffffffffffffffffffffffffffffffffff82169050919050565b60006117fd826117d2565b9050919050565b61180d816117f2565b82525050565b60006020820190506118286000830184611804565b92915050565b611837816117f2565b811461184257600080fd5b50565b6000813590506118548161182e565b92915050565b60008060408385031215611871576118706115ef565b5b600061187f85828601611845565b925050602061189085828601611790565b9150509250929050565b6000806000606084860312156118b3576118b26115ef565b5b60006118c186828701611845565b93505060206118d286828701611845565b92505060406118e386828701611790565b9150509250925092565b600060208284031215611903576119026115ef565b5b600061191184828501611845565b91505092915050565b6119238161176f565b82525050565b600060208201905061193e600083018461191a565b92915050565b61194d8161167e565b811461195857600080fd5b50565b60008135905061196a81611944565b92915050565b60008060408385031215611987576119866115ef565b5b600061199585828601611845565b92505060206119a68582860161195b565b9150509250929050565b600080fd5b600080fd5b7f4e487b7100000000000000000000000000000000000000000000000000000000600052604160045260246000fd5b6119f282611703565b810181811067ffffffffffffffff82111715611a1157611a106119ba565b5b80604052505050565b6000611a246115e5565b9050611a3082826119e9565b919050565b600067ffffffffffffffff821115611a5057611a4f6119ba565b5b611a5982611703565b9050602081019050919050565b82818337600083830152505050565b6000611a88611a8384611a35565b611a1a565b905082815260208101848484011115611aa457611aa36119b5565b5b611aaf848285611a66565b509392505050565b600082601f830112611acc57611acb6119b0565b5b8135611adc848260208601611a75565b91505092915050565b60008060008060808587031215611aff57611afe6115ef565b5b6000611b0d87828801611845565b9450506020611b1e87828801611845565b9350506040611b2f87828801611790565b925050606085013567ffffffffffffffff811115611b5057611b4f6115f4565b5b611b5c87828801611ab7565b91505092959194509250565b60008060408385031215611b7f57611b7e6115ef565b5b6000611b8d85828601611845565b9250506020611b9e85828601611845565b9150509250929050565b7f4e487b7100000000000000000000000000000000000000000000000000000000600052602260045260246000fd5b60006002820490506001821680611bef57607f821691505b60208210811415611c0357611c02611ba8565b5b50919050565b7f4552433732313a20617070726f76616c20746f2063757272656e74206f776e6560008201527f7200000000000000000000000000000000000000000000000000000000000000602082015250565b6000611c656021836116bf565b9150611c7082611c09565b604082019050919050565b60006020820190508181036000830152611c9481611c58565b9050919050565b7f4552433732313a20617070726f76652063616c6c6572206973206e6f7420746f60008201527f6b656e206f776e6572206e6f7220617070726f76656420666f7220616c6c0000602082015250565b6000611cf7603e836116bf565b9150611d0282611c9b565b604082019050919050565b60006020820190508181036000830152611d2681611cea565b9050919050565b6000604082019050611d42600083018561191a565b611d4f6020830184611804565b9392505050565b7f4552433732313a2063616c6c6572206973206e6f7420746f6b656e206f776e6560008201527f72206e6f7220617070726f766564000000000000000000000000000000000000602082015250565b6000611db2602e836116bf565b9150611dbd82611d56565b604082019050919050565b60006020820190508181036000830152611de181611da5565b9050919050565b7f4552433732313a20696e76616c696420746f6b656e2049440000000000000000600082015250565b6000611e1e6018836116bf565b9150611e2982611de8565b602082019050919050565b60006020820190508181036000830152611e4d81611e11565b9050919050565b7f4552433732313a2061646472657373207a65726f206973206e6f74206120766160008201527f6c6964206f776e65720000000000000000000000000000000000000000000000602082015250565b6000611eb06029836116bf565b9150611ebb82611e54565b604082019050919050565b60006020820190508181036000830152611edf81611ea3565b9050919050565b600081905092915050565b6000611efc826116b4565b611f068185611ee6565b9350611f168185602086016116d0565b80840191505092915050565b6000611f2e8285611ef1565b9150611f3a8284611ef1565b91508190509392505050565b7f4552433732313a206d696e7420746f20746865207a65726f2061646472657373600082015250565b6000611f7c6020836116bf565b9150611f8782611f46565b602082019050919050565b60006020820190508181036000830152611fab81611f6f565b9050919050565b7f4552433732313a20746f6b656e20616c7265616479206d696e74656400000000600082015250565b6000611fe8601c836116bf565b9150611ff382611fb2565b602082019050919050565b6000602082019050818103600083015261201781611fdb565b9050919050565b7f4e487b7100000000000000000000000000000000000000000000000000000000600052601160045260246000fd5b60006120588261176f565b91506120638361176f565b9250827fffffffffffffffffffffffffffffffffffffffffffffffffffffffffffffffff038211156120985761209761201e565b5b828201905092915050565b7f4552433732313a207472616e736665722066726f6d20696e636f72726563742060008201527f6f776e6572000000000000000000000000000000000000000000000000000000602082015250565b60006120ff6025836116bf565b915061210a826120a3565b604082019050919050565b6000602082019050818103600083015261212e816120f2565b9050919050565b7f4552433732313a207472616e7366657220746f20746865207a65726f2061646460008201527f7265737300000000000000000000000000000000000000000000000000000000602082015250565b60006121916024836116bf565b915061219c82612135565b604082019050919050565b600060208201905081810360008301526121c081612184565b9050919050565b60006121d28261176f565b91506121dd8361176f565b9250828210156121f0576121ef61201e565b5b828203905092915050565b7f4552433732313a20617070726f766520746f2063616c6c657200000000000000600082015250565b60006122316019836116bf565b915061223c826121fb565b602082019050919050565b6000602082019050818103600083015261226081612224565b9050919050565b7f4552433732313a207472616e7366657220746f206e6f6e20455243373231526560008201527f63656976657220696d706c656d656e7465720000000000000000000000000000602082015250565b60006122c36032836116bf565b91506122ce82612267565b604082019050919050565b600060208201905081810360008301526122f2816122b6565b9050919050565b60006123048261176f565b91507fffffffffffffffffffffffffffffffffffffffffffffffffffffffffffffffff8214156123375761233661201e565b5b600182019050919050565b7f4e487b7100000000000000000000000000000000000000000000000000000000600052601260045260246000fd5b600061237c8261176f565b91506123878361176f565b92508261239757612396612342565b5b828204905092915050565b60006123ad8261176f565b91506123b88361176f565b9250826123c8576123c7612342565b5b828206905092915050565b7f4e487b7100000000000000000000000000000000000000000000000000000000600052603260045260246000fd5b600081519050919050565b600082825260208201905092915050565b600061242982612402565b612433818561240d565b93506124438185602086016116d0565b61244c81611703565b840191505092915050565b600060808201905061246c6000830187611804565b6124796020830186611804565b612486604083018561191a565b8181036060830152612498818461241e565b905095945050505050565b6000815190506124b281611625565b92915050565b6000602082840312156124ce576124cd6115ef565b5b60006124dc848285016124a3565b9150509291505056fea2646970667358221220e73ac9bbd354b6e57681808ae30b4dea3eab8cb60c08a013a7d96f6638fa18ba64736f6c63430008090033",
  "linkReferences": {},
  "deployedLinkReferences": {}
}