{
  "_format": "hh-sol-artifact-1",
  "contractName": "TicketV2",
  "sourceName": "contracts/ticket/TicketV2.sol",
  "abi": [
    {
      "inputs": [],
      "name": "InvalidAmount",
      "type": "error"
    },
    {
      "inputs": [],
      "name": "InvalidInput",
      "type": "error"
    },
    {
      "inputs": [],
      "name": "Unauthorized",
      "type": "error"
    },
    {
      "inputs": [],
      "name": "Unavailable",
      "type": "error"
    },
    {
      "inputs": [],
      "name": "WinnerAlreadyChosen",
      "type": "error"
    },
    {
      "anonymous": false,
      "inputs": [
        {
          "indexed": true,
          "internalType": "address",
          "name": "owner",
          "type": "address"
        },
        {
          "indexed": true,
          "internalType": "address",
          "name": "approved",
          "type": "address"
        },
        {
          "indexed": true,
          "internalType": "uint256",
          "name": "tokenId",
          "type": "uint256"
        }
      ],
      "name": "Approval",
      "type": "event"
    },
    {
      "anonymous": false,
      "inputs": [
        {
          "indexed": true,
          "internalType": "address",
          "name": "owner",
          "type": "address"
        },
        {
          "indexed": true,
          "internalType": "address",
          "name": "operator",
          "type": "address"
        },
        {
          "indexed": false,
          "internalType": "bool",
          "name": "approved",
          "type": "bool"
        }
      ],
      "name": "ApprovalForAll",
      "type": "event"
    },
    {
      "anonymous": false,
      "inputs": [
        {
          "indexed": false,
          "internalType": "uint256",
          "name": "winningTicket",
          "type": "uint256"
        },
        {
          "indexed": false,
          "internalType": "address",
          "name": "surpriseWinner",
          "type": "address"
        },
        {
          "indexed": false,
          "internalType": "uint256",
          "name": "amount",
          "type": "uint256"
        }
      ],
      "name": "FirstWinnerSelected",
      "type": "event"
    },
    {
      "anonymous": false,
      "inputs": [
        {
          "indexed": false,
          "internalType": "uint8",
          "name": "version",
          "type": "uint8"
        }
      ],
      "name": "Initialized",
      "type": "event"
    },
    {
      "anonymous": false,
      "inputs": [
        {
          "indexed": false,
          "internalType": "uint256",
          "name": "winningTicket",
          "type": "uint256"
        },
        {
          "indexed": false,
          "internalType": "address",
          "name": "winner",
          "type": "address"
        },
        {
          "indexed": false,
          "internalType": "uint256",
          "name": "amount",
          "type": "uint256"
        }
      ],
      "name": "SecondWinnerSelected",
      "type": "event"
    },
    {
      "anonymous": false,
      "inputs": [
        {
          "indexed": true,
          "internalType": "address",
          "name": "sender",
          "type": "address"
        },
        {
          "indexed": false,
          "internalType": "uint256",
          "name": "amount",
          "type": "uint256"
        }
      ],
      "name": "TicketBought",
      "type": "event"
    },
    {
      "anonymous": false,
      "inputs": [
        {
          "indexed": true,
          "internalType": "address",
          "name": "from",
          "type": "address"
        },
        {
          "indexed": true,
          "internalType": "address",
          "name": "to",
          "type": "address"
        },
        {
          "indexed": true,
          "internalType": "uint256",
          "name": "tokenId",
          "type": "uint256"
        }
      ],
      "name": "Transfer",
      "type": "event"
    },
    {
      "inputs": [],
      "name": "TICKET_PRICE",
      "outputs": [
        {
          "internalType": "uint256",
          "name": "",
          "type": "uint256"
        }
      ],
      "stateMutability": "view",
      "type": "function"
    },
    {
      "inputs": [
        {
          "internalType": "address",
          "name": "to",
          "type": "address"
        },
        {
          "internalType": "uint256",
          "name": "tokenId",
          "type": "uint256"
        }
      ],
      "name": "approve",
      "outputs": [],
      "stateMutability": "nonpayable",
      "type": "function"
    },
    {
      "inputs": [
        {
          "internalType": "address",
          "name": "owner",
          "type": "address"
        }
      ],
      "name": "balanceOf",
      "outputs": [
        {
          "internalType": "uint256",
          "name": "",
          "type": "uint256"
        }
      ],
      "stateMutability": "view",
      "type": "function"
    },
    {
      "inputs": [],
      "name": "buyTicket",
      "outputs": [],
      "stateMutability": "payable",
      "type": "function"
    },
    {
      "inputs": [],
      "name": "endBlockNumber",
      "outputs": [
        {
          "internalType": "uint256",
          "name": "",
          "type": "uint256"
        }
      ],
      "stateMutability": "view",
      "type": "function"
    },
    {
      "inputs": [],
      "name": "finished",
      "outputs": [
        {
          "internalType": "bool",
          "name": "",
          "type": "bool"
        }
      ],
      "stateMutability": "view",
      "type": "function"
    },
    {
      "inputs": [],
      "name": "firstWinnerSelected",
      "outputs": [
        {
          "internalType": "bool",
          "name": "",
          "type": "bool"
        }
      ],
      "stateMutability": "view",
      "type": "function"
    },
    {
      "inputs": [
        {
          "internalType": "uint256",
          "name": "tokenId",
          "type": "uint256"
        }
      ],
      "name": "getApproved",
      "outputs": [
        {
          "internalType": "address",
          "name": "",
          "type": "address"
        }
      ],
      "stateMutability": "view",
      "type": "function"
    },
    {
      "inputs": [
        {
          "internalType": "string",
          "name": "_name",
          "type": "string"
        },
        {
          "internalType": "string",
          "name": "_symbol",
          "type": "string"
        },
        {
          "internalType": "uint256",
          "name": "_startBlockNumber",
          "type": "uint256"
        },
        {
          "internalType": "uint256",
          "name": "_endBlockNumber",
          "type": "uint256"
        },
        {
          "internalType": "uint256",
          "name": "ticketPrice",
          "type": "uint256"
        },
        {
          "internalType": "address",
          "name": "_owner",
          "type": "address"
        }
      ],
      "name": "initialize",
      "outputs": [],
      "stateMutability": "nonpayable",
      "type": "function"
    },
    {
      "inputs": [
        {
          "internalType": "address",
          "name": "owner",
          "type": "address"
        },
        {
          "internalType": "address",
          "name": "operator",
          "type": "address"
        }
      ],
      "name": "isApprovedForAll",
      "outputs": [
        {
          "internalType": "bool",
          "name": "",
          "type": "bool"
        }
      ],
      "stateMutability": "view",
      "type": "function"
    },
    {
      "inputs": [],
      "name": "name",
      "outputs": [
        {
          "internalType": "string",
          "name": "",
          "type": "string"
        }
      ],
      "stateMutability": "view",
      "type": "function"
    },
    {
      "inputs": [],
      "name": "owner",
      "outputs": [
        {
          "internalType": "address",
          "name": "",
          "type": "address"
        }
      ],
      "stateMutability": "view",
      "type": "function"
    },
    {
      "inputs": [
        {
          "internalType": "uint256",
          "name": "tokenId",
          "type": "uint256"
        }
      ],
      "name": "ownerOf",
      "outputs": [
        {
          "internalType": "address",
          "name": "",
          "type": "address"
        }
      ],
      "stateMutability": "view",
      "type": "function"
    },
    {
      "inputs": [],
      "name": "pickFirstWinner",
      "outputs": [],
      "stateMutability": "nonpayable",
      "type": "function"
    },
    {
      "inputs": [],
      "name": "pickSecondWinner",
      "outputs": [],
      "stateMutability": "nonpayable",
      "type": "function"
    },
    {
      "inputs": [],
      "name": "rewardPool",
      "outputs": [
        {
          "internalType": "uint256",
          "name": "",
          "type": "uint256"
        }
      ],
      "stateMutability": "view",
      "type": "function"
    },
    {
      "inputs": [
        {
          "internalType": "address",
          "name": "from",
          "type": "address"
        },
        {
          "internalType": "address",
          "name": "to",
          "type": "address"
        },
        {
          "internalType": "uint256",
          "name": "tokenId",
          "type": "uint256"
        }
      ],
      "name": "safeTransferFrom",
      "outputs": [],
      "stateMutability": "nonpayable",
      "type": "function"
    },
    {
      "inputs": [
        {
          "internalType": "address",
          "name": "from",
          "type": "address"
        },
        {
          "internalType": "address",
          "name": "to",
          "type": "address"
        },
        {
          "internalType": "uint256",
          "name": "tokenId",
          "type": "uint256"
        },
        {
          "internalType": "bytes",
          "name": "data",
          "type": "bytes"
        }
      ],
      "name": "safeTransferFrom",
      "outputs": [],
      "stateMutability": "nonpayable",
      "type": "function"
    },
    {
      "inputs": [],
      "name": "secondWinnerSelected",
      "outputs": [
        {
          "internalType": "bool",
          "name": "",
          "type": "bool"
        }
      ],
      "stateMutability": "view",
      "type": "function"
    },
    {
      "inputs": [
        {
          "internalType": "address",
          "name": "operator",
          "type": "address"
        },
        {
          "internalType": "bool",
          "name": "approved",
          "type": "bool"
        }
      ],
      "name": "setApprovalForAll",
      "outputs": [],
      "stateMutability": "nonpayable",
      "type": "function"
    },
    {
      "inputs": [],
      "name": "startBlockNumber",
      "outputs": [
        {
          "internalType": "uint256",
          "name": "",
          "type": "uint256"
        }
      ],
      "stateMutability": "view",
      "type": "function"
    },
    {
      "inputs": [],
      "name": "started",
      "outputs": [
        {
          "internalType": "bool",
          "name": "",
          "type": "bool"
        }
      ],
      "stateMutability": "view",
      "type": "function"
    },
    {
      "inputs": [
        {
          "internalType": "bytes4",
          "name": "interfaceId",
          "type": "bytes4"
        }
      ],
      "name": "supportsInterface",
      "outputs": [
        {
          "internalType": "bool",
          "name": "",
          "type": "bool"
        }
      ],
      "stateMutability": "view",
      "type": "function"
    },
    {
      "inputs": [],
      "name": "symbol",
      "outputs": [
        {
          "internalType": "string",
          "name": "",
          "type": "string"
        }
      ],
      "stateMutability": "view",
      "type": "function"
    },
    {
      "inputs": [],
      "name": "tester",
      "outputs": [
        {
          "internalType": "string",
          "name": "",
          "type": "string"
        }
      ],
      "stateMutability": "view",
      "type": "function"
    },
    {
      "inputs": [],
      "name": "ticketIds",
      "outputs": [
        {
          "internalType": "uint256",
          "name": "_value",
          "type": "uint256"
        }
      ],
      "stateMutability": "view",
      "type": "function"
    },
    {
      "inputs": [
        {
          "internalType": "uint256",
          "name": "",
          "type": "uint256"
        }
      ],
      "name": "ticketIdsToParticipants",
      "outputs": [
        {
          "internalType": "address",
          "name": "",
          "type": "address"
        }
      ],
      "stateMutability": "view",
      "type": "function"
    },
    {
      "inputs": [
        {
          "internalType": "uint256",
          "name": "tokenId",
          "type": "uint256"
        }
      ],
      "name": "tokenURI",
      "outputs": [
        {
          "internalType": "string",
          "name": "",
          "type": "string"
        }
      ],
      "stateMutability": "view",
      "type": "function"
    },
    {
      "inputs": [
        {
          "internalType": "address",
          "name": "from",
          "type": "address"
        },
        {
          "internalType": "address",
          "name": "to",
          "type": "address"
        },
        {
          "internalType": "uint256",
          "name": "tokenId",
          "type": "uint256"
        }
      ],
      "name": "transferFrom",
      "outputs": [],
      "stateMutability": "nonpayable",
      "type": "function"
    }
  ],
  "bytecode": "0x60806040526040518060400160405280600481526020017f617364660000000000000000000000000000000000000000000000000000000081525060d19080519060200190620000519291906200006e565b503480156200005f57600080fd5b50600160008190555062000183565b8280546200007c906200014d565b90600052602060002090601f016020900481019282620000a05760008555620000ec565b82601f10620000bb57805160ff1916838001178555620000ec565b82800160010185558215620000ec579182015b82811115620000eb578251825591602001919060010190620000ce565b5b509050620000fb9190620000ff565b5090565b5b808211156200011a57600081600090555060010162000100565b5090565b7f4e487b7100000000000000000000000000000000000000000000000000000000600052602260045260246000fd5b600060028204905060018216806200016657607f821691505b602082108114156200017d576200017c6200011e565b5b50919050565b613ac380620001936000396000f3fe6080604052600436106101c25760003560e01c80638308abd4116100f7578063a650752711610095578063c87b56dd11610064578063c87b56dd14610620578063e985e9c51461065d578063edca914c1461069a578063f087b078146106a4576101c2565b8063a650752714610578578063b4999e85146105a1578063b88d4fde146105cc578063bef4876b146105f5576101c2565b80639430431a116100d15780639430431a146104ce57806395d89b41146104f9578063994a2ef414610524578063a22cb4651461054f576101c2565b80638308abd41461046157806389bd061d1461048c5780638da5cb5b146104a3576101c2565b80633e2a14f1116101645780636352211e1161013e5780636352211e1461037f57806366666aa9146103bc578063681cda2a146103e757806370a0823114610424576101c2565b80633e2a14f11461031457806342842e0e1461032b578063498a4c2d14610354576101c2565b8063095ea7b3116101a0578063095ea7b31461026c5780631a95f15f146102955780631f2698ab146102c057806323b872dd146102eb576101c2565b806301ffc9a7146101c757806306fdde0314610204578063081812fc1461022f575b600080fd5b3480156101d357600080fd5b506101ee60048036038101906101e99190612836565b6106cf565b6040516101fb919061287e565b60405180910390f35b34801561021057600080fd5b506102196107b1565b6040516102269190612932565b60405180910390f35b34801561023b57600080fd5b506102566004803603810190610251919061298a565b610843565b60405161026391906129f8565b60405180910390f35b34801561027857600080fd5b50610293600480360381019061028e9190612a3f565b610889565b005b3480156102a157600080fd5b506102aa6109a1565b6040516102b79190612a8e565b60405180910390f35b3480156102cc57600080fd5b506102d56109a7565b6040516102e2919061287e565b60405180910390f35b3480156102f757600080fd5b50610312600480360381019061030d9190612aa9565b6109c7565b005b34801561032057600080fd5b50610329610a27565b005b34801561033757600080fd5b50610352600480360381019061034d9190612aa9565b610c1e565b005b34801561036057600080fd5b50610369610c3e565b6040516103769190612a8e565b60405180910390f35b34801561038b57600080fd5b506103a660048036038101906103a1919061298a565b610c44565b6040516103b391906129f8565b60405180910390f35b3480156103c857600080fd5b506103d1610cf6565b6040516103de9190612a8e565b60405180910390f35b3480156103f357600080fd5b5061040e6004803603810190610409919061298a565b610cfc565b60405161041b91906129f8565b60405180910390f35b34801561043057600080fd5b5061044b60048036038101906104469190612afc565b610d2f565b6040516104589190612a8e565b60405180910390f35b34801561046d57600080fd5b50610476610de7565b6040516104839190612932565b60405180910390f35b34801561049857600080fd5b506104a1610e75565b005b3480156104af57600080fd5b506104b86110a9565b6040516104c591906129f8565b60405180910390f35b3480156104da57600080fd5b506104e36110cf565b6040516104f0919061287e565b60405180910390f35b34801561050557600080fd5b5061050e6110e2565b60405161051b9190612932565b60405180910390f35b34801561053057600080fd5b50610539611174565b604051610546919061287e565b60405180910390f35b34801561055b57600080fd5b5061057660048036038101906105719190612b55565b611187565b005b34801561058457600080fd5b5061059f600480360381019061059a9190612bfa565b61119d565b005b3480156105ad57600080fd5b506105b6611466565b6040516105c39190612a8e565b60405180910390f35b3480156105d857600080fd5b506105f360048036038101906105ee9190612df9565b61146c565b005b34801561060157600080fd5b5061060a6114ce565b604051610617919061287e565b60405180910390f35b34801561062c57600080fd5b506106476004803603810190610642919061298a565b6114ee565b6040516106549190612932565b60405180910390f35b34801561066957600080fd5b50610684600480360381019061067f9190612e7c565b611601565b604051610691919061287e565b60405180910390f35b6106a2611695565b005b3480156106b057600080fd5b506106b9611809565b6040516106c69190612a8e565b60405180910390f35b60007f80ac58cd000000000000000000000000000000000000000000000000000000007bffffffffffffffffffffffffffffffffffffffffffffffffffffffff1916827bffffffffffffffffffffffffffffffffffffffffffffffffffffffff1916148061079a57507f5b5e139f000000000000000000000000000000000000000000000000000000007bffffffffffffffffffffffffffffffffffffffffffffffffffffffff1916827bffffffffffffffffffffffffffffffffffffffffffffffffffffffff1916145b806107aa57506107a982611815565b5b9050919050565b6060606680546107c090612eeb565b80601f01602080910402602001604051908101604052809291908181526020018280546107ec90612eeb565b80156108395780601f1061080e57610100808354040283529160200191610839565b820191906000526020600020905b81548152906001019060200180831161081c57829003601f168201915b5050505050905090565b600061084e8261187f565b606a600083815260200190815260200160002060009054906101000a900473ffffffffffffffffffffffffffffffffffffffff169050919050565b600061089482610c44565b90508073ffffffffffffffffffffffffffffffffffffffff168373ffffffffffffffffffffffffffffffffffffffff161415610905576040517f08c379a00000000000000000000000000000000000000000000000000000000081526004016108fc90612f8f565b60405180910390fd5b8073ffffffffffffffffffffffffffffffffffffffff166109246118ca565b73ffffffffffffffffffffffffffffffffffffffff16148061095357506109528161094d6118ca565b611601565b5b610992576040517f08c379a000000000000000000000000000000000000000000000000000000000815260040161098990613021565b60405180910390fd5b61099c83836118d2565b505050565b60ce5481565b60008060cb5414156109bc57600090506109c4565b60cb54431190505b90565b6109d86109d26118ca565b8261198b565b610a17576040517f08c379a0000000000000000000000000000000000000000000000000000000008152600401610a0e906130b3565b60405180910390fd5b610a22838383611a20565b505050565b60cf60029054906101000a900473ffffffffffffffffffffffffffffffffffffffff1673ffffffffffffffffffffffffffffffffffffffff163373ffffffffffffffffffffffffffffffffffffffff1614610aae576040517f82b4290000000000000000000000000000000000000000000000000000000000815260040160405180910390fd5b600073ffffffffffffffffffffffffffffffffffffffff1660d0600080815260200190815260200160002060009054906101000a900473ffffffffffffffffffffffffffffffffffffffff1673ffffffffffffffffffffffffffffffffffffffff161415610b48576040517fa3b8915f00000000000000000000000000000000000000000000000000000000815260040160405180910390fd5b60cf60009054906101000a900460ff1615610b8f576040517f47d0ee1000000000000000000000000000000000000000000000000000000000815260040160405180910390fd5b600080610ba9600260cd54610ba49190613131565b611c87565b91509150600260cd54610bbc9190613131565b60cd81905550600160cf60006101000a81548160ff0219169083151502179055507f1f30201e0af66a3efb9cb898df14e919ae31fbae411e4a4e499677f8e2202b04828260cd54604051610c1293929190613162565b60405180910390a15050565b610c398383836040518060200160405280600081525061146c565b505050565b60cb5481565b6000806068600084815260200190815260200160002060009054906101000a900473ffffffffffffffffffffffffffffffffffffffff169050600073ffffffffffffffffffffffffffffffffffffffff168173ffffffffffffffffffffffffffffffffffffffff161415610ced576040517f08c379a0000000000000000000000000000000000000000000000000000000008152600401610ce4906131e5565b60405180910390fd5b80915050919050565b60cd5481565b60d06020528060005260406000206000915054906101000a900473ffffffffffffffffffffffffffffffffffffffff1681565b60008073ffffffffffffffffffffffffffffffffffffffff168273ffffffffffffffffffffffffffffffffffffffff161415610da0576040517f08c379a0000000000000000000000000000000000000000000000000000000008152600401610d9790613277565b60405180910390fd5b606960008373ffffffffffffffffffffffffffffffffffffffff1673ffffffffffffffffffffffffffffffffffffffff168152602001908152602001600020549050919050565b60d18054610df490612eeb565b80601f0160208091040260200160405190810160405280929190818152602001828054610e2090612eeb565b8015610e6d5780601f10610e4257610100808354040283529160200191610e6d565b820191906000526020600020905b815481529060010190602001808311610e5057829003601f168201915b505050505081565b60cf60029054906101000a900473ffffffffffffffffffffffffffffffffffffffff1673ffffffffffffffffffffffffffffffffffffffff163373ffffffffffffffffffffffffffffffffffffffff1614610efc576040517f82b4290000000000000000000000000000000000000000000000000000000000815260040160405180910390fd5b60cc5480431015610f39576040517fa3b8915f00000000000000000000000000000000000000000000000000000000815260040160405180910390fd5b600073ffffffffffffffffffffffffffffffffffffffff1660d0600080815260200190815260200160002060009054906101000a900473ffffffffffffffffffffffffffffffffffffffff1673ffffffffffffffffffffffffffffffffffffffff161480610fb4575060cf60009054906101000a900460ff16155b15610feb576040517fa3b8915f00000000000000000000000000000000000000000000000000000000815260040160405180910390fd5b60cf60019054906101000a900460ff1615611032576040517f47d0ee1000000000000000000000000000000000000000000000000000000000815260040160405180910390fd5b60008061104060cd54611c87565b91509150600160cf60016101000a81548160ff0219169083151502179055507f02fbddc68bf1137841a96ce9501e9e118e5064f54cca1f1d8003a97cb9be8e91828260cd5460405161109493929190613162565b60405180910390a1600060cd81905550505050565b60cf60029054906101000a900473ffffffffffffffffffffffffffffffffffffffff1681565b60cf60009054906101000a900460ff1681565b6060606780546110f190612eeb565b80601f016020809104026020016040519081016040528092919081815260200182805461111d90612eeb565b801561116a5780601f1061113f5761010080835404028352916020019161116a565b820191906000526020600020905b81548152906001019060200180831161114d57829003601f168201915b5050505050905090565b60cf60019054906101000a900460ff1681565b6111996111926118ca565b8383611d2c565b5050565b600060018054906101000a900460ff161590508080156111ce575060018060009054906101000a900460ff1660ff16105b806111fc57506111dd30611e99565b1580156111fb575060018060009054906101000a900460ff1660ff16145b5b61123b576040517f08c379a000000000000000000000000000000000000000000000000000000000815260040161123290613309565b60405180910390fd5b60018060006101000a81548160ff021916908360ff16021790555080156112775760018060016101000a81548160ff0219169083151502179055505b600089899050148061128c5750600087879050145b8061129657504385105b806112a057508484105b806112ac575060008311155b806112e35750600073ffffffffffffffffffffffffffffffffffffffff168273ffffffffffffffffffffffffffffffffffffffff16145b1561131a576040517fb4fa3fb300000000000000000000000000000000000000000000000000000000815260040160405180910390fd5b6113ac89898080601f016020809104026020016040519081016040528093929190818152602001838380828437600081840152601f19601f8201169050808301925050505050505088888080601f016020809104026020016040519081016040528093929190818152602001838380828437600081840152601f19601f82011690508083019250505050505050611ebc565b8460cb819055508360cc819055508260ce819055508160cf60026101000a81548173ffffffffffffffffffffffffffffffffffffffff021916908373ffffffffffffffffffffffffffffffffffffffff160217905550801561145b5760006001806101000a81548160ff0219169083151502179055507f7f26b83ff96e1f2b6a682f133852f6798a09c465da95921460cefb38474024986001604051611452919061337b565b60405180910390a15b505050505050505050565b60cc5481565b61147d6114776118ca565b8361198b565b6114bc576040517f08c379a00000000000000000000000000000000000000000000000000000000081526004016114b3906130b3565b60405180910390fd5b6114c884848484611f17565b50505050565b60008060cc5414156114e357600090506114eb565b60cc54431190505b90565b60606114f98261187f565b600060986000848152602001908152602001600020805461151990612eeb565b80601f016020809104026020016040519081016040528092919081815260200182805461154590612eeb565b80156115925780601f1061156757610100808354040283529160200191611592565b820191906000526020600020905b81548152906001019060200180831161157557829003601f168201915b5050505050905060006115a3611f73565b90506000815114156115b95781925050506115fc565b6000825111156115ee5780826040516020016115d69291906133d2565b604051602081830303815290604052925050506115fc565b6115f784611f8a565b925050505b919050565b6000606b60008473ffffffffffffffffffffffffffffffffffffffff1673ffffffffffffffffffffffffffffffffffffffff16815260200190815260200160002060008373ffffffffffffffffffffffffffffffffffffffff1673ffffffffffffffffffffffffffffffffffffffff16815260200190815260200160002060009054906101000a900460ff16905092915050565b60cb54804310156116d2576040517fa3b8915f00000000000000000000000000000000000000000000000000000000815260040160405180910390fd5b60cc548043111561170f576040517fa3b8915f00000000000000000000000000000000000000000000000000000000815260040160405180910390fd5b60ce54341461174a576040517f2c5211c600000000000000000000000000000000000000000000000000000000815260040160405180910390fd5b611752611ff2565b3360d0600061176160ca612020565b815260200190815260200160002060006101000a81548173ffffffffffffffffffffffffffffffffffffffff021916908373ffffffffffffffffffffffffffffffffffffffff1602179055506117b760ca61202e565b3373ffffffffffffffffffffffffffffffffffffffff167f985d112c54c7518a49841fc37640d9ded60112ea7370ca9129c8ed33c3607bc7346040516117fd9190612a8e565b60405180910390a25050565b60ca8060000154905081565b60007f01ffc9a7000000000000000000000000000000000000000000000000000000007bffffffffffffffffffffffffffffffffffffffffffffffffffffffff1916827bffffffffffffffffffffffffffffffffffffffffffffffffffffffff1916149050919050565b61188881612044565b6118c7576040517f08c379a00000000000000000000000000000000000000000000000000000000081526004016118be906131e5565b60405180910390fd5b50565b600033905090565b81606a600083815260200190815260200160002060006101000a81548173ffffffffffffffffffffffffffffffffffffffff021916908373ffffffffffffffffffffffffffffffffffffffff160217905550808273ffffffffffffffffffffffffffffffffffffffff1661194583610c44565b73ffffffffffffffffffffffffffffffffffffffff167f8c5be1e5ebec7d5bd14f71427d1e84f3dd0314c0f7b2291e5b200ac8c7c3b92560405160405180910390a45050565b60008061199783610c44565b90508073ffffffffffffffffffffffffffffffffffffffff168473ffffffffffffffffffffffffffffffffffffffff1614806119d957506119d88185611601565b5b80611a1757508373ffffffffffffffffffffffffffffffffffffffff166119ff84610843565b73ffffffffffffffffffffffffffffffffffffffff16145b91505092915050565b8273ffffffffffffffffffffffffffffffffffffffff16611a4082610c44565b73ffffffffffffffffffffffffffffffffffffffff1614611a96576040517f08c379a0000000000000000000000000000000000000000000000000000000008152600401611a8d90613468565b60405180910390fd5b600073ffffffffffffffffffffffffffffffffffffffff168273ffffffffffffffffffffffffffffffffffffffff161415611b06576040517f08c379a0000000000000000000000000000000000000000000000000000000008152600401611afd906134fa565b60405180910390fd5b611b118383836120b0565b611b1c6000826118d2565b6001606960008573ffffffffffffffffffffffffffffffffffffffff1673ffffffffffffffffffffffffffffffffffffffff1681526020019081526020016000206000828254611b6c919061351a565b925050819055506001606960008473ffffffffffffffffffffffffffffffffffffffff1673ffffffffffffffffffffffffffffffffffffffff1681526020019081526020016000206000828254611bc3919061354e565b92505081905550816068600083815260200190815260200160002060006101000a81548173ffffffffffffffffffffffffffffffffffffffff021916908373ffffffffffffffffffffffffffffffffffffffff160217905550808273ffffffffffffffffffffffffffffffffffffffff168473ffffffffffffffffffffffffffffffffffffffff167fddf252ad1be2c89b69c2b068fc378daa952ba7f163c4a11628f55a4df523b3ef60405160405180910390a4611c828383836120b5565b505050565b6000806000611c9e611c9960ca612020565b6120ba565b9050600060d0600083815260200190815260200160002060009054906101000a900473ffffffffffffffffffffffffffffffffffffffff1690508073ffffffffffffffffffffffffffffffffffffffff166108fc869081150290604051600060405180830381858888f19350505050158015611d1e573d6000803e3d6000fd5b508181935093505050915091565b8173ffffffffffffffffffffffffffffffffffffffff168373ffffffffffffffffffffffffffffffffffffffff161415611d9b576040517f08c379a0000000000000000000000000000000000000000000000000000000008152600401611d92906135f0565b60405180910390fd5b80606b60008573ffffffffffffffffffffffffffffffffffffffff1673ffffffffffffffffffffffffffffffffffffffff16815260200190815260200160002060008473ffffffffffffffffffffffffffffffffffffffff1673ffffffffffffffffffffffffffffffffffffffff16815260200190815260200160002060006101000a81548160ff0219169083151502179055508173ffffffffffffffffffffffffffffffffffffffff168373ffffffffffffffffffffffffffffffffffffffff167f17307eab39ab6107e8899845ad3d59bd9653f200f220920489ca2b5937696c3183604051611e8c919061287e565b60405180910390a3505050565b6000808273ffffffffffffffffffffffffffffffffffffffff163b119050919050565b60018054906101000a900460ff16611f09576040517f08c379a0000000000000000000000000000000000000000000000000000000008152600401611f0090613682565b60405180910390fd5b611f1382826121d6565b5050565b611f22848484611a20565b611f2e84848484612255565b611f6d576040517f08c379a0000000000000000000000000000000000000000000000000000000008152600401611f6490613714565b60405180910390fd5b50505050565b606060405180602001604052806000815250905090565b6060611f958261187f565b6000611f9f611f73565b90506000815111611fbf5760405180602001604052806000815250611fea565b80611fc9846123ec565b604051602001611fda9291906133d2565b6040516020818303038152906040525b915050919050565b6120053361200060ca612020565b61254d565b3460cd6000828254612017919061354e565b92505081905550565b600081600001549050919050565b6001816000016000828254019250508190555050565b60008073ffffffffffffffffffffffffffffffffffffffff166068600084815260200190815260200160002060009054906101000a900473ffffffffffffffffffffffffffffffffffffffff1673ffffffffffffffffffffffffffffffffffffffff1614159050919050565b505050565b505050565b60008082116120f5576040517fb4fa3fb300000000000000000000000000000000000000000000000000000000815260040160405180910390fd5b600043423360405160200161210a919061377c565b6040516020818303038152906040528051906020012060001c61212d9190613131565b45424160405160200161214091906137d2565b6040516020818303038152906040528051906020012060001c6121639190613131565b444261216f919061354e565b612179919061354e565b612183919061354e565b61218d919061354e565b612197919061354e565b6040516020016121a7919061380e565b6040516020818303038152906040528051906020012060001c905082816121ce9190613829565b915050919050565b60018054906101000a900460ff16612223576040517f08c379a000000000000000000000000000000000000000000000000000000000815260040161221a90613682565b60405180910390fd5b8160669080519060200190612239929190612727565b508060679080519060200190612250929190612727565b505050565b60006122768473ffffffffffffffffffffffffffffffffffffffff16611e99565b156123df578373ffffffffffffffffffffffffffffffffffffffff1663150b7a0261229f6118ca565b8786866040518563ffffffff1660e01b81526004016122c194939291906138af565b602060405180830381600087803b1580156122db57600080fd5b505af192505050801561230c57506040513d601f19601f820116820180604052508101906123099190613910565b60015b61238f573d806000811461233c576040519150601f19603f3d011682016040523d82523d6000602084013e612341565b606091505b50600081511415612387576040517f08c379a000000000000000000000000000000000000000000000000000000000815260040161237e90613714565b60405180910390fd5b805181602001fd5b63150b7a0260e01b7bffffffffffffffffffffffffffffffffffffffffffffffffffffffff1916817bffffffffffffffffffffffffffffffffffffffffffffffffffffffff1916149150506123e4565b600190505b949350505050565b60606000821415612434576040518060400160405280600181526020017f30000000000000000000000000000000000000000000000000000000000000008152509050612548565b600082905060005b6000821461246657808061244f9061393d565b915050600a8261245f9190613131565b915061243c565b60008167ffffffffffffffff81111561248257612481612cce565b5b6040519080825280601f01601f1916602001820160405280156124b45781602001600182028036833780820191505090505b5090505b60008514612541576001826124cd919061351a565b9150600a856124dc9190613829565b60306124e8919061354e565b60f81b8183815181106124fe576124fd613986565b5b60200101907effffffffffffffffffffffffffffffffffffffffffffffffffffffffffffff1916908160001a905350600a8561253a9190613131565b94506124b8565b8093505050505b919050565b600073ffffffffffffffffffffffffffffffffffffffff168273ffffffffffffffffffffffffffffffffffffffff1614156125bd576040517f08c379a00000000000000000000000000000000000000000000000000000000081526004016125b490613a01565b60405180910390fd5b6125c681612044565b15612606576040517f08c379a00000000000000000000000000000000000000000000000000000000081526004016125fd90613a6d565b60405180910390fd5b612612600083836120b0565b6001606960008473ffffffffffffffffffffffffffffffffffffffff1673ffffffffffffffffffffffffffffffffffffffff1681526020019081526020016000206000828254612662919061354e565b92505081905550816068600083815260200190815260200160002060006101000a81548173ffffffffffffffffffffffffffffffffffffffff021916908373ffffffffffffffffffffffffffffffffffffffff160217905550808273ffffffffffffffffffffffffffffffffffffffff16600073ffffffffffffffffffffffffffffffffffffffff167fddf252ad1be2c89b69c2b068fc378daa952ba7f163c4a11628f55a4df523b3ef60405160405180910390a4612723600083836120b5565b5050565b82805461273390612eeb565b90600052602060002090601f016020900481019282612755576000855561279c565b82601f1061276e57805160ff191683800117855561279c565b8280016001018555821561279c579182015b8281111561279b578251825591602001919060010190612780565b5b5090506127a991906127ad565b5090565b5b808211156127c65760008160009055506001016127ae565b5090565b6000604051905090565b600080fd5b600080fd5b60007fffffffff0000000000000000000000000000000000000000000000000000000082169050919050565b612813816127de565b811461281e57600080fd5b50565b6000813590506128308161280a565b92915050565b60006020828403121561284c5761284b6127d4565b5b600061285a84828501612821565b91505092915050565b60008115159050919050565b61287881612863565b82525050565b6000602082019050612893600083018461286f565b92915050565b600081519050919050565b600082825260208201905092915050565b60005b838110156128d35780820151818401526020810190506128b8565b838111156128e2576000848401525b50505050565b6000601f19601f8301169050919050565b600061290482612899565b61290e81856128a4565b935061291e8185602086016128b5565b612927816128e8565b840191505092915050565b6000602082019050818103600083015261294c81846128f9565b905092915050565b6000819050919050565b61296781612954565b811461297257600080fd5b50565b6000813590506129848161295e565b92915050565b6000602082840312156129a05761299f6127d4565b5b60006129ae84828501612975565b91505092915050565b600073ffffffffffffffffffffffffffffffffffffffff82169050919050565b60006129e2826129b7565b9050919050565b6129f2816129d7565b82525050565b6000602082019050612a0d60008301846129e9565b92915050565b612a1c816129d7565b8114612a2757600080fd5b50565b600081359050612a3981612a13565b92915050565b60008060408385031215612a5657612a556127d4565b5b6000612a6485828601612a2a565b9250506020612a7585828601612975565b9150509250929050565b612a8881612954565b82525050565b6000602082019050612aa36000830184612a7f565b92915050565b600080600060608486031215612ac257612ac16127d4565b5b6000612ad086828701612a2a565b9350506020612ae186828701612a2a565b9250506040612af286828701612975565b9150509250925092565b600060208284031215612b1257612b116127d4565b5b6000612b2084828501612a2a565b91505092915050565b612b3281612863565b8114612b3d57600080fd5b50565b600081359050612b4f81612b29565b92915050565b60008060408385031215612b6c57612b6b6127d4565b5b6000612b7a85828601612a2a565b9250506020612b8b85828601612b40565b9150509250929050565b600080fd5b600080fd5b600080fd5b60008083601f840112612bba57612bb9612b95565b5b8235905067ffffffffffffffff811115612bd757612bd6612b9a565b5b602083019150836001820283011115612bf357612bf2612b9f565b5b9250929050565b60008060008060008060008060c0898b031215612c1a57612c196127d4565b5b600089013567ffffffffffffffff811115612c3857612c376127d9565b5b612c448b828c01612ba4565b9850985050602089013567ffffffffffffffff811115612c6757612c666127d9565b5b612c738b828c01612ba4565b96509650506040612c868b828c01612975565b9450506060612c978b828c01612975565b9350506080612ca88b828c01612975565b92505060a0612cb98b828c01612a2a565b9150509295985092959890939650565b600080fd5b7f4e487b7100000000000000000000000000000000000000000000000000000000600052604160045260246000fd5b612d06826128e8565b810181811067ffffffffffffffff82111715612d2557612d24612cce565b5b80604052505050565b6000612d386127ca565b9050612d448282612cfd565b919050565b600067ffffffffffffffff821115612d6457612d63612cce565b5b612d6d826128e8565b9050602081019050919050565b82818337600083830152505050565b6000612d9c612d9784612d49565b612d2e565b905082815260208101848484011115612db857612db7612cc9565b5b612dc3848285612d7a565b509392505050565b600082601f830112612de057612ddf612b95565b5b8135612df0848260208601612d89565b91505092915050565b60008060008060808587031215612e1357612e126127d4565b5b6000612e2187828801612a2a565b9450506020612e3287828801612a2a565b9350506040612e4387828801612975565b925050606085013567ffffffffffffffff811115612e6457612e636127d9565b5b612e7087828801612dcb565b91505092959194509250565b60008060408385031215612e9357612e926127d4565b5b6000612ea185828601612a2a565b9250506020612eb285828601612a2a565b9150509250929050565b7f4e487b7100000000000000000000000000000000000000000000000000000000600052602260045260246000fd5b60006002820490506001821680612f0357607f821691505b60208210811415612f1757612f16612ebc565b5b50919050565b7f4552433732313a20617070726f76616c20746f2063757272656e74206f776e6560008201527f7200000000000000000000000000000000000000000000000000000000000000602082015250565b6000612f796021836128a4565b9150612f8482612f1d565b604082019050919050565b60006020820190508181036000830152612fa881612f6c565b9050919050565b7f4552433732313a20617070726f76652063616c6c6572206973206e6f7420746f60008201527f6b656e206f776e6572206e6f7220617070726f76656420666f7220616c6c0000602082015250565b600061300b603e836128a4565b915061301682612faf565b604082019050919050565b6000602082019050818103600083015261303a81612ffe565b9050919050565b7f4552433732313a2063616c6c6572206973206e6f7420746f6b656e206f776e6560008201527f72206e6f7220617070726f766564000000000000000000000000000000000000602082015250565b600061309d602e836128a4565b91506130a882613041565b604082019050919050565b600060208201905081810360008301526130cc81613090565b9050919050565b7f4e487b7100000000000000000000000000000000000000000000000000000000600052601260045260246000fd5b7f4e487b7100000000000000000000000000000000000000000000000000000000600052601160045260246000fd5b600061313c82612954565b915061314783612954565b925082613157576131566130d3565b5b828204905092915050565b60006060820190506131776000830186612a7f565b61318460208301856129e9565b6131916040830184612a7f565b949350505050565b7f4552433732313a20696e76616c696420746f6b656e2049440000000000000000600082015250565b60006131cf6018836128a4565b91506131da82613199565b602082019050919050565b600060208201905081810360008301526131fe816131c2565b9050919050565b7f4552433732313a2061646472657373207a65726f206973206e6f74206120766160008201527f6c6964206f776e65720000000000000000000000000000000000000000000000602082015250565b60006132616029836128a4565b915061326c82613205565b604082019050919050565b6000602082019050818103600083015261329081613254565b9050919050565b7f496e697469616c697a61626c653a20636f6e747261637420697320616c72656160008201527f647920696e697469616c697a6564000000000000000000000000000000000000602082015250565b60006132f3602e836128a4565b91506132fe82613297565b604082019050919050565b60006020820190508181036000830152613322816132e6565b9050919050565b6000819050919050565b600060ff82169050919050565b6000819050919050565b600061336561336061335b84613329565b613340565b613333565b9050919050565b6133758161334a565b82525050565b6000602082019050613390600083018461336c565b92915050565b600081905092915050565b60006133ac82612899565b6133b68185613396565b93506133c68185602086016128b5565b80840191505092915050565b60006133de82856133a1565b91506133ea82846133a1565b91508190509392505050565b7f4552433732313a207472616e736665722066726f6d20696e636f72726563742060008201527f6f776e6572000000000000000000000000000000000000000000000000000000602082015250565b60006134526025836128a4565b915061345d826133f6565b604082019050919050565b6000602082019050818103600083015261348181613445565b9050919050565b7f4552433732313a207472616e7366657220746f20746865207a65726f2061646460008201527f7265737300000000000000000000000000000000000000000000000000000000602082015250565b60006134e46024836128a4565b91506134ef82613488565b604082019050919050565b60006020820190508181036000830152613513816134d7565b9050919050565b600061352582612954565b915061353083612954565b92508282101561354357613542613102565b5b828203905092915050565b600061355982612954565b915061356483612954565b9250827fffffffffffffffffffffffffffffffffffffffffffffffffffffffffffffffff0382111561359957613598613102565b5b828201905092915050565b7f4552433732313a20617070726f766520746f2063616c6c657200000000000000600082015250565b60006135da6019836128a4565b91506135e5826135a4565b602082019050919050565b60006020820190508181036000830152613609816135cd565b9050919050565b7f496e697469616c697a61626c653a20636f6e7472616374206973206e6f74206960008201527f6e697469616c697a696e67000000000000000000000000000000000000000000602082015250565b600061366c602b836128a4565b915061367782613610565b604082019050919050565b6000602082019050818103600083015261369b8161365f565b9050919050565b7f4552433732313a207472616e7366657220746f206e6f6e20455243373231526560008201527f63656976657220696d706c656d656e7465720000000000000000000000000000602082015250565b60006136fe6032836128a4565b9150613709826136a2565b604082019050919050565b6000602082019050818103600083015261372d816136f1565b9050919050565b60008160601b9050919050565b600061374c82613734565b9050919050565b600061375e82613741565b9050919050565b613776613771826129d7565b613753565b82525050565b60006137888284613765565b60148201915081905092915050565b60006137a2826129b7565b9050919050565b60006137b482613741565b9050919050565b6137cc6137c782613797565b6137a9565b82525050565b60006137de82846137bb565b60148201915081905092915050565b6000819050919050565b61380861380382612954565b6137ed565b82525050565b600061381a82846137f7565b60208201915081905092915050565b600061383482612954565b915061383f83612954565b92508261384f5761384e6130d3565b5b828206905092915050565b600081519050919050565b600082825260208201905092915050565b60006138818261385a565b61388b8185613865565b935061389b8185602086016128b5565b6138a4816128e8565b840191505092915050565b60006080820190506138c460008301876129e9565b6138d160208301866129e9565b6138de6040830185612a7f565b81810360608301526138f08184613876565b905095945050505050565b60008151905061390a8161280a565b92915050565b600060208284031215613926576139256127d4565b5b6000613934848285016138fb565b91505092915050565b600061394882612954565b91507fffffffffffffffffffffffffffffffffffffffffffffffffffffffffffffffff82141561397b5761397a613102565b5b600182019050919050565b7f4e487b7100000000000000000000000000000000000000000000000000000000600052603260045260246000fd5b7f4552433732313a206d696e7420746f20746865207a65726f2061646472657373600082015250565b60006139eb6020836128a4565b91506139f6826139b5565b602082019050919050565b60006020820190508181036000830152613a1a816139de565b9050919050565b7f4552433732313a20746f6b656e20616c7265616479206d696e74656400000000600082015250565b6000613a57601c836128a4565b9150613a6282613a21565b602082019050919050565b60006020820190508181036000830152613a8681613a4a565b905091905056fea26469706673582212208e635463c362aa6cf5833c7aef4c9d6bb9ee3aeaac2170735025543a5344f87e64736f6c63430008090033",
  "linkReferences": {},
  "deployedLinkReferences": {}
}